{
	"contracts/CourseFund.sol": {
		"CourseFund": {
			"abi": [
				{
					"inputs": [
						{
							"internalType": "address",
							"name": "_tokenAddress",
							"type": "address"
						}
					],
					"stateMutability": "nonpayable",
					"type": "constructor"
				},
				{
					"anonymous": false,
					"inputs": [
						{
							"indexed": false,
							"internalType": "uint256",
							"name": "id",
							"type": "uint256"
						},
						{
							"indexed": false,
							"internalType": "string",
							"name": "title",
							"type": "string"
						},
						{
							"indexed": false,
							"internalType": "uint256",
							"name": "goal",
							"type": "uint256"
						},
						{
							"indexed": false,
							"internalType": "uint256",
							"name": "deadline",
							"type": "uint256"
						}
					],
					"name": "CampaignCreated",
					"type": "event"
				},
				{
					"anonymous": false,
					"inputs": [
						{
							"indexed": false,
							"internalType": "uint256",
							"name": "id",
							"type": "uint256"
						},
						{
							"indexed": false,
							"internalType": "bool",
							"name": "success",
							"type": "bool"
						}
					],
					"name": "CampaignFinalized",
					"type": "event"
				},
				{
					"anonymous": false,
					"inputs": [
						{
							"indexed": false,
							"internalType": "uint256",
							"name": "campaignId",
							"type": "uint256"
						},
						{
							"indexed": false,
							"internalType": "address",
							"name": "contributor",
							"type": "address"
						},
						{
							"indexed": false,
							"internalType": "uint256",
							"name": "amount",
							"type": "uint256"
						}
					],
					"name": "ContributionMade",
					"type": "event"
				},
				{
					"inputs": [],
					"name": "campaignCount",
					"outputs": [
						{
							"internalType": "uint256",
							"name": "",
							"type": "uint256"
						}
					],
					"stateMutability": "view",
					"type": "function"
				},
				{
					"inputs": [
						{
							"internalType": "uint256",
							"name": "",
							"type": "uint256"
						}
					],
					"name": "campaigns",
					"outputs": [
						{
							"internalType": "address",
							"name": "creator",
							"type": "address"
						},
						{
							"internalType": "string",
							"name": "title",
							"type": "string"
						},
						{
							"internalType": "uint256",
							"name": "goal",
							"type": "uint256"
						},
						{
							"internalType": "uint256",
							"name": "deadline",
							"type": "uint256"
						},
						{
							"internalType": "uint256",
							"name": "totalFunded",
							"type": "uint256"
						},
						{
							"internalType": "bool",
							"name": "finalized",
							"type": "bool"
						},
						{
							"internalType": "bool",
							"name": "success",
							"type": "bool"
						}
					],
					"stateMutability": "view",
					"type": "function"
				},
				{
					"inputs": [
						{
							"internalType": "uint256",
							"name": "_campaignId",
							"type": "uint256"
						}
					],
					"name": "contribute",
					"outputs": [],
					"stateMutability": "payable",
					"type": "function"
				},
				{
					"inputs": [
						{
							"internalType": "uint256",
							"name": "",
							"type": "uint256"
						},
						{
							"internalType": "address",
							"name": "",
							"type": "address"
						}
					],
					"name": "contributions",
					"outputs": [
						{
							"internalType": "uint256",
							"name": "",
							"type": "uint256"
						}
					],
					"stateMutability": "view",
					"type": "function"
				},
				{
					"inputs": [
						{
							"internalType": "string",
							"name": "_title",
							"type": "string"
						},
						{
							"internalType": "uint256",
							"name": "_goal",
							"type": "uint256"
						},
						{
							"internalType": "uint256",
							"name": "_durationDays",
							"type": "uint256"
						}
					],
					"name": "createCampaign",
					"outputs": [],
					"stateMutability": "nonpayable",
					"type": "function"
				},
				{
					"inputs": [
						{
							"internalType": "uint256",
							"name": "_campaignId",
							"type": "uint256"
						}
					],
					"name": "finalize",
					"outputs": [],
					"stateMutability": "nonpayable",
					"type": "function"
				},
				{
					"inputs": [],
					"name": "rewardToken",
					"outputs": [
						{
							"internalType": "contract ICourseToken",
							"name": "",
							"type": "address"
						}
					],
					"stateMutability": "view",
					"type": "function"
				}
			],
			"devdoc": {
				"kind": "dev",
				"methods": {},
				"version": 1
			},
			"evm": {
				"assembly": "    /* \"contracts/CourseFund.sol\":149:2675  contract CourseFund {... */\n  mstore(0x40, 0x80)\n    /* \"contracts/CourseFund.sol\":842:937  constructor(address _tokenAddress) {... */\n  callvalue\n  dup1\n  iszero\n  tag_1\n  jumpi\n  revert(0x00, 0x00)\ntag_1:\n  pop\n  mload(0x40)\n  sub(codesize, bytecodeSize)\n  dup1\n  bytecodeSize\n  dup4\n  codecopy\n  dup2\n  dup2\n  add\n  0x40\n  mstore\n  dup2\n  add\n  swap1\n  tag_2\n  swap2\n  swap1\n  tag_3\n  jump\t// in\ntag_2:\n    /* \"contracts/CourseFund.sol\":915:928  _tokenAddress */\n  dup1\n    /* \"contracts/CourseFund.sol\":888:899  rewardToken */\n  0x00\n  0x00\n    /* \"contracts/CourseFund.sol\":888:929  rewardToken = ICourseToken(_tokenAddress) */\n  0x0100\n  exp\n  dup2\n  sload\n  dup2\n  0xffffffffffffffffffffffffffffffffffffffff\n  mul\n  not\n  and\n  swap1\n  dup4\n  0xffffffffffffffffffffffffffffffffffffffff\n  and\n  mul\n  or\n  swap1\n  sstore\n  pop\n    /* \"contracts/CourseFund.sol\":842:937  constructor(address _tokenAddress) {... */\n  pop\n    /* \"contracts/CourseFund.sol\":149:2675  contract CourseFund {... */\n  jump(tag_6)\n    /* \"#utility.yul\":88:205   */\ntag_8:\n    /* \"#utility.yul\":197:198   */\n  0x00\n    /* \"#utility.yul\":194:195   */\n  0x00\n    /* \"#utility.yul\":187:199   */\n  revert\n    /* \"#utility.yul\":334:460   */\ntag_10:\n    /* \"#utility.yul\":371:378   */\n  0x00\n    /* \"#utility.yul\":411:453   */\n  0xffffffffffffffffffffffffffffffffffffffff\n    /* \"#utility.yul\":404:409   */\n  dup3\n    /* \"#utility.yul\":400:454   */\n  and\n    /* \"#utility.yul\":389:454   */\n  swap1\n  pop\n    /* \"#utility.yul\":334:460   */\n  swap2\n  swap1\n  pop\n  jump\t// out\n    /* \"#utility.yul\":466:562   */\ntag_11:\n    /* \"#utility.yul\":503:510   */\n  0x00\n    /* \"#utility.yul\":532:556   */\n  tag_20\n    /* \"#utility.yul\":550:555   */\n  dup3\n    /* \"#utility.yul\":532:556   */\n  tag_10\n  jump\t// in\ntag_20:\n    /* \"#utility.yul\":521:556   */\n  swap1\n  pop\n    /* \"#utility.yul\":466:562   */\n  swap2\n  swap1\n  pop\n  jump\t// out\n    /* \"#utility.yul\":568:690   */\ntag_12:\n    /* \"#utility.yul\":641:665   */\n  tag_22\n    /* \"#utility.yul\":659:664   */\n  dup2\n    /* \"#utility.yul\":641:665   */\n  tag_11\n  jump\t// in\ntag_22:\n    /* \"#utility.yul\":634:639   */\n  dup2\n    /* \"#utility.yul\":631:666   */\n  eq\n    /* \"#utility.yul\":621:684   */\n  tag_23\n  jumpi\n    /* \"#utility.yul\":680:681   */\n  0x00\n    /* \"#utility.yul\":677:678   */\n  0x00\n    /* \"#utility.yul\":670:682   */\n  revert\n    /* \"#utility.yul\":621:684   */\ntag_23:\n    /* \"#utility.yul\":568:690   */\n  pop\n  jump\t// out\n    /* \"#utility.yul\":696:839   */\ntag_13:\n    /* \"#utility.yul\":753:758   */\n  0x00\n    /* \"#utility.yul\":784:790   */\n  dup2\n    /* \"#utility.yul\":778:791   */\n  mload\n    /* \"#utility.yul\":769:791   */\n  swap1\n  pop\n    /* \"#utility.yul\":800:833   */\n  tag_25\n    /* \"#utility.yul\":827:832   */\n  dup2\n    /* \"#utility.yul\":800:833   */\n  tag_12\n  jump\t// in\ntag_25:\n    /* \"#utility.yul\":696:839   */\n  swap3\n  swap2\n  pop\n  pop\n  jump\t// out\n    /* \"#utility.yul\":845:1196   */\ntag_3:\n    /* \"#utility.yul\":915:921   */\n  0x00\n    /* \"#utility.yul\":964:966   */\n  0x20\n    /* \"#utility.yul\":952:961   */\n  dup3\n    /* \"#utility.yul\":943:950   */\n  dup5\n    /* \"#utility.yul\":939:962   */\n  sub\n    /* \"#utility.yul\":935:967   */\n  slt\n    /* \"#utility.yul\":932:1051   */\n  iszero\n  tag_27\n  jumpi\n    /* \"#utility.yul\":970:1049   */\n  tag_28\n  tag_8\n  jump\t// in\ntag_28:\n    /* \"#utility.yul\":932:1051   */\ntag_27:\n    /* \"#utility.yul\":1090:1091   */\n  0x00\n    /* \"#utility.yul\":1115:1179   */\n  tag_29\n    /* \"#utility.yul\":1171:1178   */\n  dup5\n    /* \"#utility.yul\":1162:1168   */\n  dup3\n    /* \"#utility.yul\":1151:1160   */\n  dup6\n    /* \"#utility.yul\":1147:1169   */\n  add\n    /* \"#utility.yul\":1115:1179   */\n  tag_13\n  jump\t// in\ntag_29:\n    /* \"#utility.yul\":1105:1179   */\n  swap2\n  pop\n    /* \"#utility.yul\":1061:1189   */\n  pop\n    /* \"#utility.yul\":845:1196   */\n  swap3\n  swap2\n  pop\n  pop\n  jump\t// out\n    /* \"contracts/CourseFund.sol\":149:2675  contract CourseFund {... */\ntag_6:\n  dataSize(sub_0)\n  dup1\n  dataOffset(sub_0)\n  0x00\n  codecopy\n  0x00\n  return\nstop\n\nsub_0: assembly {\n        /* \"contracts/CourseFund.sol\":149:2675  contract CourseFund {... */\n      mstore(0x40, 0x80)\n      jumpi(tag_1, lt(calldatasize, 0x04))\n      shr(0xe0, calldataload(0x00))\n      dup1\n      0x3d891f59\n      gt\n      tag_9\n      jumpi\n      dup1\n      0x3d891f59\n      eq\n      tag_5\n      jumpi\n      dup1\n      0x7274e30d\n      eq\n      tag_6\n      jumpi\n      dup1\n      0xc1cbbca7\n      eq\n      tag_7\n      jumpi\n      dup1\n      0xf7c618c1\n      eq\n      tag_8\n      jumpi\n      jump(tag_1)\n    tag_9:\n      dup1\n      0x05261aea\n      eq\n      tag_2\n      jumpi\n      dup1\n      0x141961bc\n      eq\n      tag_3\n      jumpi\n      dup1\n      0x3020580b\n      eq\n      tag_4\n      jumpi\n    tag_1:\n      revert(0x00, 0x00)\n        /* \"contracts/CourseFund.sol\":2055:2672  function finalize(uint256 _campaignId) public {... */\n    tag_2:\n      callvalue\n      dup1\n      iszero\n      tag_10\n      jumpi\n      revert(0x00, 0x00)\n    tag_10:\n      pop\n      tag_11\n      0x04\n      dup1\n      calldatasize\n      sub\n      dup2\n      add\n      swap1\n      tag_12\n      swap2\n      swap1\n      tag_13\n      jump\t// in\n    tag_12:\n      tag_14\n      jump\t// in\n    tag_11:\n      stop\n        /* \"contracts/CourseFund.sol\":458:503  mapping(uint256 => Campaign) public campaigns */\n    tag_3:\n      callvalue\n      dup1\n      iszero\n      tag_15\n      jumpi\n      revert(0x00, 0x00)\n    tag_15:\n      pop\n      tag_16\n      0x04\n      dup1\n      calldatasize\n      sub\n      dup2\n      add\n      swap1\n      tag_17\n      swap2\n      swap1\n      tag_13\n      jump\t// in\n    tag_17:\n      tag_18\n      jump\t// in\n    tag_16:\n      mload(0x40)\n      tag_19\n      swap8\n      swap7\n      swap6\n      swap5\n      swap4\n      swap3\n      swap2\n      swap1\n      tag_20\n      jump\t// in\n    tag_19:\n      mload(0x40)\n      dup1\n      swap2\n      sub\n      swap1\n      return\n        /* \"contracts/CourseFund.sol\":945:1553  function createCampaign(string memory _title, uint256 _goal, uint256 _durationDays) public {... */\n    tag_4:\n      callvalue\n      dup1\n      iszero\n      tag_21\n      jumpi\n      revert(0x00, 0x00)\n    tag_21:\n      pop\n      tag_22\n      0x04\n      dup1\n      calldatasize\n      sub\n      dup2\n      add\n      swap1\n      tag_23\n      swap2\n      swap1\n      tag_24\n      jump\t// in\n    tag_23:\n      tag_25\n      jump\t// in\n    tag_22:\n      stop\n        /* \"contracts/CourseFund.sol\":510:578  mapping(uint256 => mapping(address => uint256)) public contributions */\n    tag_5:\n      callvalue\n      dup1\n      iszero\n      tag_26\n      jumpi\n      revert(0x00, 0x00)\n    tag_26:\n      pop\n      tag_27\n      0x04\n      dup1\n      calldatasize\n      sub\n      dup2\n      add\n      swap1\n      tag_28\n      swap2\n      swap1\n      tag_29\n      jump\t// in\n    tag_28:\n      tag_30\n      jump\t// in\n    tag_27:\n      mload(0x40)\n      tag_31\n      swap2\n      swap1\n      tag_32\n      jump\t// in\n    tag_31:\n      mload(0x40)\n      dup1\n      swap2\n      sub\n      swap1\n      return\n        /* \"contracts/CourseFund.sol\":423:451  uint256 public campaignCount */\n    tag_6:\n      callvalue\n      dup1\n      iszero\n      tag_33\n      jumpi\n      revert(0x00, 0x00)\n    tag_33:\n      pop\n      tag_34\n      tag_35\n      jump\t// in\n    tag_34:\n      mload(0x40)\n      tag_36\n      swap2\n      swap1\n      tag_32\n      jump\t// in\n    tag_36:\n      mload(0x40)\n      dup1\n      swap2\n      sub\n      swap1\n      return\n        /* \"contracts/CourseFund.sol\":1561:2047  function contribute(uint256 _campaignId) public payable {... */\n    tag_7:\n      tag_37\n      0x04\n      dup1\n      calldatasize\n      sub\n      dup2\n      add\n      swap1\n      tag_38\n      swap2\n      swap1\n      tag_13\n      jump\t// in\n    tag_38:\n      tag_39\n      jump\t// in\n    tag_37:\n      stop\n        /* \"contracts/CourseFund.sol\":385:416  ICourseToken public rewardToken */\n    tag_8:\n      callvalue\n      dup1\n      iszero\n      tag_40\n      jumpi\n      revert(0x00, 0x00)\n    tag_40:\n      pop\n      tag_41\n      tag_42\n      jump\t// in\n    tag_41:\n      mload(0x40)\n      tag_43\n      swap2\n      swap1\n      tag_44\n      jump\t// in\n    tag_43:\n      mload(0x40)\n      dup1\n      swap2\n      sub\n      swap1\n      return\n        /* \"contracts/CourseFund.sol\":2055:2672  function finalize(uint256 _campaignId) public {... */\n    tag_14:\n        /* \"contracts/CourseFund.sol\":2112:2137  Campaign storage campaign */\n      0x00\n        /* \"contracts/CourseFund.sol\":2140:2149  campaigns */\n      0x02\n        /* \"contracts/CourseFund.sol\":2140:2162  campaigns[_campaignId] */\n      0x00\n        /* \"contracts/CourseFund.sol\":2150:2161  _campaignId */\n      dup4\n        /* \"contracts/CourseFund.sol\":2140:2162  campaigns[_campaignId] */\n      dup2\n      mstore\n      0x20\n      add\n      swap1\n      dup2\n      mstore\n      0x20\n      add\n      0x00\n      keccak256\n        /* \"contracts/CourseFund.sol\":2112:2162  Campaign storage campaign = campaigns[_campaignId] */\n      swap1\n      pop\n        /* \"contracts/CourseFund.sol\":2200:2208  campaign */\n      dup1\n        /* \"contracts/CourseFund.sol\":2200:2217  campaign.deadline */\n      0x03\n      add\n      sload\n        /* \"contracts/CourseFund.sol\":2181:2196  block.timestamp */\n      timestamp\n        /* \"contracts/CourseFund.sol\":2181:2217  block.timestamp >= campaign.deadline */\n      lt\n      iszero\n        /* \"contracts/CourseFund.sol\":2173:2242  require(block.timestamp >= campaign.deadline, \"Not reached deadline\") */\n      tag_46\n      jumpi\n      mload(0x40)\n      0x08c379a000000000000000000000000000000000000000000000000000000000\n      dup2\n      mstore\n      0x04\n      add\n      tag_47\n      swap1\n      tag_48\n      jump\t// in\n    tag_47:\n      mload(0x40)\n      dup1\n      swap2\n      sub\n      swap1\n      revert\n    tag_46:\n        /* \"contracts/CourseFund.sol\":2262:2270  campaign */\n      dup1\n        /* \"contracts/CourseFund.sol\":2262:2280  campaign.finalized */\n      0x05\n      add\n      0x00\n      swap1\n      sload\n      swap1\n      0x0100\n      exp\n      swap1\n      div\n      0xff\n      and\n        /* \"contracts/CourseFund.sol\":2261:2280  !campaign.finalized */\n      iszero\n        /* \"contracts/CourseFund.sol\":2253:2302  require(!campaign.finalized, \"Already finalized\") */\n      tag_49\n      jumpi\n      mload(0x40)\n      0x08c379a000000000000000000000000000000000000000000000000000000000\n      dup2\n      mstore\n      0x04\n      add\n      tag_50\n      swap1\n      tag_51\n      jump\t// in\n    tag_50:\n      mload(0x40)\n      dup1\n      swap2\n      sub\n      swap1\n      revert\n    tag_49:\n        /* \"contracts/CourseFund.sol\":2336:2340  true */\n      0x01\n        /* \"contracts/CourseFund.sol\":2315:2323  campaign */\n      dup2\n        /* \"contracts/CourseFund.sol\":2315:2333  campaign.finalized */\n      0x05\n      add\n      0x00\n        /* \"contracts/CourseFund.sol\":2315:2340  campaign.finalized = true */\n      0x0100\n      exp\n      dup2\n      sload\n      dup2\n      0xff\n      mul\n      not\n      and\n      swap1\n      dup4\n      iszero\n      iszero\n      mul\n      or\n      swap1\n      sstore\n      pop\n        /* \"contracts/CourseFund.sol\":2379:2387  campaign */\n      dup1\n        /* \"contracts/CourseFund.sol\":2379:2392  campaign.goal */\n      0x02\n      add\n      sload\n        /* \"contracts/CourseFund.sol\":2355:2363  campaign */\n      dup2\n        /* \"contracts/CourseFund.sol\":2355:2375  campaign.totalFunded */\n      0x04\n      add\n      sload\n        /* \"contracts/CourseFund.sol\":2355:2392  campaign.totalFunded >= campaign.goal */\n      lt\n        /* \"contracts/CourseFund.sol\":2351:2591  if (campaign.totalFunded >= campaign.goal) {... */\n      tag_52\n      jumpi\n        /* \"contracts/CourseFund.sol\":2428:2432  true */\n      0x01\n        /* \"contracts/CourseFund.sol\":2409:2417  campaign */\n      dup2\n        /* \"contracts/CourseFund.sol\":2409:2425  campaign.success */\n      0x05\n      add\n      0x01\n        /* \"contracts/CourseFund.sol\":2409:2432  campaign.success = true */\n      0x0100\n      exp\n      dup2\n      sload\n      dup2\n      0xff\n      mul\n      not\n      and\n      swap1\n      dup4\n      iszero\n      iszero\n      mul\n      or\n      swap1\n      sstore\n      pop\n        /* \"contracts/CourseFund.sol\":2448:2460  bool success */\n      0x00\n        /* \"contracts/CourseFund.sol\":2474:2482  campaign */\n      dup2\n        /* \"contracts/CourseFund.sol\":2474:2490  campaign.creator */\n      0x00\n      add\n      0x00\n      swap1\n      sload\n      swap1\n      0x0100\n      exp\n      swap1\n      div\n      0xffffffffffffffffffffffffffffffffffffffff\n      and\n        /* \"contracts/CourseFund.sol\":2466:2496  payable(campaign.creator).call */\n      0xffffffffffffffffffffffffffffffffffffffff\n      and\n        /* \"contracts/CourseFund.sol\":2504:2512  campaign */\n      dup3\n        /* \"contracts/CourseFund.sol\":2504:2524  campaign.totalFunded */\n      0x04\n      add\n      sload\n        /* \"contracts/CourseFund.sol\":2466:2529  payable(campaign.creator).call{value: campaign.totalFunded}(\"\") */\n      mload(0x40)\n      tag_53\n      swap1\n      tag_54\n      jump\t// in\n    tag_53:\n      0x00\n      mload(0x40)\n      dup1\n      dup4\n      sub\n      dup2\n      dup6\n      dup8\n      gas\n      call\n      swap3\n      pop\n      pop\n      pop\n      returndatasize\n      dup1\n      0x00\n      dup2\n      eq\n      tag_57\n      jumpi\n      mload(0x40)\n      swap2\n      pop\n      and(add(returndatasize, 0x3f), not(0x1f))\n      dup3\n      add\n      0x40\n      mstore\n      returndatasize\n      dup3\n      mstore\n      returndatasize\n      0x00\n      0x20\n      dup5\n      add\n      returndatacopy\n      jump(tag_56)\n    tag_57:\n      0x60\n      swap2\n      pop\n    tag_56:\n      pop\n        /* \"contracts/CourseFund.sol\":2447:2529  (bool success, ) = payable(campaign.creator).call{value: campaign.totalFunded}(\"\") */\n      pop\n      swap1\n      pop\n        /* \"contracts/CourseFund.sol\":2552:2559  success */\n      dup1\n        /* \"contracts/CourseFund.sol\":2544:2579  require(success, \"Transfer failed\") */\n      tag_58\n      jumpi\n      mload(0x40)\n      0x08c379a000000000000000000000000000000000000000000000000000000000\n      dup2\n      mstore\n      0x04\n      add\n      tag_59\n      swap1\n      tag_60\n      jump\t// in\n    tag_59:\n      mload(0x40)\n      dup1\n      swap2\n      sub\n      swap1\n      revert\n    tag_58:\n        /* \"contracts/CourseFund.sol\":2394:2591  {... */\n      pop\n        /* \"contracts/CourseFund.sol\":2351:2591  if (campaign.totalFunded >= campaign.goal) {... */\n    tag_52:\n        /* \"contracts/CourseFund.sol\":2616:2664  CampaignFinalized(_campaignId, campaign.success) */\n      0x153ed4c9c4475018e4899faf78c3171cc7869a9c53a2d247de2ff74377eba788\n        /* \"contracts/CourseFund.sol\":2634:2645  _campaignId */\n      dup3\n        /* \"contracts/CourseFund.sol\":2647:2655  campaign */\n      dup3\n        /* \"contracts/CourseFund.sol\":2647:2663  campaign.success */\n      0x05\n      add\n      0x01\n      swap1\n      sload\n      swap1\n      0x0100\n      exp\n      swap1\n      div\n      0xff\n      and\n        /* \"contracts/CourseFund.sol\":2616:2664  CampaignFinalized(_campaignId, campaign.success) */\n      mload(0x40)\n      tag_61\n      swap3\n      swap2\n      swap1\n      tag_62\n      jump\t// in\n    tag_61:\n      mload(0x40)\n      dup1\n      swap2\n      sub\n      swap1\n      log1\n        /* \"contracts/CourseFund.sol\":2101:2672  {... */\n      pop\n        /* \"contracts/CourseFund.sol\":2055:2672  function finalize(uint256 _campaignId) public {... */\n      pop\n      jump\t// out\n        /* \"contracts/CourseFund.sol\":458:503  mapping(uint256 => Campaign) public campaigns */\n    tag_18:\n      mstore(0x20, 0x02)\n      dup1\n      0x00\n      mstore\n      keccak256(0x00, 0x40)\n      0x00\n      swap2\n      pop\n      swap1\n      pop\n      dup1\n      0x00\n      add\n      0x00\n      swap1\n      sload\n      swap1\n      0x0100\n      exp\n      swap1\n      div\n      0xffffffffffffffffffffffffffffffffffffffff\n      and\n      swap1\n      dup1\n      0x01\n      add\n      dup1\n      sload\n      tag_63\n      swap1\n      tag_64\n      jump\t// in\n    tag_63:\n      dup1\n      0x1f\n      add\n      0x20\n      dup1\n      swap2\n      div\n      mul\n      0x20\n      add\n      mload(0x40)\n      swap1\n      dup2\n      add\n      0x40\n      mstore\n      dup1\n      swap3\n      swap2\n      swap1\n      dup2\n      dup2\n      mstore\n      0x20\n      add\n      dup3\n      dup1\n      sload\n      tag_65\n      swap1\n      tag_64\n      jump\t// in\n    tag_65:\n      dup1\n      iszero\n      tag_66\n      jumpi\n      dup1\n      0x1f\n      lt\n      tag_67\n      jumpi\n      0x0100\n      dup1\n      dup4\n      sload\n      div\n      mul\n      dup4\n      mstore\n      swap2\n      0x20\n      add\n      swap2\n      jump(tag_66)\n    tag_67:\n      dup3\n      add\n      swap2\n      swap1\n      0x00\n      mstore\n      keccak256(0x00, 0x20)\n      swap1\n    tag_68:\n      dup2\n      sload\n      dup2\n      mstore\n      swap1\n      0x01\n      add\n      swap1\n      0x20\n      add\n      dup1\n      dup4\n      gt\n      tag_68\n      jumpi\n      dup3\n      swap1\n      sub\n      0x1f\n      and\n      dup3\n      add\n      swap2\n    tag_66:\n      pop\n      pop\n      pop\n      pop\n      pop\n      swap1\n      dup1\n      0x02\n      add\n      sload\n      swap1\n      dup1\n      0x03\n      add\n      sload\n      swap1\n      dup1\n      0x04\n      add\n      sload\n      swap1\n      dup1\n      0x05\n      add\n      0x00\n      swap1\n      sload\n      swap1\n      0x0100\n      exp\n      swap1\n      div\n      0xff\n      and\n      swap1\n      dup1\n      0x05\n      add\n      0x01\n      swap1\n      sload\n      swap1\n      0x0100\n      exp\n      swap1\n      div\n      0xff\n      and\n      swap1\n      pop\n      dup8\n      jump\t// out\n        /* \"contracts/CourseFund.sol\":945:1553  function createCampaign(string memory _title, uint256 _goal, uint256 _durationDays) public {... */\n    tag_25:\n        /* \"contracts/CourseFund.sol\":1063:1064  0 */\n      0x00\n        /* \"contracts/CourseFund.sol\":1055:1060  _goal */\n      dup3\n        /* \"contracts/CourseFund.sol\":1055:1064  _goal > 0 */\n      gt\n        /* \"contracts/CourseFund.sol\":1047:1085  require(_goal > 0, \"Goal must be > 0\") */\n      tag_70\n      jumpi\n      mload(0x40)\n      0x08c379a000000000000000000000000000000000000000000000000000000000\n      dup2\n      mstore\n      0x04\n      add\n      tag_71\n      swap1\n      tag_72\n      jump\t// in\n    tag_71:\n      mload(0x40)\n      dup1\n      swap2\n      sub\n      swap1\n      revert\n    tag_70:\n        /* \"contracts/CourseFund.sol\":1096:1109  campaignCount */\n      0x01\n      0x00\n        /* \"contracts/CourseFund.sol\":1096:1111  campaignCount++ */\n      dup2\n      sload\n      dup1\n      swap3\n      swap2\n      swap1\n      tag_73\n      swap1\n      tag_74\n      jump\t// in\n    tag_73:\n      swap2\n      swap1\n      pop\n      sstore\n      pop\n        /* \"contracts/CourseFund.sol\":1132:1148  uint256 deadline */\n      0x00\n        /* \"contracts/CourseFund.sol\":1186:1192  1 days */\n      0x015180\n        /* \"contracts/CourseFund.sol\":1170:1183  _durationDays */\n      dup3\n        /* \"contracts/CourseFund.sol\":1170:1192  _durationDays * 1 days */\n      tag_75\n      swap2\n      swap1\n      tag_76\n      jump\t// in\n    tag_75:\n        /* \"contracts/CourseFund.sol\":1151:1166  block.timestamp */\n      timestamp\n        /* \"contracts/CourseFund.sol\":1151:1193  block.timestamp + (_durationDays * 1 days) */\n      tag_77\n      swap2\n      swap1\n      tag_78\n      jump\t// in\n    tag_77:\n        /* \"contracts/CourseFund.sol\":1132:1193  uint256 deadline = block.timestamp + (_durationDays * 1 days) */\n      swap1\n      pop\n        /* \"contracts/CourseFund.sol\":1241:1472  Campaign({... */\n      mload(0x40)\n      dup1\n      0xe0\n      add\n      0x40\n      mstore\n      dup1\n        /* \"contracts/CourseFund.sol\":1274:1284  msg.sender */\n      caller\n        /* \"contracts/CourseFund.sol\":1241:1472  Campaign({... */\n      0xffffffffffffffffffffffffffffffffffffffff\n      and\n      dup2\n      mstore\n      0x20\n      add\n        /* \"contracts/CourseFund.sol\":1306:1312  _title */\n      dup6\n        /* \"contracts/CourseFund.sol\":1241:1472  Campaign({... */\n      dup2\n      mstore\n      0x20\n      add\n        /* \"contracts/CourseFund.sol\":1333:1338  _goal */\n      dup5\n        /* \"contracts/CourseFund.sol\":1241:1472  Campaign({... */\n      dup2\n      mstore\n      0x20\n      add\n        /* \"contracts/CourseFund.sol\":1363:1371  deadline */\n      dup3\n        /* \"contracts/CourseFund.sol\":1241:1472  Campaign({... */\n      dup2\n      mstore\n      0x20\n      add\n        /* \"contracts/CourseFund.sol\":1399:1400  0 */\n      0x00\n        /* \"contracts/CourseFund.sol\":1241:1472  Campaign({... */\n      dup2\n      mstore\n      0x20\n      add\n        /* \"contracts/CourseFund.sol\":1426:1431  false */\n      0x00\n        /* \"contracts/CourseFund.sol\":1241:1472  Campaign({... */\n      iszero\n      iszero\n      dup2\n      mstore\n      0x20\n      add\n        /* \"contracts/CourseFund.sol\":1455:1460  false */\n      0x00\n        /* \"contracts/CourseFund.sol\":1241:1472  Campaign({... */\n      iszero\n      iszero\n      dup2\n      mstore\n      pop\n        /* \"contracts/CourseFund.sol\":1214:1223  campaigns */\n      0x02\n        /* \"contracts/CourseFund.sol\":1214:1238  campaigns[campaignCount] */\n      0x00\n        /* \"contracts/CourseFund.sol\":1224:1237  campaignCount */\n      sload(0x01)\n        /* \"contracts/CourseFund.sol\":1214:1238  campaigns[campaignCount] */\n      dup2\n      mstore\n      0x20\n      add\n      swap1\n      dup2\n      mstore\n      0x20\n      add\n      0x00\n      keccak256\n        /* \"contracts/CourseFund.sol\":1214:1472  campaigns[campaignCount] = Campaign({... */\n      0x00\n      dup3\n      add\n      mload\n      dup2\n      0x00\n      add\n      exp(0x0100, 0x00)\n      dup2\n      sload\n      dup2\n      0xffffffffffffffffffffffffffffffffffffffff\n      mul\n      not\n      and\n      swap1\n      dup4\n      0xffffffffffffffffffffffffffffffffffffffff\n      and\n      mul\n      or\n      swap1\n      sstore\n      pop\n      0x20\n      dup3\n      add\n      mload\n      dup2\n      0x01\n      add\n      swap1\n      dup2\n      tag_79\n      swap2\n      swap1\n      tag_80\n      jump\t// in\n    tag_79:\n      pop\n      0x40\n      dup3\n      add\n      mload\n      dup2\n      0x02\n      add\n      sstore\n      0x60\n      dup3\n      add\n      mload\n      dup2\n      0x03\n      add\n      sstore\n      0x80\n      dup3\n      add\n      mload\n      dup2\n      0x04\n      add\n      sstore\n      0xa0\n      dup3\n      add\n      mload\n      dup2\n      0x05\n      add\n      exp(0x0100, 0x00)\n      dup2\n      sload\n      dup2\n      0xff\n      mul\n      not\n      and\n      swap1\n      dup4\n      iszero\n      iszero\n      mul\n      or\n      swap1\n      sstore\n      pop\n      0xc0\n      dup3\n      add\n      mload\n      dup2\n      0x05\n      add\n      exp(0x0100, 0x01)\n      dup2\n      sload\n      dup2\n      0xff\n      mul\n      not\n      and\n      swap1\n      dup4\n      iszero\n      iszero\n      mul\n      or\n      swap1\n      sstore\n      pop\n      swap1\n      pop\n      pop\n        /* \"contracts/CourseFund.sol\":1490:1545  CampaignCreated(campaignCount, _title, _goal, deadline) */\n      0x02fe3fddd43aad14ae5c30d5d694f19ecb065dfde85bb591b91e8af1448724d2\n        /* \"contracts/CourseFund.sol\":1506:1519  campaignCount */\n      sload(0x01)\n        /* \"contracts/CourseFund.sol\":1521:1527  _title */\n      dup6\n        /* \"contracts/CourseFund.sol\":1529:1534  _goal */\n      dup6\n        /* \"contracts/CourseFund.sol\":1536:1544  deadline */\n      dup5\n        /* \"contracts/CourseFund.sol\":1490:1545  CampaignCreated(campaignCount, _title, _goal, deadline) */\n      mload(0x40)\n      tag_81\n      swap5\n      swap4\n      swap3\n      swap2\n      swap1\n      tag_82\n      jump\t// in\n    tag_81:\n      mload(0x40)\n      dup1\n      swap2\n      sub\n      swap1\n      log1\n        /* \"contracts/CourseFund.sol\":1036:1553  {... */\n      pop\n        /* \"contracts/CourseFund.sol\":945:1553  function createCampaign(string memory _title, uint256 _goal, uint256 _durationDays) public {... */\n      pop\n      pop\n      pop\n      jump\t// out\n        /* \"contracts/CourseFund.sol\":510:578  mapping(uint256 => mapping(address => uint256)) public contributions */\n    tag_30:\n      mstore(0x20, 0x03)\n      dup2\n      0x00\n      mstore\n      mstore(0x20, keccak256(0x00, 0x40))\n      dup1\n      0x00\n      mstore\n      keccak256(0x00, 0x40)\n      0x00\n      swap2\n      pop\n      swap2\n      pop\n      pop\n      sload\n      dup2\n      jump\t// out\n        /* \"contracts/CourseFund.sol\":423:451  uint256 public campaignCount */\n    tag_35:\n      sload(0x01)\n      dup2\n      jump\t// out\n        /* \"contracts/CourseFund.sol\":1561:2047  function contribute(uint256 _campaignId) public payable {... */\n    tag_39:\n        /* \"contracts/CourseFund.sol\":1628:1653  Campaign storage campaign */\n      0x00\n        /* \"contracts/CourseFund.sol\":1656:1665  campaigns */\n      0x02\n        /* \"contracts/CourseFund.sol\":1656:1678  campaigns[_campaignId] */\n      0x00\n        /* \"contracts/CourseFund.sol\":1666:1677  _campaignId */\n      dup4\n        /* \"contracts/CourseFund.sol\":1656:1678  campaigns[_campaignId] */\n      dup2\n      mstore\n      0x20\n      add\n      swap1\n      dup2\n      mstore\n      0x20\n      add\n      0x00\n      keccak256\n        /* \"contracts/CourseFund.sol\":1628:1678  Campaign storage campaign = campaigns[_campaignId] */\n      swap1\n      pop\n        /* \"contracts/CourseFund.sol\":1715:1723  campaign */\n      dup1\n        /* \"contracts/CourseFund.sol\":1715:1732  campaign.deadline */\n      0x03\n      add\n      sload\n        /* \"contracts/CourseFund.sol\":1697:1712  block.timestamp */\n      timestamp\n        /* \"contracts/CourseFund.sol\":1697:1732  block.timestamp < campaign.deadline */\n      lt\n        /* \"contracts/CourseFund.sol\":1689:1753  require(block.timestamp < campaign.deadline, \"Campaign is over\") */\n      tag_84\n      jumpi\n      mload(0x40)\n      0x08c379a000000000000000000000000000000000000000000000000000000000\n      dup2\n      mstore\n      0x04\n      add\n      tag_85\n      swap1\n      tag_86\n      jump\t// in\n    tag_85:\n      mload(0x40)\n      dup1\n      swap2\n      sub\n      swap1\n      revert\n    tag_84:\n        /* \"contracts/CourseFund.sol\":1784:1785  0 */\n      0x00\n        /* \"contracts/CourseFund.sol\":1772:1781  msg.value */\n      callvalue\n        /* \"contracts/CourseFund.sol\":1772:1785  msg.value > 0 */\n      gt\n        /* \"contracts/CourseFund.sol\":1764:1803  require(msg.value > 0, \"Send some ETH\") */\n      tag_87\n      jumpi\n      mload(0x40)\n      0x08c379a000000000000000000000000000000000000000000000000000000000\n      dup2\n      mstore\n      0x04\n      add\n      tag_88\n      swap1\n      tag_89\n      jump\t// in\n    tag_88:\n      mload(0x40)\n      dup1\n      swap2\n      sub\n      swap1\n      revert\n    tag_87:\n        /* \"contracts/CourseFund.sol\":1840:1849  msg.value */\n      callvalue\n        /* \"contracts/CourseFund.sol\":1816:1824  campaign */\n      dup2\n        /* \"contracts/CourseFund.sol\":1816:1836  campaign.totalFunded */\n      0x04\n      add\n      0x00\n        /* \"contracts/CourseFund.sol\":1816:1849  campaign.totalFunded += msg.value */\n      dup3\n      dup3\n      sload\n      tag_90\n      swap2\n      swap1\n      tag_78\n      jump\t// in\n    tag_90:\n      swap3\n      pop\n      pop\n      dup2\n      swap1\n      sstore\n      pop\n        /* \"contracts/CourseFund.sol\":1902:1911  msg.value */\n      callvalue\n        /* \"contracts/CourseFund.sol\":1860:1873  contributions */\n      0x03\n        /* \"contracts/CourseFund.sol\":1860:1886  contributions[_campaignId] */\n      0x00\n        /* \"contracts/CourseFund.sol\":1874:1885  _campaignId */\n      dup5\n        /* \"contracts/CourseFund.sol\":1860:1886  contributions[_campaignId] */\n      dup2\n      mstore\n      0x20\n      add\n      swap1\n      dup2\n      mstore\n      0x20\n      add\n      0x00\n      keccak256\n        /* \"contracts/CourseFund.sol\":1860:1898  contributions[_campaignId][msg.sender] */\n      0x00\n        /* \"contracts/CourseFund.sol\":1887:1897  msg.sender */\n      caller\n        /* \"contracts/CourseFund.sol\":1860:1898  contributions[_campaignId][msg.sender] */\n      0xffffffffffffffffffffffffffffffffffffffff\n      and\n      0xffffffffffffffffffffffffffffffffffffffff\n      and\n      dup2\n      mstore\n      0x20\n      add\n      swap1\n      dup2\n      mstore\n      0x20\n      add\n      0x00\n      keccak256\n      0x00\n        /* \"contracts/CourseFund.sol\":1860:1911  contributions[_campaignId][msg.sender] += msg.value */\n      dup3\n      dup3\n      sload\n      tag_91\n      swap2\n      swap1\n      tag_78\n      jump\t// in\n    tag_91:\n      swap3\n      pop\n      pop\n      dup2\n      swap1\n      sstore\n      pop\n        /* \"contracts/CourseFund.sol\":1924:1935  rewardToken */\n      0x00\n      0x00\n      swap1\n      sload\n      swap1\n      0x0100\n      exp\n      swap1\n      div\n      0xffffffffffffffffffffffffffffffffffffffff\n      and\n        /* \"contracts/CourseFund.sol\":1924:1940  rewardToken.mint */\n      0xffffffffffffffffffffffffffffffffffffffff\n      and\n      0x40c10f19\n        /* \"contracts/CourseFund.sol\":1941:1951  msg.sender */\n      caller\n        /* \"contracts/CourseFund.sol\":1965:1968  100 */\n      0x64\n        /* \"contracts/CourseFund.sol\":1953:1962  msg.value */\n      callvalue\n        /* \"contracts/CourseFund.sol\":1953:1968  msg.value * 100 */\n      tag_92\n      swap2\n      swap1\n      tag_76\n      jump\t// in\n    tag_92:\n        /* \"contracts/CourseFund.sol\":1924:1969  rewardToken.mint(msg.sender, msg.value * 100) */\n      mload(0x40)\n      dup4\n      0xffffffff\n      and\n      0xe0\n      shl\n      dup2\n      mstore\n      0x04\n      add\n      tag_93\n      swap3\n      swap2\n      swap1\n      tag_94\n      jump\t// in\n    tag_93:\n      0x00\n      mload(0x40)\n      dup1\n      dup4\n      sub\n      dup2\n      0x00\n      dup8\n      dup1\n      extcodesize\n      iszero\n      dup1\n      iszero\n      tag_95\n      jumpi\n      revert(0x00, 0x00)\n    tag_95:\n      pop\n      gas\n      call\n      iszero\n      dup1\n      iszero\n      tag_97\n      jumpi\n      returndatacopy(0x00, 0x00, returndatasize)\n      revert(0x00, returndatasize)\n    tag_97:\n      pop\n      pop\n      pop\n      pop\n        /* \"contracts/CourseFund.sol\":1987:2039  ContributionMade(_campaignId, msg.sender, msg.value) */\n      0x0a4a91237423e0a1766a761c7cb029311d8b95d6b1b81db1b949a70c98b4e08e\n        /* \"contracts/CourseFund.sol\":2004:2015  _campaignId */\n      dup3\n        /* \"contracts/CourseFund.sol\":2017:2027  msg.sender */\n      caller\n        /* \"contracts/CourseFund.sol\":2029:2038  msg.value */\n      callvalue\n        /* \"contracts/CourseFund.sol\":1987:2039  ContributionMade(_campaignId, msg.sender, msg.value) */\n      mload(0x40)\n      tag_98\n      swap4\n      swap3\n      swap2\n      swap1\n      tag_99\n      jump\t// in\n    tag_98:\n      mload(0x40)\n      dup1\n      swap2\n      sub\n      swap1\n      log1\n        /* \"contracts/CourseFund.sol\":1617:2047  {... */\n      pop\n        /* \"contracts/CourseFund.sol\":1561:2047  function contribute(uint256 _campaignId) public payable {... */\n      pop\n      jump\t// out\n        /* \"contracts/CourseFund.sol\":385:416  ICourseToken public rewardToken */\n    tag_42:\n      0x00\n      0x00\n      swap1\n      sload\n      swap1\n      0x0100\n      exp\n      swap1\n      div\n      0xffffffffffffffffffffffffffffffffffffffff\n      and\n      dup2\n      jump\t// out\n        /* \"#utility.yul\":7:82   */\n    tag_100:\n        /* \"#utility.yul\":40:46   */\n      0x00\n        /* \"#utility.yul\":73:75   */\n      0x40\n        /* \"#utility.yul\":67:76   */\n      mload\n        /* \"#utility.yul\":57:76   */\n      swap1\n      pop\n        /* \"#utility.yul\":7:82   */\n      swap1\n      jump\t// out\n        /* \"#utility.yul\":88:205   */\n    tag_101:\n        /* \"#utility.yul\":197:198   */\n      0x00\n        /* \"#utility.yul\":194:195   */\n      0x00\n        /* \"#utility.yul\":187:199   */\n      revert\n        /* \"#utility.yul\":211:328   */\n    tag_102:\n        /* \"#utility.yul\":320:321   */\n      0x00\n        /* \"#utility.yul\":317:318   */\n      0x00\n        /* \"#utility.yul\":310:322   */\n      revert\n        /* \"#utility.yul\":334:411   */\n    tag_103:\n        /* \"#utility.yul\":371:378   */\n      0x00\n        /* \"#utility.yul\":400:405   */\n      dup2\n        /* \"#utility.yul\":389:405   */\n      swap1\n      pop\n        /* \"#utility.yul\":334:411   */\n      swap2\n      swap1\n      pop\n      jump\t// out\n        /* \"#utility.yul\":417:539   */\n    tag_104:\n        /* \"#utility.yul\":490:514   */\n      tag_170\n        /* \"#utility.yul\":508:513   */\n      dup2\n        /* \"#utility.yul\":490:514   */\n      tag_103\n      jump\t// in\n    tag_170:\n        /* \"#utility.yul\":483:488   */\n      dup2\n        /* \"#utility.yul\":480:515   */\n      eq\n        /* \"#utility.yul\":470:533   */\n      tag_171\n      jumpi\n        /* \"#utility.yul\":529:530   */\n      0x00\n        /* \"#utility.yul\":526:527   */\n      0x00\n        /* \"#utility.yul\":519:531   */\n      revert\n        /* \"#utility.yul\":470:533   */\n    tag_171:\n        /* \"#utility.yul\":417:539   */\n      pop\n      jump\t// out\n        /* \"#utility.yul\":545:684   */\n    tag_105:\n        /* \"#utility.yul\":591:596   */\n      0x00\n        /* \"#utility.yul\":629:635   */\n      dup2\n        /* \"#utility.yul\":616:636   */\n      calldataload\n        /* \"#utility.yul\":607:636   */\n      swap1\n      pop\n        /* \"#utility.yul\":645:678   */\n      tag_173\n        /* \"#utility.yul\":672:677   */\n      dup2\n        /* \"#utility.yul\":645:678   */\n      tag_104\n      jump\t// in\n    tag_173:\n        /* \"#utility.yul\":545:684   */\n      swap3\n      swap2\n      pop\n      pop\n      jump\t// out\n        /* \"#utility.yul\":690:1019   */\n    tag_13:\n        /* \"#utility.yul\":749:755   */\n      0x00\n        /* \"#utility.yul\":798:800   */\n      0x20\n        /* \"#utility.yul\":786:795   */\n      dup3\n        /* \"#utility.yul\":777:784   */\n      dup5\n        /* \"#utility.yul\":773:796   */\n      sub\n        /* \"#utility.yul\":769:801   */\n      slt\n        /* \"#utility.yul\":766:885   */\n      iszero\n      tag_175\n      jumpi\n        /* \"#utility.yul\":804:883   */\n      tag_176\n      tag_101\n      jump\t// in\n    tag_176:\n        /* \"#utility.yul\":766:885   */\n    tag_175:\n        /* \"#utility.yul\":924:925   */\n      0x00\n        /* \"#utility.yul\":949:1002   */\n      tag_177\n        /* \"#utility.yul\":994:1001   */\n      dup5\n        /* \"#utility.yul\":985:991   */\n      dup3\n        /* \"#utility.yul\":974:983   */\n      dup6\n        /* \"#utility.yul\":970:992   */\n      add\n        /* \"#utility.yul\":949:1002   */\n      tag_105\n      jump\t// in\n    tag_177:\n        /* \"#utility.yul\":939:1002   */\n      swap2\n      pop\n        /* \"#utility.yul\":895:1012   */\n      pop\n        /* \"#utility.yul\":690:1019   */\n      swap3\n      swap2\n      pop\n      pop\n      jump\t// out\n        /* \"#utility.yul\":1025:1151   */\n    tag_106:\n        /* \"#utility.yul\":1062:1069   */\n      0x00\n        /* \"#utility.yul\":1102:1144   */\n      0xffffffffffffffffffffffffffffffffffffffff\n        /* \"#utility.yul\":1095:1100   */\n      dup3\n        /* \"#utility.yul\":1091:1145   */\n      and\n        /* \"#utility.yul\":1080:1145   */\n      swap1\n      pop\n        /* \"#utility.yul\":1025:1151   */\n      swap2\n      swap1\n      pop\n      jump\t// out\n        /* \"#utility.yul\":1157:1253   */\n    tag_107:\n        /* \"#utility.yul\":1194:1201   */\n      0x00\n        /* \"#utility.yul\":1223:1247   */\n      tag_180\n        /* \"#utility.yul\":1241:1246   */\n      dup3\n        /* \"#utility.yul\":1223:1247   */\n      tag_106\n      jump\t// in\n    tag_180:\n        /* \"#utility.yul\":1212:1247   */\n      swap1\n      pop\n        /* \"#utility.yul\":1157:1253   */\n      swap2\n      swap1\n      pop\n      jump\t// out\n        /* \"#utility.yul\":1259:1377   */\n    tag_108:\n        /* \"#utility.yul\":1346:1370   */\n      tag_182\n        /* \"#utility.yul\":1364:1369   */\n      dup2\n        /* \"#utility.yul\":1346:1370   */\n      tag_107\n      jump\t// in\n    tag_182:\n        /* \"#utility.yul\":1341:1344   */\n      dup3\n        /* \"#utility.yul\":1334:1371   */\n      mstore\n        /* \"#utility.yul\":1259:1377   */\n      pop\n      pop\n      jump\t// out\n        /* \"#utility.yul\":1383:1482   */\n    tag_109:\n        /* \"#utility.yul\":1435:1441   */\n      0x00\n        /* \"#utility.yul\":1469:1474   */\n      dup2\n        /* \"#utility.yul\":1463:1475   */\n      mload\n        /* \"#utility.yul\":1453:1475   */\n      swap1\n      pop\n        /* \"#utility.yul\":1383:1482   */\n      swap2\n      swap1\n      pop\n      jump\t// out\n        /* \"#utility.yul\":1488:1657   */\n    tag_110:\n        /* \"#utility.yul\":1572:1583   */\n      0x00\n        /* \"#utility.yul\":1606:1612   */\n      dup3\n        /* \"#utility.yul\":1601:1604   */\n      dup3\n        /* \"#utility.yul\":1594:1613   */\n      mstore\n        /* \"#utility.yul\":1646:1650   */\n      0x20\n        /* \"#utility.yul\":1641:1644   */\n      dup3\n        /* \"#utility.yul\":1637:1651   */\n      add\n        /* \"#utility.yul\":1622:1651   */\n      swap1\n      pop\n        /* \"#utility.yul\":1488:1657   */\n      swap3\n      swap2\n      pop\n      pop\n      jump\t// out\n        /* \"#utility.yul\":1663:1802   */\n    tag_111:\n        /* \"#utility.yul\":1752:1758   */\n      dup3\n        /* \"#utility.yul\":1747:1750   */\n      dup2\n        /* \"#utility.yul\":1742:1745   */\n      dup4\n        /* \"#utility.yul\":1736:1759   */\n      mcopy\n        /* \"#utility.yul\":1793:1794   */\n      0x00\n        /* \"#utility.yul\":1784:1790   */\n      dup4\n        /* \"#utility.yul\":1779:1782   */\n      dup4\n        /* \"#utility.yul\":1775:1791   */\n      add\n        /* \"#utility.yul\":1768:1795   */\n      mstore\n        /* \"#utility.yul\":1663:1802   */\n      pop\n      pop\n      pop\n      jump\t// out\n        /* \"#utility.yul\":1808:1910   */\n    tag_112:\n        /* \"#utility.yul\":1849:1855   */\n      0x00\n        /* \"#utility.yul\":1900:1902   */\n      0x1f\n        /* \"#utility.yul\":1896:1903   */\n      not\n        /* \"#utility.yul\":1891:1893   */\n      0x1f\n        /* \"#utility.yul\":1884:1889   */\n      dup4\n        /* \"#utility.yul\":1880:1894   */\n      add\n        /* \"#utility.yul\":1876:1904   */\n      and\n        /* \"#utility.yul\":1866:1904   */\n      swap1\n      pop\n        /* \"#utility.yul\":1808:1910   */\n      swap2\n      swap1\n      pop\n      jump\t// out\n        /* \"#utility.yul\":1916:2293   */\n    tag_113:\n        /* \"#utility.yul\":2004:2007   */\n      0x00\n        /* \"#utility.yul\":2032:2071   */\n      tag_188\n        /* \"#utility.yul\":2065:2070   */\n      dup3\n        /* \"#utility.yul\":2032:2071   */\n      tag_109\n      jump\t// in\n    tag_188:\n        /* \"#utility.yul\":2087:2158   */\n      tag_189\n        /* \"#utility.yul\":2151:2157   */\n      dup2\n        /* \"#utility.yul\":2146:2149   */\n      dup6\n        /* \"#utility.yul\":2087:2158   */\n      tag_110\n      jump\t// in\n    tag_189:\n        /* \"#utility.yul\":2080:2158   */\n      swap4\n      pop\n        /* \"#utility.yul\":2167:2232   */\n      tag_190\n        /* \"#utility.yul\":2225:2231   */\n      dup2\n        /* \"#utility.yul\":2220:2223   */\n      dup6\n        /* \"#utility.yul\":2213:2217   */\n      0x20\n        /* \"#utility.yul\":2206:2211   */\n      dup7\n        /* \"#utility.yul\":2202:2218   */\n      add\n        /* \"#utility.yul\":2167:2232   */\n      tag_111\n      jump\t// in\n    tag_190:\n        /* \"#utility.yul\":2257:2286   */\n      tag_191\n        /* \"#utility.yul\":2279:2285   */\n      dup2\n        /* \"#utility.yul\":2257:2286   */\n      tag_112\n      jump\t// in\n    tag_191:\n        /* \"#utility.yul\":2252:2255   */\n      dup5\n        /* \"#utility.yul\":2248:2287   */\n      add\n        /* \"#utility.yul\":2241:2287   */\n      swap2\n      pop\n        /* \"#utility.yul\":2008:2293   */\n      pop\n        /* \"#utility.yul\":1916:2293   */\n      swap3\n      swap2\n      pop\n      pop\n      jump\t// out\n        /* \"#utility.yul\":2299:2417   */\n    tag_114:\n        /* \"#utility.yul\":2386:2410   */\n      tag_193\n        /* \"#utility.yul\":2404:2409   */\n      dup2\n        /* \"#utility.yul\":2386:2410   */\n      tag_103\n      jump\t// in\n    tag_193:\n        /* \"#utility.yul\":2381:2384   */\n      dup3\n        /* \"#utility.yul\":2374:2411   */\n      mstore\n        /* \"#utility.yul\":2299:2417   */\n      pop\n      pop\n      jump\t// out\n        /* \"#utility.yul\":2423:2513   */\n    tag_115:\n        /* \"#utility.yul\":2457:2464   */\n      0x00\n        /* \"#utility.yul\":2500:2505   */\n      dup2\n        /* \"#utility.yul\":2493:2506   */\n      iszero\n        /* \"#utility.yul\":2486:2507   */\n      iszero\n        /* \"#utility.yul\":2475:2507   */\n      swap1\n      pop\n        /* \"#utility.yul\":2423:2513   */\n      swap2\n      swap1\n      pop\n      jump\t// out\n        /* \"#utility.yul\":2519:2628   */\n    tag_116:\n        /* \"#utility.yul\":2600:2621   */\n      tag_196\n        /* \"#utility.yul\":2615:2620   */\n      dup2\n        /* \"#utility.yul\":2600:2621   */\n      tag_115\n      jump\t// in\n    tag_196:\n        /* \"#utility.yul\":2595:2598   */\n      dup3\n        /* \"#utility.yul\":2588:2622   */\n      mstore\n        /* \"#utility.yul\":2519:2628   */\n      pop\n      pop\n      jump\t// out\n        /* \"#utility.yul\":2634:3587   */\n    tag_20:\n        /* \"#utility.yul\":2903:2907   */\n      0x00\n        /* \"#utility.yul\":2941:2944   */\n      0xe0\n        /* \"#utility.yul\":2930:2939   */\n      dup3\n        /* \"#utility.yul\":2926:2945   */\n      add\n        /* \"#utility.yul\":2918:2945   */\n      swap1\n      pop\n        /* \"#utility.yul\":2955:3026   */\n      tag_198\n        /* \"#utility.yul\":3023:3024   */\n      0x00\n        /* \"#utility.yul\":3012:3021   */\n      dup4\n        /* \"#utility.yul\":3008:3025   */\n      add\n        /* \"#utility.yul\":2999:3005   */\n      dup11\n        /* \"#utility.yul\":2955:3026   */\n      tag_108\n      jump\t// in\n    tag_198:\n        /* \"#utility.yul\":3073:3082   */\n      dup2\n        /* \"#utility.yul\":3067:3071   */\n      dup2\n        /* \"#utility.yul\":3063:3083   */\n      sub\n        /* \"#utility.yul\":3058:3060   */\n      0x20\n        /* \"#utility.yul\":3047:3056   */\n      dup4\n        /* \"#utility.yul\":3043:3061   */\n      add\n        /* \"#utility.yul\":3036:3084   */\n      mstore\n        /* \"#utility.yul\":3101:3179   */\n      tag_199\n        /* \"#utility.yul\":3174:3178   */\n      dup2\n        /* \"#utility.yul\":3165:3171   */\n      dup10\n        /* \"#utility.yul\":3101:3179   */\n      tag_113\n      jump\t// in\n    tag_199:\n        /* \"#utility.yul\":3093:3179   */\n      swap1\n      pop\n        /* \"#utility.yul\":3189:3261   */\n      tag_200\n        /* \"#utility.yul\":3257:3259   */\n      0x40\n        /* \"#utility.yul\":3246:3255   */\n      dup4\n        /* \"#utility.yul\":3242:3260   */\n      add\n        /* \"#utility.yul\":3233:3239   */\n      dup9\n        /* \"#utility.yul\":3189:3261   */\n      tag_114\n      jump\t// in\n    tag_200:\n        /* \"#utility.yul\":3271:3343   */\n      tag_201\n        /* \"#utility.yul\":3339:3341   */\n      0x60\n        /* \"#utility.yul\":3328:3337   */\n      dup4\n        /* \"#utility.yul\":3324:3342   */\n      add\n        /* \"#utility.yul\":3315:3321   */\n      dup8\n        /* \"#utility.yul\":3271:3343   */\n      tag_114\n      jump\t// in\n    tag_201:\n        /* \"#utility.yul\":3353:3426   */\n      tag_202\n        /* \"#utility.yul\":3421:3424   */\n      0x80\n        /* \"#utility.yul\":3410:3419   */\n      dup4\n        /* \"#utility.yul\":3406:3425   */\n      add\n        /* \"#utility.yul\":3397:3403   */\n      dup7\n        /* \"#utility.yul\":3353:3426   */\n      tag_114\n      jump\t// in\n    tag_202:\n        /* \"#utility.yul\":3436:3503   */\n      tag_203\n        /* \"#utility.yul\":3498:3501   */\n      0xa0\n        /* \"#utility.yul\":3487:3496   */\n      dup4\n        /* \"#utility.yul\":3483:3502   */\n      add\n        /* \"#utility.yul\":3474:3480   */\n      dup6\n        /* \"#utility.yul\":3436:3503   */\n      tag_116\n      jump\t// in\n    tag_203:\n        /* \"#utility.yul\":3513:3580   */\n      tag_204\n        /* \"#utility.yul\":3575:3578   */\n      0xc0\n        /* \"#utility.yul\":3564:3573   */\n      dup4\n        /* \"#utility.yul\":3560:3579   */\n      add\n        /* \"#utility.yul\":3551:3557   */\n      dup5\n        /* \"#utility.yul\":3513:3580   */\n      tag_116\n      jump\t// in\n    tag_204:\n        /* \"#utility.yul\":2634:3587   */\n      swap9\n      swap8\n      pop\n      pop\n      pop\n      pop\n      pop\n      pop\n      pop\n      pop\n      jump\t// out\n        /* \"#utility.yul\":3593:3710   */\n    tag_117:\n        /* \"#utility.yul\":3702:3703   */\n      0x00\n        /* \"#utility.yul\":3699:3700   */\n      0x00\n        /* \"#utility.yul\":3692:3704   */\n      revert\n        /* \"#utility.yul\":3716:3833   */\n    tag_118:\n        /* \"#utility.yul\":3825:3826   */\n      0x00\n        /* \"#utility.yul\":3822:3823   */\n      0x00\n        /* \"#utility.yul\":3815:3827   */\n      revert\n        /* \"#utility.yul\":3839:4019   */\n    tag_119:\n        /* \"#utility.yul\":3887:3964   */\n      0x4e487b7100000000000000000000000000000000000000000000000000000000\n        /* \"#utility.yul\":3884:3885   */\n      0x00\n        /* \"#utility.yul\":3877:3965   */\n      mstore\n        /* \"#utility.yul\":3984:3988   */\n      0x41\n        /* \"#utility.yul\":3981:3982   */\n      0x04\n        /* \"#utility.yul\":3974:3989   */\n      mstore\n        /* \"#utility.yul\":4008:4012   */\n      0x24\n        /* \"#utility.yul\":4005:4006   */\n      0x00\n        /* \"#utility.yul\":3998:4013   */\n      revert\n        /* \"#utility.yul\":4025:4306   */\n    tag_120:\n        /* \"#utility.yul\":4108:4135   */\n      tag_209\n        /* \"#utility.yul\":4130:4134   */\n      dup3\n        /* \"#utility.yul\":4108:4135   */\n      tag_112\n      jump\t// in\n    tag_209:\n        /* \"#utility.yul\":4100:4106   */\n      dup2\n        /* \"#utility.yul\":4096:4136   */\n      add\n        /* \"#utility.yul\":4238:4244   */\n      dup2\n        /* \"#utility.yul\":4226:4236   */\n      dup2\n        /* \"#utility.yul\":4223:4245   */\n      lt\n        /* \"#utility.yul\":4202:4220   */\n      0xffffffffffffffff\n        /* \"#utility.yul\":4190:4200   */\n      dup3\n        /* \"#utility.yul\":4187:4221   */\n      gt\n        /* \"#utility.yul\":4184:4246   */\n      or\n        /* \"#utility.yul\":4181:4269   */\n      iszero\n      tag_210\n      jumpi\n        /* \"#utility.yul\":4249:4267   */\n      tag_211\n      tag_119\n      jump\t// in\n    tag_211:\n        /* \"#utility.yul\":4181:4269   */\n    tag_210:\n        /* \"#utility.yul\":4289:4299   */\n      dup1\n        /* \"#utility.yul\":4285:4287   */\n      0x40\n        /* \"#utility.yul\":4278:4300   */\n      mstore\n        /* \"#utility.yul\":4068:4306   */\n      pop\n        /* \"#utility.yul\":4025:4306   */\n      pop\n      pop\n      jump\t// out\n        /* \"#utility.yul\":4312:4441   */\n    tag_121:\n        /* \"#utility.yul\":4346:4352   */\n      0x00\n        /* \"#utility.yul\":4373:4393   */\n      tag_213\n      tag_100\n      jump\t// in\n    tag_213:\n        /* \"#utility.yul\":4363:4393   */\n      swap1\n      pop\n        /* \"#utility.yul\":4402:4435   */\n      tag_214\n        /* \"#utility.yul\":4430:4434   */\n      dup3\n        /* \"#utility.yul\":4422:4428   */\n      dup3\n        /* \"#utility.yul\":4402:4435   */\n      tag_120\n      jump\t// in\n    tag_214:\n        /* \"#utility.yul\":4312:4441   */\n      swap2\n      swap1\n      pop\n      jump\t// out\n        /* \"#utility.yul\":4447:4755   */\n    tag_122:\n        /* \"#utility.yul\":4509:4513   */\n      0x00\n        /* \"#utility.yul\":4599:4617   */\n      0xffffffffffffffff\n        /* \"#utility.yul\":4591:4597   */\n      dup3\n        /* \"#utility.yul\":4588:4618   */\n      gt\n        /* \"#utility.yul\":4585:4641   */\n      iszero\n      tag_216\n      jumpi\n        /* \"#utility.yul\":4621:4639   */\n      tag_217\n      tag_119\n      jump\t// in\n    tag_217:\n        /* \"#utility.yul\":4585:4641   */\n    tag_216:\n        /* \"#utility.yul\":4659:4688   */\n      tag_218\n        /* \"#utility.yul\":4681:4687   */\n      dup3\n        /* \"#utility.yul\":4659:4688   */\n      tag_112\n      jump\t// in\n    tag_218:\n        /* \"#utility.yul\":4651:4688   */\n      swap1\n      pop\n        /* \"#utility.yul\":4743:4747   */\n      0x20\n        /* \"#utility.yul\":4737:4741   */\n      dup2\n        /* \"#utility.yul\":4733:4748   */\n      add\n        /* \"#utility.yul\":4725:4748   */\n      swap1\n      pop\n        /* \"#utility.yul\":4447:4755   */\n      swap2\n      swap1\n      pop\n      jump\t// out\n        /* \"#utility.yul\":4761:4909   */\n    tag_123:\n        /* \"#utility.yul\":4859:4865   */\n      dup3\n        /* \"#utility.yul\":4854:4857   */\n      dup2\n        /* \"#utility.yul\":4849:4852   */\n      dup4\n        /* \"#utility.yul\":4836:4866   */\n      calldatacopy\n        /* \"#utility.yul\":4900:4901   */\n      0x00\n        /* \"#utility.yul\":4891:4897   */\n      dup4\n        /* \"#utility.yul\":4886:4889   */\n      dup4\n        /* \"#utility.yul\":4882:4898   */\n      add\n        /* \"#utility.yul\":4875:4902   */\n      mstore\n        /* \"#utility.yul\":4761:4909   */\n      pop\n      pop\n      pop\n      jump\t// out\n        /* \"#utility.yul\":4915:5340   */\n    tag_124:\n        /* \"#utility.yul\":4993:4998   */\n      0x00\n        /* \"#utility.yul\":5018:5084   */\n      tag_221\n        /* \"#utility.yul\":5034:5083   */\n      tag_222\n        /* \"#utility.yul\":5076:5082   */\n      dup5\n        /* \"#utility.yul\":5034:5083   */\n      tag_122\n      jump\t// in\n    tag_222:\n        /* \"#utility.yul\":5018:5084   */\n      tag_121\n      jump\t// in\n    tag_221:\n        /* \"#utility.yul\":5009:5084   */\n      swap1\n      pop\n        /* \"#utility.yul\":5107:5113   */\n      dup3\n        /* \"#utility.yul\":5100:5105   */\n      dup2\n        /* \"#utility.yul\":5093:5114   */\n      mstore\n        /* \"#utility.yul\":5145:5149   */\n      0x20\n        /* \"#utility.yul\":5138:5143   */\n      dup2\n        /* \"#utility.yul\":5134:5150   */\n      add\n        /* \"#utility.yul\":5183:5186   */\n      dup5\n        /* \"#utility.yul\":5174:5180   */\n      dup5\n        /* \"#utility.yul\":5169:5172   */\n      dup5\n        /* \"#utility.yul\":5165:5181   */\n      add\n        /* \"#utility.yul\":5162:5187   */\n      gt\n        /* \"#utility.yul\":5159:5271   */\n      iszero\n      tag_223\n      jumpi\n        /* \"#utility.yul\":5190:5269   */\n      tag_224\n      tag_118\n      jump\t// in\n    tag_224:\n        /* \"#utility.yul\":5159:5271   */\n    tag_223:\n        /* \"#utility.yul\":5280:5334   */\n      tag_225\n        /* \"#utility.yul\":5327:5333   */\n      dup5\n        /* \"#utility.yul\":5322:5325   */\n      dup3\n        /* \"#utility.yul\":5317:5320   */\n      dup6\n        /* \"#utility.yul\":5280:5334   */\n      tag_123\n      jump\t// in\n    tag_225:\n        /* \"#utility.yul\":4999:5340   */\n      pop\n        /* \"#utility.yul\":4915:5340   */\n      swap4\n      swap3\n      pop\n      pop\n      pop\n      jump\t// out\n        /* \"#utility.yul\":5360:5700   */\n    tag_125:\n        /* \"#utility.yul\":5416:5421   */\n      0x00\n        /* \"#utility.yul\":5465:5468   */\n      dup3\n        /* \"#utility.yul\":5458:5462   */\n      0x1f\n        /* \"#utility.yul\":5450:5456   */\n      dup4\n        /* \"#utility.yul\":5446:5463   */\n      add\n        /* \"#utility.yul\":5442:5469   */\n      slt\n        /* \"#utility.yul\":5432:5554   */\n      tag_227\n      jumpi\n        /* \"#utility.yul\":5473:5552   */\n      tag_228\n      tag_117\n      jump\t// in\n    tag_228:\n        /* \"#utility.yul\":5432:5554   */\n    tag_227:\n        /* \"#utility.yul\":5590:5596   */\n      dup2\n        /* \"#utility.yul\":5577:5597   */\n      calldataload\n        /* \"#utility.yul\":5615:5694   */\n      tag_229\n        /* \"#utility.yul\":5690:5693   */\n      dup5\n        /* \"#utility.yul\":5682:5688   */\n      dup3\n        /* \"#utility.yul\":5675:5679   */\n      0x20\n        /* \"#utility.yul\":5667:5673   */\n      dup7\n        /* \"#utility.yul\":5663:5680   */\n      add\n        /* \"#utility.yul\":5615:5694   */\n      tag_124\n      jump\t// in\n    tag_229:\n        /* \"#utility.yul\":5606:5694   */\n      swap2\n      pop\n        /* \"#utility.yul\":5422:5700   */\n      pop\n        /* \"#utility.yul\":5360:5700   */\n      swap3\n      swap2\n      pop\n      pop\n      jump\t// out\n        /* \"#utility.yul\":5706:6505   */\n    tag_24:\n        /* \"#utility.yul\":5793:5799   */\n      0x00\n        /* \"#utility.yul\":5801:5807   */\n      0x00\n        /* \"#utility.yul\":5809:5815   */\n      0x00\n        /* \"#utility.yul\":5858:5860   */\n      0x60\n        /* \"#utility.yul\":5846:5855   */\n      dup5\n        /* \"#utility.yul\":5837:5844   */\n      dup7\n        /* \"#utility.yul\":5833:5856   */\n      sub\n        /* \"#utility.yul\":5829:5861   */\n      slt\n        /* \"#utility.yul\":5826:5945   */\n      iszero\n      tag_231\n      jumpi\n        /* \"#utility.yul\":5864:5943   */\n      tag_232\n      tag_101\n      jump\t// in\n    tag_232:\n        /* \"#utility.yul\":5826:5945   */\n    tag_231:\n        /* \"#utility.yul\":6012:6013   */\n      0x00\n        /* \"#utility.yul\":6001:6010   */\n      dup5\n        /* \"#utility.yul\":5997:6014   */\n      add\n        /* \"#utility.yul\":5984:6015   */\n      calldataload\n        /* \"#utility.yul\":6042:6060   */\n      0xffffffffffffffff\n        /* \"#utility.yul\":6034:6040   */\n      dup2\n        /* \"#utility.yul\":6031:6061   */\n      gt\n        /* \"#utility.yul\":6028:6145   */\n      iszero\n      tag_233\n      jumpi\n        /* \"#utility.yul\":6064:6143   */\n      tag_234\n      tag_102\n      jump\t// in\n    tag_234:\n        /* \"#utility.yul\":6028:6145   */\n    tag_233:\n        /* \"#utility.yul\":6169:6232   */\n      tag_235\n        /* \"#utility.yul\":6224:6231   */\n      dup7\n        /* \"#utility.yul\":6215:6221   */\n      dup3\n        /* \"#utility.yul\":6204:6213   */\n      dup8\n        /* \"#utility.yul\":6200:6222   */\n      add\n        /* \"#utility.yul\":6169:6232   */\n      tag_125\n      jump\t// in\n    tag_235:\n        /* \"#utility.yul\":6159:6232   */\n      swap4\n      pop\n        /* \"#utility.yul\":5955:6242   */\n      pop\n        /* \"#utility.yul\":6281:6283   */\n      0x20\n        /* \"#utility.yul\":6307:6360   */\n      tag_236\n        /* \"#utility.yul\":6352:6359   */\n      dup7\n        /* \"#utility.yul\":6343:6349   */\n      dup3\n        /* \"#utility.yul\":6332:6341   */\n      dup8\n        /* \"#utility.yul\":6328:6350   */\n      add\n        /* \"#utility.yul\":6307:6360   */\n      tag_105\n      jump\t// in\n    tag_236:\n        /* \"#utility.yul\":6297:6360   */\n      swap3\n      pop\n        /* \"#utility.yul\":6252:6370   */\n      pop\n        /* \"#utility.yul\":6409:6411   */\n      0x40\n        /* \"#utility.yul\":6435:6488   */\n      tag_237\n        /* \"#utility.yul\":6480:6487   */\n      dup7\n        /* \"#utility.yul\":6471:6477   */\n      dup3\n        /* \"#utility.yul\":6460:6469   */\n      dup8\n        /* \"#utility.yul\":6456:6478   */\n      add\n        /* \"#utility.yul\":6435:6488   */\n      tag_105\n      jump\t// in\n    tag_237:\n        /* \"#utility.yul\":6425:6488   */\n      swap2\n      pop\n        /* \"#utility.yul\":6380:6498   */\n      pop\n        /* \"#utility.yul\":5706:6505   */\n      swap3\n      pop\n      swap3\n      pop\n      swap3\n      jump\t// out\n        /* \"#utility.yul\":6511:6633   */\n    tag_126:\n        /* \"#utility.yul\":6584:6608   */\n      tag_239\n        /* \"#utility.yul\":6602:6607   */\n      dup2\n        /* \"#utility.yul\":6584:6608   */\n      tag_107\n      jump\t// in\n    tag_239:\n        /* \"#utility.yul\":6577:6582   */\n      dup2\n        /* \"#utility.yul\":6574:6609   */\n      eq\n        /* \"#utility.yul\":6564:6627   */\n      tag_240\n      jumpi\n        /* \"#utility.yul\":6623:6624   */\n      0x00\n        /* \"#utility.yul\":6620:6621   */\n      0x00\n        /* \"#utility.yul\":6613:6625   */\n      revert\n        /* \"#utility.yul\":6564:6627   */\n    tag_240:\n        /* \"#utility.yul\":6511:6633   */\n      pop\n      jump\t// out\n        /* \"#utility.yul\":6639:6778   */\n    tag_127:\n        /* \"#utility.yul\":6685:6690   */\n      0x00\n        /* \"#utility.yul\":6723:6729   */\n      dup2\n        /* \"#utility.yul\":6710:6730   */\n      calldataload\n        /* \"#utility.yul\":6701:6730   */\n      swap1\n      pop\n        /* \"#utility.yul\":6739:6772   */\n      tag_242\n        /* \"#utility.yul\":6766:6771   */\n      dup2\n        /* \"#utility.yul\":6739:6772   */\n      tag_126\n      jump\t// in\n    tag_242:\n        /* \"#utility.yul\":6639:6778   */\n      swap3\n      swap2\n      pop\n      pop\n      jump\t// out\n        /* \"#utility.yul\":6784:7258   */\n    tag_29:\n        /* \"#utility.yul\":6852:6858   */\n      0x00\n        /* \"#utility.yul\":6860:6866   */\n      0x00\n        /* \"#utility.yul\":6909:6911   */\n      0x40\n        /* \"#utility.yul\":6897:6906   */\n      dup4\n        /* \"#utility.yul\":6888:6895   */\n      dup6\n        /* \"#utility.yul\":6884:6907   */\n      sub\n        /* \"#utility.yul\":6880:6912   */\n      slt\n        /* \"#utility.yul\":6877:6996   */\n      iszero\n      tag_244\n      jumpi\n        /* \"#utility.yul\":6915:6994   */\n      tag_245\n      tag_101\n      jump\t// in\n    tag_245:\n        /* \"#utility.yul\":6877:6996   */\n    tag_244:\n        /* \"#utility.yul\":7035:7036   */\n      0x00\n        /* \"#utility.yul\":7060:7113   */\n      tag_246\n        /* \"#utility.yul\":7105:7112   */\n      dup6\n        /* \"#utility.yul\":7096:7102   */\n      dup3\n        /* \"#utility.yul\":7085:7094   */\n      dup7\n        /* \"#utility.yul\":7081:7103   */\n      add\n        /* \"#utility.yul\":7060:7113   */\n      tag_105\n      jump\t// in\n    tag_246:\n        /* \"#utility.yul\":7050:7113   */\n      swap3\n      pop\n        /* \"#utility.yul\":7006:7123   */\n      pop\n        /* \"#utility.yul\":7162:7164   */\n      0x20\n        /* \"#utility.yul\":7188:7241   */\n      tag_247\n        /* \"#utility.yul\":7233:7240   */\n      dup6\n        /* \"#utility.yul\":7224:7230   */\n      dup3\n        /* \"#utility.yul\":7213:7222   */\n      dup7\n        /* \"#utility.yul\":7209:7231   */\n      add\n        /* \"#utility.yul\":7188:7241   */\n      tag_127\n      jump\t// in\n    tag_247:\n        /* \"#utility.yul\":7178:7241   */\n      swap2\n      pop\n        /* \"#utility.yul\":7133:7251   */\n      pop\n        /* \"#utility.yul\":6784:7258   */\n      swap3\n      pop\n      swap3\n      swap1\n      pop\n      jump\t// out\n        /* \"#utility.yul\":7264:7486   */\n    tag_32:\n        /* \"#utility.yul\":7357:7361   */\n      0x00\n        /* \"#utility.yul\":7395:7397   */\n      0x20\n        /* \"#utility.yul\":7384:7393   */\n      dup3\n        /* \"#utility.yul\":7380:7398   */\n      add\n        /* \"#utility.yul\":7372:7398   */\n      swap1\n      pop\n        /* \"#utility.yul\":7408:7479   */\n      tag_249\n        /* \"#utility.yul\":7476:7477   */\n      0x00\n        /* \"#utility.yul\":7465:7474   */\n      dup4\n        /* \"#utility.yul\":7461:7478   */\n      add\n        /* \"#utility.yul\":7452:7458   */\n      dup5\n        /* \"#utility.yul\":7408:7479   */\n      tag_114\n      jump\t// in\n    tag_249:\n        /* \"#utility.yul\":7264:7486   */\n      swap3\n      swap2\n      pop\n      pop\n      jump\t// out\n        /* \"#utility.yul\":7492:7552   */\n    tag_128:\n        /* \"#utility.yul\":7520:7523   */\n      0x00\n        /* \"#utility.yul\":7541:7546   */\n      dup2\n        /* \"#utility.yul\":7534:7546   */\n      swap1\n      pop\n        /* \"#utility.yul\":7492:7552   */\n      swap2\n      swap1\n      pop\n      jump\t// out\n        /* \"#utility.yul\":7558:7700   */\n    tag_129:\n        /* \"#utility.yul\":7608:7617   */\n      0x00\n        /* \"#utility.yul\":7641:7694   */\n      tag_252\n        /* \"#utility.yul\":7659:7693   */\n      tag_253\n        /* \"#utility.yul\":7668:7692   */\n      tag_254\n        /* \"#utility.yul\":7686:7691   */\n      dup5\n        /* \"#utility.yul\":7668:7692   */\n      tag_106\n      jump\t// in\n    tag_254:\n        /* \"#utility.yul\":7659:7693   */\n      tag_128\n      jump\t// in\n    tag_253:\n        /* \"#utility.yul\":7641:7694   */\n      tag_106\n      jump\t// in\n    tag_252:\n        /* \"#utility.yul\":7628:7694   */\n      swap1\n      pop\n        /* \"#utility.yul\":7558:7700   */\n      swap2\n      swap1\n      pop\n      jump\t// out\n        /* \"#utility.yul\":7706:7832   */\n    tag_130:\n        /* \"#utility.yul\":7756:7765   */\n      0x00\n        /* \"#utility.yul\":7789:7826   */\n      tag_256\n        /* \"#utility.yul\":7820:7825   */\n      dup3\n        /* \"#utility.yul\":7789:7826   */\n      tag_129\n      jump\t// in\n    tag_256:\n        /* \"#utility.yul\":7776:7826   */\n      swap1\n      pop\n        /* \"#utility.yul\":7706:7832   */\n      swap2\n      swap1\n      pop\n      jump\t// out\n        /* \"#utility.yul\":7838:7982   */\n    tag_131:\n        /* \"#utility.yul\":7906:7915   */\n      0x00\n        /* \"#utility.yul\":7939:7976   */\n      tag_258\n        /* \"#utility.yul\":7970:7975   */\n      dup3\n        /* \"#utility.yul\":7939:7976   */\n      tag_130\n      jump\t// in\n    tag_258:\n        /* \"#utility.yul\":7926:7976   */\n      swap1\n      pop\n        /* \"#utility.yul\":7838:7982   */\n      swap2\n      swap1\n      pop\n      jump\t// out\n        /* \"#utility.yul\":7988:8155   */\n    tag_132:\n        /* \"#utility.yul\":8093:8148   */\n      tag_260\n        /* \"#utility.yul\":8142:8147   */\n      dup2\n        /* \"#utility.yul\":8093:8148   */\n      tag_131\n      jump\t// in\n    tag_260:\n        /* \"#utility.yul\":8088:8091   */\n      dup3\n        /* \"#utility.yul\":8081:8149   */\n      mstore\n        /* \"#utility.yul\":7988:8155   */\n      pop\n      pop\n      jump\t// out\n        /* \"#utility.yul\":8161:8419   */\n    tag_44:\n        /* \"#utility.yul\":8272:8276   */\n      0x00\n        /* \"#utility.yul\":8310:8312   */\n      0x20\n        /* \"#utility.yul\":8299:8308   */\n      dup3\n        /* \"#utility.yul\":8295:8313   */\n      add\n        /* \"#utility.yul\":8287:8313   */\n      swap1\n      pop\n        /* \"#utility.yul\":8323:8412   */\n      tag_262\n        /* \"#utility.yul\":8409:8410   */\n      0x00\n        /* \"#utility.yul\":8398:8407   */\n      dup4\n        /* \"#utility.yul\":8394:8411   */\n      add\n        /* \"#utility.yul\":8385:8391   */\n      dup5\n        /* \"#utility.yul\":8323:8412   */\n      tag_132\n      jump\t// in\n    tag_262:\n        /* \"#utility.yul\":8161:8419   */\n      swap3\n      swap2\n      pop\n      pop\n      jump\t// out\n        /* \"#utility.yul\":8425:8595   */\n    tag_133:\n        /* \"#utility.yul\":8565:8587   */\n      0x4e6f74207265616368656420646561646c696e65000000000000000000000000\n        /* \"#utility.yul\":8561:8562   */\n      0x00\n        /* \"#utility.yul\":8553:8559   */\n      dup3\n        /* \"#utility.yul\":8549:8563   */\n      add\n        /* \"#utility.yul\":8542:8588   */\n      mstore\n        /* \"#utility.yul\":8425:8595   */\n      pop\n      jump\t// out\n        /* \"#utility.yul\":8601:8967   */\n    tag_134:\n        /* \"#utility.yul\":8743:8746   */\n      0x00\n        /* \"#utility.yul\":8764:8831   */\n      tag_265\n        /* \"#utility.yul\":8828:8830   */\n      0x14\n        /* \"#utility.yul\":8823:8826   */\n      dup4\n        /* \"#utility.yul\":8764:8831   */\n      tag_110\n      jump\t// in\n    tag_265:\n        /* \"#utility.yul\":8757:8831   */\n      swap2\n      pop\n        /* \"#utility.yul\":8840:8933   */\n      tag_266\n        /* \"#utility.yul\":8929:8932   */\n      dup3\n        /* \"#utility.yul\":8840:8933   */\n      tag_133\n      jump\t// in\n    tag_266:\n        /* \"#utility.yul\":8958:8960   */\n      0x20\n        /* \"#utility.yul\":8953:8956   */\n      dup3\n        /* \"#utility.yul\":8949:8961   */\n      add\n        /* \"#utility.yul\":8942:8961   */\n      swap1\n      pop\n        /* \"#utility.yul\":8601:8967   */\n      swap2\n      swap1\n      pop\n      jump\t// out\n        /* \"#utility.yul\":8973:9392   */\n    tag_48:\n        /* \"#utility.yul\":9139:9143   */\n      0x00\n        /* \"#utility.yul\":9177:9179   */\n      0x20\n        /* \"#utility.yul\":9166:9175   */\n      dup3\n        /* \"#utility.yul\":9162:9180   */\n      add\n        /* \"#utility.yul\":9154:9180   */\n      swap1\n      pop\n        /* \"#utility.yul\":9226:9235   */\n      dup2\n        /* \"#utility.yul\":9220:9224   */\n      dup2\n        /* \"#utility.yul\":9216:9236   */\n      sub\n        /* \"#utility.yul\":9212:9213   */\n      0x00\n        /* \"#utility.yul\":9201:9210   */\n      dup4\n        /* \"#utility.yul\":9197:9214   */\n      add\n        /* \"#utility.yul\":9190:9237   */\n      mstore\n        /* \"#utility.yul\":9254:9385   */\n      tag_268\n        /* \"#utility.yul\":9380:9384   */\n      dup2\n        /* \"#utility.yul\":9254:9385   */\n      tag_134\n      jump\t// in\n    tag_268:\n        /* \"#utility.yul\":9246:9385   */\n      swap1\n      pop\n        /* \"#utility.yul\":8973:9392   */\n      swap2\n      swap1\n      pop\n      jump\t// out\n        /* \"#utility.yul\":9398:9565   */\n    tag_135:\n        /* \"#utility.yul\":9538:9557   */\n      0x416c72656164792066696e616c697a6564000000000000000000000000000000\n        /* \"#utility.yul\":9534:9535   */\n      0x00\n        /* \"#utility.yul\":9526:9532   */\n      dup3\n        /* \"#utility.yul\":9522:9536   */\n      add\n        /* \"#utility.yul\":9515:9558   */\n      mstore\n        /* \"#utility.yul\":9398:9565   */\n      pop\n      jump\t// out\n        /* \"#utility.yul\":9571:9937   */\n    tag_136:\n        /* \"#utility.yul\":9713:9716   */\n      0x00\n        /* \"#utility.yul\":9734:9801   */\n      tag_271\n        /* \"#utility.yul\":9798:9800   */\n      0x11\n        /* \"#utility.yul\":9793:9796   */\n      dup4\n        /* \"#utility.yul\":9734:9801   */\n      tag_110\n      jump\t// in\n    tag_271:\n        /* \"#utility.yul\":9727:9801   */\n      swap2\n      pop\n        /* \"#utility.yul\":9810:9903   */\n      tag_272\n        /* \"#utility.yul\":9899:9902   */\n      dup3\n        /* \"#utility.yul\":9810:9903   */\n      tag_135\n      jump\t// in\n    tag_272:\n        /* \"#utility.yul\":9928:9930   */\n      0x20\n        /* \"#utility.yul\":9923:9926   */\n      dup3\n        /* \"#utility.yul\":9919:9931   */\n      add\n        /* \"#utility.yul\":9912:9931   */\n      swap1\n      pop\n        /* \"#utility.yul\":9571:9937   */\n      swap2\n      swap1\n      pop\n      jump\t// out\n        /* \"#utility.yul\":9943:10362   */\n    tag_51:\n        /* \"#utility.yul\":10109:10113   */\n      0x00\n        /* \"#utility.yul\":10147:10149   */\n      0x20\n        /* \"#utility.yul\":10136:10145   */\n      dup3\n        /* \"#utility.yul\":10132:10150   */\n      add\n        /* \"#utility.yul\":10124:10150   */\n      swap1\n      pop\n        /* \"#utility.yul\":10196:10205   */\n      dup2\n        /* \"#utility.yul\":10190:10194   */\n      dup2\n        /* \"#utility.yul\":10186:10206   */\n      sub\n        /* \"#utility.yul\":10182:10183   */\n      0x00\n        /* \"#utility.yul\":10171:10180   */\n      dup4\n        /* \"#utility.yul\":10167:10184   */\n      add\n        /* \"#utility.yul\":10160:10207   */\n      mstore\n        /* \"#utility.yul\":10224:10355   */\n      tag_274\n        /* \"#utility.yul\":10350:10354   */\n      dup2\n        /* \"#utility.yul\":10224:10355   */\n      tag_136\n      jump\t// in\n    tag_274:\n        /* \"#utility.yul\":10216:10355   */\n      swap1\n      pop\n        /* \"#utility.yul\":9943:10362   */\n      swap2\n      swap1\n      pop\n      jump\t// out\n        /* \"#utility.yul\":10368:10515   */\n    tag_137:\n        /* \"#utility.yul\":10469:10480   */\n      0x00\n        /* \"#utility.yul\":10506:10509   */\n      dup2\n        /* \"#utility.yul\":10491:10509   */\n      swap1\n      pop\n        /* \"#utility.yul\":10368:10515   */\n      swap3\n      swap2\n      pop\n      pop\n      jump\t// out\n        /* \"#utility.yul\":10521:10635   */\n    tag_138:\n      pop\n      jump\t// out\n        /* \"#utility.yul\":10641:11039   */\n    tag_139:\n        /* \"#utility.yul\":10800:10803   */\n      0x00\n        /* \"#utility.yul\":10821:10904   */\n      tag_278\n        /* \"#utility.yul\":10902:10903   */\n      0x00\n        /* \"#utility.yul\":10897:10900   */\n      dup4\n        /* \"#utility.yul\":10821:10904   */\n      tag_137\n      jump\t// in\n    tag_278:\n        /* \"#utility.yul\":10814:10904   */\n      swap2\n      pop\n        /* \"#utility.yul\":10913:11006   */\n      tag_279\n        /* \"#utility.yul\":11002:11005   */\n      dup3\n        /* \"#utility.yul\":10913:11006   */\n      tag_138\n      jump\t// in\n    tag_279:\n        /* \"#utility.yul\":11031:11032   */\n      0x00\n        /* \"#utility.yul\":11026:11029   */\n      dup3\n        /* \"#utility.yul\":11022:11033   */\n      add\n        /* \"#utility.yul\":11015:11033   */\n      swap1\n      pop\n        /* \"#utility.yul\":10641:11039   */\n      swap2\n      swap1\n      pop\n      jump\t// out\n        /* \"#utility.yul\":11045:11424   */\n    tag_54:\n        /* \"#utility.yul\":11229:11232   */\n      0x00\n        /* \"#utility.yul\":11251:11398   */\n      tag_281\n        /* \"#utility.yul\":11394:11397   */\n      dup3\n        /* \"#utility.yul\":11251:11398   */\n      tag_139\n      jump\t// in\n    tag_281:\n        /* \"#utility.yul\":11244:11398   */\n      swap2\n      pop\n        /* \"#utility.yul\":11415:11418   */\n      dup2\n        /* \"#utility.yul\":11408:11418   */\n      swap1\n      pop\n        /* \"#utility.yul\":11045:11424   */\n      swap2\n      swap1\n      pop\n      jump\t// out\n        /* \"#utility.yul\":11430:11595   */\n    tag_140:\n        /* \"#utility.yul\":11570:11587   */\n      0x5472616e73666572206661696c65640000000000000000000000000000000000\n        /* \"#utility.yul\":11566:11567   */\n      0x00\n        /* \"#utility.yul\":11558:11564   */\n      dup3\n        /* \"#utility.yul\":11554:11568   */\n      add\n        /* \"#utility.yul\":11547:11588   */\n      mstore\n        /* \"#utility.yul\":11430:11595   */\n      pop\n      jump\t// out\n        /* \"#utility.yul\":11601:11967   */\n    tag_141:\n        /* \"#utility.yul\":11743:11746   */\n      0x00\n        /* \"#utility.yul\":11764:11831   */\n      tag_284\n        /* \"#utility.yul\":11828:11830   */\n      0x0f\n        /* \"#utility.yul\":11823:11826   */\n      dup4\n        /* \"#utility.yul\":11764:11831   */\n      tag_110\n      jump\t// in\n    tag_284:\n        /* \"#utility.yul\":11757:11831   */\n      swap2\n      pop\n        /* \"#utility.yul\":11840:11933   */\n      tag_285\n        /* \"#utility.yul\":11929:11932   */\n      dup3\n        /* \"#utility.yul\":11840:11933   */\n      tag_140\n      jump\t// in\n    tag_285:\n        /* \"#utility.yul\":11958:11960   */\n      0x20\n        /* \"#utility.yul\":11953:11956   */\n      dup3\n        /* \"#utility.yul\":11949:11961   */\n      add\n        /* \"#utility.yul\":11942:11961   */\n      swap1\n      pop\n        /* \"#utility.yul\":11601:11967   */\n      swap2\n      swap1\n      pop\n      jump\t// out\n        /* \"#utility.yul\":11973:12392   */\n    tag_60:\n        /* \"#utility.yul\":12139:12143   */\n      0x00\n        /* \"#utility.yul\":12177:12179   */\n      0x20\n        /* \"#utility.yul\":12166:12175   */\n      dup3\n        /* \"#utility.yul\":12162:12180   */\n      add\n        /* \"#utility.yul\":12154:12180   */\n      swap1\n      pop\n        /* \"#utility.yul\":12226:12235   */\n      dup2\n        /* \"#utility.yul\":12220:12224   */\n      dup2\n        /* \"#utility.yul\":12216:12236   */\n      sub\n        /* \"#utility.yul\":12212:12213   */\n      0x00\n        /* \"#utility.yul\":12201:12210   */\n      dup4\n        /* \"#utility.yul\":12197:12214   */\n      add\n        /* \"#utility.yul\":12190:12237   */\n      mstore\n        /* \"#utility.yul\":12254:12385   */\n      tag_287\n        /* \"#utility.yul\":12380:12384   */\n      dup2\n        /* \"#utility.yul\":12254:12385   */\n      tag_141\n      jump\t// in\n    tag_287:\n        /* \"#utility.yul\":12246:12385   */\n      swap1\n      pop\n        /* \"#utility.yul\":11973:12392   */\n      swap2\n      swap1\n      pop\n      jump\t// out\n        /* \"#utility.yul\":12398:12718   */\n    tag_62:\n        /* \"#utility.yul\":12513:12517   */\n      0x00\n        /* \"#utility.yul\":12551:12553   */\n      0x40\n        /* \"#utility.yul\":12540:12549   */\n      dup3\n        /* \"#utility.yul\":12536:12554   */\n      add\n        /* \"#utility.yul\":12528:12554   */\n      swap1\n      pop\n        /* \"#utility.yul\":12564:12635   */\n      tag_289\n        /* \"#utility.yul\":12632:12633   */\n      0x00\n        /* \"#utility.yul\":12621:12630   */\n      dup4\n        /* \"#utility.yul\":12617:12634   */\n      add\n        /* \"#utility.yul\":12608:12614   */\n      dup6\n        /* \"#utility.yul\":12564:12635   */\n      tag_114\n      jump\t// in\n    tag_289:\n        /* \"#utility.yul\":12645:12711   */\n      tag_290\n        /* \"#utility.yul\":12707:12709   */\n      0x20\n        /* \"#utility.yul\":12696:12705   */\n      dup4\n        /* \"#utility.yul\":12692:12710   */\n      add\n        /* \"#utility.yul\":12683:12689   */\n      dup5\n        /* \"#utility.yul\":12645:12711   */\n      tag_116\n      jump\t// in\n    tag_290:\n        /* \"#utility.yul\":12398:12718   */\n      swap4\n      swap3\n      pop\n      pop\n      pop\n      jump\t// out\n        /* \"#utility.yul\":12724:12904   */\n    tag_142:\n        /* \"#utility.yul\":12772:12849   */\n      0x4e487b7100000000000000000000000000000000000000000000000000000000\n        /* \"#utility.yul\":12769:12770   */\n      0x00\n        /* \"#utility.yul\":12762:12850   */\n      mstore\n        /* \"#utility.yul\":12869:12873   */\n      0x22\n        /* \"#utility.yul\":12866:12867   */\n      0x04\n        /* \"#utility.yul\":12859:12874   */\n      mstore\n        /* \"#utility.yul\":12893:12897   */\n      0x24\n        /* \"#utility.yul\":12890:12891   */\n      0x00\n        /* \"#utility.yul\":12883:12898   */\n      revert\n        /* \"#utility.yul\":12910:13230   */\n    tag_64:\n        /* \"#utility.yul\":12954:12960   */\n      0x00\n        /* \"#utility.yul\":12991:12992   */\n      0x02\n        /* \"#utility.yul\":12985:12989   */\n      dup3\n        /* \"#utility.yul\":12981:12993   */\n      div\n        /* \"#utility.yul\":12971:12993   */\n      swap1\n      pop\n        /* \"#utility.yul\":13038:13039   */\n      0x01\n        /* \"#utility.yul\":13032:13036   */\n      dup3\n        /* \"#utility.yul\":13028:13040   */\n      and\n        /* \"#utility.yul\":13059:13077   */\n      dup1\n        /* \"#utility.yul\":13049:13130   */\n      tag_293\n      jumpi\n        /* \"#utility.yul\":13115:13119   */\n      0x7f\n        /* \"#utility.yul\":13107:13113   */\n      dup3\n        /* \"#utility.yul\":13103:13120   */\n      and\n        /* \"#utility.yul\":13093:13120   */\n      swap2\n      pop\n        /* \"#utility.yul\":13049:13130   */\n    tag_293:\n        /* \"#utility.yul\":13177:13179   */\n      0x20\n        /* \"#utility.yul\":13169:13175   */\n      dup3\n        /* \"#utility.yul\":13166:13180   */\n      lt\n        /* \"#utility.yul\":13146:13164   */\n      dup2\n        /* \"#utility.yul\":13143:13181   */\n      sub\n        /* \"#utility.yul\":13140:13224   */\n      tag_294\n      jumpi\n        /* \"#utility.yul\":13196:13214   */\n      tag_295\n      tag_142\n      jump\t// in\n    tag_295:\n        /* \"#utility.yul\":13140:13224   */\n    tag_294:\n        /* \"#utility.yul\":12961:13230   */\n      pop\n        /* \"#utility.yul\":12910:13230   */\n      swap2\n      swap1\n      pop\n      jump\t// out\n        /* \"#utility.yul\":13236:13402   */\n    tag_143:\n        /* \"#utility.yul\":13376:13394   */\n      0x476f616c206d757374206265203e203000000000000000000000000000000000\n        /* \"#utility.yul\":13372:13373   */\n      0x00\n        /* \"#utility.yul\":13364:13370   */\n      dup3\n        /* \"#utility.yul\":13360:13374   */\n      add\n        /* \"#utility.yul\":13353:13395   */\n      mstore\n        /* \"#utility.yul\":13236:13402   */\n      pop\n      jump\t// out\n        /* \"#utility.yul\":13408:13774   */\n    tag_144:\n        /* \"#utility.yul\":13550:13553   */\n      0x00\n        /* \"#utility.yul\":13571:13638   */\n      tag_298\n        /* \"#utility.yul\":13635:13637   */\n      0x10\n        /* \"#utility.yul\":13630:13633   */\n      dup4\n        /* \"#utility.yul\":13571:13638   */\n      tag_110\n      jump\t// in\n    tag_298:\n        /* \"#utility.yul\":13564:13638   */\n      swap2\n      pop\n        /* \"#utility.yul\":13647:13740   */\n      tag_299\n        /* \"#utility.yul\":13736:13739   */\n      dup3\n        /* \"#utility.yul\":13647:13740   */\n      tag_143\n      jump\t// in\n    tag_299:\n        /* \"#utility.yul\":13765:13767   */\n      0x20\n        /* \"#utility.yul\":13760:13763   */\n      dup3\n        /* \"#utility.yul\":13756:13768   */\n      add\n        /* \"#utility.yul\":13749:13768   */\n      swap1\n      pop\n        /* \"#utility.yul\":13408:13774   */\n      swap2\n      swap1\n      pop\n      jump\t// out\n        /* \"#utility.yul\":13780:14199   */\n    tag_72:\n        /* \"#utility.yul\":13946:13950   */\n      0x00\n        /* \"#utility.yul\":13984:13986   */\n      0x20\n        /* \"#utility.yul\":13973:13982   */\n      dup3\n        /* \"#utility.yul\":13969:13987   */\n      add\n        /* \"#utility.yul\":13961:13987   */\n      swap1\n      pop\n        /* \"#utility.yul\":14033:14042   */\n      dup2\n        /* \"#utility.yul\":14027:14031   */\n      dup2\n        /* \"#utility.yul\":14023:14043   */\n      sub\n        /* \"#utility.yul\":14019:14020   */\n      0x00\n        /* \"#utility.yul\":14008:14017   */\n      dup4\n        /* \"#utility.yul\":14004:14021   */\n      add\n        /* \"#utility.yul\":13997:14044   */\n      mstore\n        /* \"#utility.yul\":14061:14192   */\n      tag_301\n        /* \"#utility.yul\":14187:14191   */\n      dup2\n        /* \"#utility.yul\":14061:14192   */\n      tag_144\n      jump\t// in\n    tag_301:\n        /* \"#utility.yul\":14053:14192   */\n      swap1\n      pop\n        /* \"#utility.yul\":13780:14199   */\n      swap2\n      swap1\n      pop\n      jump\t// out\n        /* \"#utility.yul\":14205:14385   */\n    tag_145:\n        /* \"#utility.yul\":14253:14330   */\n      0x4e487b7100000000000000000000000000000000000000000000000000000000\n        /* \"#utility.yul\":14250:14251   */\n      0x00\n        /* \"#utility.yul\":14243:14331   */\n      mstore\n        /* \"#utility.yul\":14350:14354   */\n      0x11\n        /* \"#utility.yul\":14347:14348   */\n      0x04\n        /* \"#utility.yul\":14340:14355   */\n      mstore\n        /* \"#utility.yul\":14374:14378   */\n      0x24\n        /* \"#utility.yul\":14371:14372   */\n      0x00\n        /* \"#utility.yul\":14364:14379   */\n      revert\n        /* \"#utility.yul\":14391:14624   */\n    tag_74:\n        /* \"#utility.yul\":14430:14433   */\n      0x00\n        /* \"#utility.yul\":14453:14477   */\n      tag_304\n        /* \"#utility.yul\":14471:14476   */\n      dup3\n        /* \"#utility.yul\":14453:14477   */\n      tag_103\n      jump\t// in\n    tag_304:\n        /* \"#utility.yul\":14444:14477   */\n      swap2\n      pop\n        /* \"#utility.yul\":14499:14565   */\n      0xffffffffffffffffffffffffffffffffffffffffffffffffffffffffffffffff\n        /* \"#utility.yul\":14492:14497   */\n      dup3\n        /* \"#utility.yul\":14489:14566   */\n      sub\n        /* \"#utility.yul\":14486:14589   */\n      tag_305\n      jumpi\n        /* \"#utility.yul\":14569:14587   */\n      tag_306\n      tag_145\n      jump\t// in\n    tag_306:\n        /* \"#utility.yul\":14486:14589   */\n    tag_305:\n        /* \"#utility.yul\":14616:14617   */\n      0x01\n        /* \"#utility.yul\":14609:14614   */\n      dup3\n        /* \"#utility.yul\":14605:14618   */\n      add\n        /* \"#utility.yul\":14598:14618   */\n      swap1\n      pop\n        /* \"#utility.yul\":14391:14624   */\n      swap2\n      swap1\n      pop\n      jump\t// out\n        /* \"#utility.yul\":14630:15040   */\n    tag_76:\n        /* \"#utility.yul\":14670:14677   */\n      0x00\n        /* \"#utility.yul\":14693:14713   */\n      tag_308\n        /* \"#utility.yul\":14711:14712   */\n      dup3\n        /* \"#utility.yul\":14693:14713   */\n      tag_103\n      jump\t// in\n    tag_308:\n        /* \"#utility.yul\":14688:14713   */\n      swap2\n      pop\n        /* \"#utility.yul\":14727:14747   */\n      tag_309\n        /* \"#utility.yul\":14745:14746   */\n      dup4\n        /* \"#utility.yul\":14727:14747   */\n      tag_103\n      jump\t// in\n    tag_309:\n        /* \"#utility.yul\":14722:14747   */\n      swap3\n      pop\n        /* \"#utility.yul\":14782:14783   */\n      dup3\n        /* \"#utility.yul\":14779:14780   */\n      dup3\n        /* \"#utility.yul\":14775:14784   */\n      mul\n        /* \"#utility.yul\":14804:14834   */\n      tag_310\n        /* \"#utility.yul\":14822:14833   */\n      dup2\n        /* \"#utility.yul\":14804:14834   */\n      tag_103\n      jump\t// in\n    tag_310:\n        /* \"#utility.yul\":14793:14834   */\n      swap2\n      pop\n        /* \"#utility.yul\":14983:14984   */\n      dup3\n        /* \"#utility.yul\":14974:14981   */\n      dup3\n        /* \"#utility.yul\":14970:14985   */\n      div\n        /* \"#utility.yul\":14967:14968   */\n      dup5\n        /* \"#utility.yul\":14964:14986   */\n      eq\n        /* \"#utility.yul\":14944:14945   */\n      dup4\n        /* \"#utility.yul\":14937:14946   */\n      iszero\n        /* \"#utility.yul\":14917:15000   */\n      or\n        /* \"#utility.yul\":14894:15033   */\n      tag_311\n      jumpi\n        /* \"#utility.yul\":15013:15031   */\n      tag_312\n      tag_145\n      jump\t// in\n    tag_312:\n        /* \"#utility.yul\":14894:15033   */\n    tag_311:\n        /* \"#utility.yul\":14678:15040   */\n      pop\n        /* \"#utility.yul\":14630:15040   */\n      swap3\n      swap2\n      pop\n      pop\n      jump\t// out\n        /* \"#utility.yul\":15046:15237   */\n    tag_78:\n        /* \"#utility.yul\":15086:15089   */\n      0x00\n        /* \"#utility.yul\":15105:15125   */\n      tag_314\n        /* \"#utility.yul\":15123:15124   */\n      dup3\n        /* \"#utility.yul\":15105:15125   */\n      tag_103\n      jump\t// in\n    tag_314:\n        /* \"#utility.yul\":15100:15125   */\n      swap2\n      pop\n        /* \"#utility.yul\":15139:15159   */\n      tag_315\n        /* \"#utility.yul\":15157:15158   */\n      dup4\n        /* \"#utility.yul\":15139:15159   */\n      tag_103\n      jump\t// in\n    tag_315:\n        /* \"#utility.yul\":15134:15159   */\n      swap3\n      pop\n        /* \"#utility.yul\":15182:15183   */\n      dup3\n        /* \"#utility.yul\":15179:15180   */\n      dup3\n        /* \"#utility.yul\":15175:15184   */\n      add\n        /* \"#utility.yul\":15168:15184   */\n      swap1\n      pop\n        /* \"#utility.yul\":15203:15206   */\n      dup1\n        /* \"#utility.yul\":15200:15201   */\n      dup3\n        /* \"#utility.yul\":15197:15207   */\n      gt\n        /* \"#utility.yul\":15194:15230   */\n      iszero\n      tag_316\n      jumpi\n        /* \"#utility.yul\":15210:15228   */\n      tag_317\n      tag_145\n      jump\t// in\n    tag_317:\n        /* \"#utility.yul\":15194:15230   */\n    tag_316:\n        /* \"#utility.yul\":15046:15237   */\n      swap3\n      swap2\n      pop\n      pop\n      jump\t// out\n        /* \"#utility.yul\":15243:15384   */\n    tag_146:\n        /* \"#utility.yul\":15292:15296   */\n      0x00\n        /* \"#utility.yul\":15315:15318   */\n      dup2\n        /* \"#utility.yul\":15307:15318   */\n      swap1\n      pop\n        /* \"#utility.yul\":15338:15341   */\n      dup2\n        /* \"#utility.yul\":15335:15336   */\n      0x00\n        /* \"#utility.yul\":15328:15342   */\n      mstore\n        /* \"#utility.yul\":15372:15376   */\n      0x20\n        /* \"#utility.yul\":15369:15370   */\n      0x00\n        /* \"#utility.yul\":15359:15377   */\n      keccak256\n        /* \"#utility.yul\":15351:15377   */\n      swap1\n      pop\n        /* \"#utility.yul\":15243:15384   */\n      swap2\n      swap1\n      pop\n      jump\t// out\n        /* \"#utility.yul\":15390:15483   */\n    tag_147:\n        /* \"#utility.yul\":15427:15433   */\n      0x00\n        /* \"#utility.yul\":15474:15476   */\n      0x20\n        /* \"#utility.yul\":15469:15471   */\n      0x1f\n        /* \"#utility.yul\":15462:15467   */\n      dup4\n        /* \"#utility.yul\":15458:15472   */\n      add\n        /* \"#utility.yul\":15454:15477   */\n      div\n        /* \"#utility.yul\":15444:15477   */\n      swap1\n      pop\n        /* \"#utility.yul\":15390:15483   */\n      swap2\n      swap1\n      pop\n      jump\t// out\n        /* \"#utility.yul\":15489:15596   */\n    tag_148:\n        /* \"#utility.yul\":15533:15541   */\n      0x00\n        /* \"#utility.yul\":15583:15588   */\n      dup3\n        /* \"#utility.yul\":15577:15581   */\n      dup3\n        /* \"#utility.yul\":15573:15589   */\n      shl\n        /* \"#utility.yul\":15552:15589   */\n      swap1\n      pop\n        /* \"#utility.yul\":15489:15596   */\n      swap3\n      swap2\n      pop\n      pop\n      jump\t// out\n        /* \"#utility.yul\":15602:15995   */\n    tag_149:\n        /* \"#utility.yul\":15671:15677   */\n      0x00\n        /* \"#utility.yul\":15721:15722   */\n      0x08\n        /* \"#utility.yul\":15709:15719   */\n      dup4\n        /* \"#utility.yul\":15705:15723   */\n      mul\n        /* \"#utility.yul\":15744:15841   */\n      tag_322\n        /* \"#utility.yul\":15774:15840   */\n      0xffffffffffffffffffffffffffffffffffffffffffffffffffffffffffffffff\n        /* \"#utility.yul\":15763:15772   */\n      dup3\n        /* \"#utility.yul\":15744:15841   */\n      tag_148\n      jump\t// in\n    tag_322:\n        /* \"#utility.yul\":15862:15901   */\n      tag_323\n        /* \"#utility.yul\":15892:15900   */\n      dup7\n        /* \"#utility.yul\":15881:15890   */\n      dup4\n        /* \"#utility.yul\":15862:15901   */\n      tag_148\n      jump\t// in\n    tag_323:\n        /* \"#utility.yul\":15850:15901   */\n      swap6\n      pop\n        /* \"#utility.yul\":15934:15938   */\n      dup1\n        /* \"#utility.yul\":15930:15939   */\n      not\n        /* \"#utility.yul\":15923:15928   */\n      dup5\n        /* \"#utility.yul\":15919:15940   */\n      and\n        /* \"#utility.yul\":15910:15940   */\n      swap4\n      pop\n        /* \"#utility.yul\":15983:15987   */\n      dup1\n        /* \"#utility.yul\":15973:15981   */\n      dup7\n        /* \"#utility.yul\":15969:15988   */\n      and\n        /* \"#utility.yul\":15962:15967   */\n      dup5\n        /* \"#utility.yul\":15959:15989   */\n      or\n        /* \"#utility.yul\":15949:15989   */\n      swap3\n      pop\n        /* \"#utility.yul\":15678:15995   */\n      pop\n      pop\n        /* \"#utility.yul\":15602:15995   */\n      swap4\n      swap3\n      pop\n      pop\n      pop\n      jump\t// out\n        /* \"#utility.yul\":16001:16143   */\n    tag_150:\n        /* \"#utility.yul\":16051:16060   */\n      0x00\n        /* \"#utility.yul\":16084:16137   */\n      tag_325\n        /* \"#utility.yul\":16102:16136   */\n      tag_326\n        /* \"#utility.yul\":16111:16135   */\n      tag_327\n        /* \"#utility.yul\":16129:16134   */\n      dup5\n        /* \"#utility.yul\":16111:16135   */\n      tag_103\n      jump\t// in\n    tag_327:\n        /* \"#utility.yul\":16102:16136   */\n      tag_128\n      jump\t// in\n    tag_326:\n        /* \"#utility.yul\":16084:16137   */\n      tag_103\n      jump\t// in\n    tag_325:\n        /* \"#utility.yul\":16071:16137   */\n      swap1\n      pop\n        /* \"#utility.yul\":16001:16143   */\n      swap2\n      swap1\n      pop\n      jump\t// out\n        /* \"#utility.yul\":16149:16224   */\n    tag_151:\n        /* \"#utility.yul\":16192:16195   */\n      0x00\n        /* \"#utility.yul\":16213:16218   */\n      dup2\n        /* \"#utility.yul\":16206:16218   */\n      swap1\n      pop\n        /* \"#utility.yul\":16149:16224   */\n      swap2\n      swap1\n      pop\n      jump\t// out\n        /* \"#utility.yul\":16230:16499   */\n    tag_152:\n        /* \"#utility.yul\":16340:16379   */\n      tag_330\n        /* \"#utility.yul\":16371:16378   */\n      dup4\n        /* \"#utility.yul\":16340:16379   */\n      tag_150\n      jump\t// in\n    tag_330:\n        /* \"#utility.yul\":16401:16492   */\n      tag_331\n        /* \"#utility.yul\":16450:16491   */\n      tag_332\n        /* \"#utility.yul\":16474:16490   */\n      dup3\n        /* \"#utility.yul\":16450:16491   */\n      tag_151\n      jump\t// in\n    tag_332:\n        /* \"#utility.yul\":16442:16448   */\n      dup5\n        /* \"#utility.yul\":16435:16439   */\n      dup5\n        /* \"#utility.yul\":16429:16440   */\n      sload\n        /* \"#utility.yul\":16401:16492   */\n      tag_149\n      jump\t// in\n    tag_331:\n        /* \"#utility.yul\":16395:16399   */\n      dup3\n        /* \"#utility.yul\":16388:16493   */\n      sstore\n        /* \"#utility.yul\":16306:16499   */\n      pop\n        /* \"#utility.yul\":16230:16499   */\n      pop\n      pop\n      pop\n      jump\t// out\n        /* \"#utility.yul\":16505:16578   */\n    tag_153:\n        /* \"#utility.yul\":16550:16553   */\n      0x00\n        /* \"#utility.yul\":16571:16572   */\n      0x00\n        /* \"#utility.yul\":16564:16572   */\n      swap1\n      pop\n        /* \"#utility.yul\":16505:16578   */\n      swap1\n      jump\t// out\n        /* \"#utility.yul\":16584:16773   */\n    tag_154:\n        /* \"#utility.yul\":16661:16693   */\n      tag_335\n      tag_153\n      jump\t// in\n    tag_335:\n        /* \"#utility.yul\":16702:16767   */\n      tag_336\n        /* \"#utility.yul\":16760:16766   */\n      dup2\n        /* \"#utility.yul\":16752:16758   */\n      dup5\n        /* \"#utility.yul\":16746:16750   */\n      dup5\n        /* \"#utility.yul\":16702:16767   */\n      tag_152\n      jump\t// in\n    tag_336:\n        /* \"#utility.yul\":16637:16773   */\n      pop\n        /* \"#utility.yul\":16584:16773   */\n      pop\n      pop\n      jump\t// out\n        /* \"#utility.yul\":16779:16965   */\n    tag_155:\n        /* \"#utility.yul\":16839:16959   */\n    tag_338:\n        /* \"#utility.yul\":16856:16859   */\n      dup2\n        /* \"#utility.yul\":16849:16854   */\n      dup2\n        /* \"#utility.yul\":16846:16860   */\n      lt\n        /* \"#utility.yul\":16839:16959   */\n      iszero\n      tag_340\n      jumpi\n        /* \"#utility.yul\":16910:16949   */\n      tag_341\n        /* \"#utility.yul\":16947:16948   */\n      0x00\n        /* \"#utility.yul\":16940:16945   */\n      dup3\n        /* \"#utility.yul\":16910:16949   */\n      tag_154\n      jump\t// in\n    tag_341:\n        /* \"#utility.yul\":16883:16884   */\n      0x01\n        /* \"#utility.yul\":16876:16881   */\n      dup2\n        /* \"#utility.yul\":16872:16885   */\n      add\n        /* \"#utility.yul\":16863:16885   */\n      swap1\n      pop\n        /* \"#utility.yul\":16839:16959   */\n      jump(tag_338)\n    tag_340:\n        /* \"#utility.yul\":16779:16965   */\n      pop\n      pop\n      jump\t// out\n        /* \"#utility.yul\":16971:17514   */\n    tag_156:\n        /* \"#utility.yul\":17072:17074   */\n      0x1f\n        /* \"#utility.yul\":17067:17070   */\n      dup3\n        /* \"#utility.yul\":17064:17075   */\n      gt\n        /* \"#utility.yul\":17061:17507   */\n      iszero\n      tag_343\n      jumpi\n        /* \"#utility.yul\":17106:17144   */\n      tag_344\n        /* \"#utility.yul\":17138:17143   */\n      dup2\n        /* \"#utility.yul\":17106:17144   */\n      tag_146\n      jump\t// in\n    tag_344:\n        /* \"#utility.yul\":17190:17219   */\n      tag_345\n        /* \"#utility.yul\":17208:17218   */\n      dup5\n        /* \"#utility.yul\":17190:17219   */\n      tag_147\n      jump\t// in\n    tag_345:\n        /* \"#utility.yul\":17180:17188   */\n      dup2\n        /* \"#utility.yul\":17176:17220   */\n      add\n        /* \"#utility.yul\":17373:17375   */\n      0x20\n        /* \"#utility.yul\":17361:17371   */\n      dup6\n        /* \"#utility.yul\":17358:17376   */\n      lt\n        /* \"#utility.yul\":17355:17404   */\n      iszero\n      tag_346\n      jumpi\n        /* \"#utility.yul\":17394:17402   */\n      dup2\n        /* \"#utility.yul\":17379:17402   */\n      swap1\n      pop\n        /* \"#utility.yul\":17355:17404   */\n    tag_346:\n        /* \"#utility.yul\":17417:17497   */\n      tag_347\n        /* \"#utility.yul\":17473:17495   */\n      tag_348\n        /* \"#utility.yul\":17491:17494   */\n      dup6\n        /* \"#utility.yul\":17473:17495   */\n      tag_147\n      jump\t// in\n    tag_348:\n        /* \"#utility.yul\":17463:17471   */\n      dup4\n        /* \"#utility.yul\":17459:17496   */\n      add\n        /* \"#utility.yul\":17446:17457   */\n      dup3\n        /* \"#utility.yul\":17417:17497   */\n      tag_155\n      jump\t// in\n    tag_347:\n        /* \"#utility.yul\":17076:17507   */\n      pop\n      pop\n        /* \"#utility.yul\":17061:17507   */\n    tag_343:\n        /* \"#utility.yul\":16971:17514   */\n      pop\n      pop\n      pop\n      jump\t// out\n        /* \"#utility.yul\":17520:17637   */\n    tag_157:\n        /* \"#utility.yul\":17574:17582   */\n      0x00\n        /* \"#utility.yul\":17624:17629   */\n      dup3\n        /* \"#utility.yul\":17618:17622   */\n      dup3\n        /* \"#utility.yul\":17614:17630   */\n      shr\n        /* \"#utility.yul\":17593:17630   */\n      swap1\n      pop\n        /* \"#utility.yul\":17520:17637   */\n      swap3\n      swap2\n      pop\n      pop\n      jump\t// out\n        /* \"#utility.yul\":17643:17812   */\n    tag_158:\n        /* \"#utility.yul\":17687:17693   */\n      0x00\n        /* \"#utility.yul\":17720:17771   */\n      tag_351\n        /* \"#utility.yul\":17768:17769   */\n      0x00\n        /* \"#utility.yul\":17764:17770   */\n      not\n        /* \"#utility.yul\":17756:17761   */\n      dup5\n        /* \"#utility.yul\":17753:17754   */\n      0x08\n        /* \"#utility.yul\":17749:17762   */\n      mul\n        /* \"#utility.yul\":17720:17771   */\n      tag_157\n      jump\t// in\n    tag_351:\n        /* \"#utility.yul\":17716:17772   */\n      not\n        /* \"#utility.yul\":17801:17805   */\n      dup1\n        /* \"#utility.yul\":17795:17799   */\n      dup4\n        /* \"#utility.yul\":17791:17806   */\n      and\n        /* \"#utility.yul\":17781:17806   */\n      swap2\n      pop\n        /* \"#utility.yul\":17694:17812   */\n      pop\n        /* \"#utility.yul\":17643:17812   */\n      swap3\n      swap2\n      pop\n      pop\n      jump\t// out\n        /* \"#utility.yul\":17817:18112   */\n    tag_159:\n        /* \"#utility.yul\":17893:17897   */\n      0x00\n        /* \"#utility.yul\":18039:18068   */\n      tag_353\n        /* \"#utility.yul\":18064:18067   */\n      dup4\n        /* \"#utility.yul\":18058:18062   */\n      dup4\n        /* \"#utility.yul\":18039:18068   */\n      tag_158\n      jump\t// in\n    tag_353:\n        /* \"#utility.yul\":18031:18068   */\n      swap2\n      pop\n        /* \"#utility.yul\":18101:18104   */\n      dup3\n        /* \"#utility.yul\":18098:18099   */\n      0x02\n        /* \"#utility.yul\":18094:18105   */\n      mul\n        /* \"#utility.yul\":18088:18092   */\n      dup3\n        /* \"#utility.yul\":18085:18106   */\n      or\n        /* \"#utility.yul\":18077:18106   */\n      swap1\n      pop\n        /* \"#utility.yul\":17817:18112   */\n      swap3\n      swap2\n      pop\n      pop\n      jump\t// out\n        /* \"#utility.yul\":18117:19512   */\n    tag_80:\n        /* \"#utility.yul\":18234:18271   */\n      tag_355\n        /* \"#utility.yul\":18267:18270   */\n      dup3\n        /* \"#utility.yul\":18234:18271   */\n      tag_109\n      jump\t// in\n    tag_355:\n        /* \"#utility.yul\":18336:18354   */\n      0xffffffffffffffff\n        /* \"#utility.yul\":18328:18334   */\n      dup2\n        /* \"#utility.yul\":18325:18355   */\n      gt\n        /* \"#utility.yul\":18322:18378   */\n      iszero\n      tag_356\n      jumpi\n        /* \"#utility.yul\":18358:18376   */\n      tag_357\n      tag_119\n      jump\t// in\n    tag_357:\n        /* \"#utility.yul\":18322:18378   */\n    tag_356:\n        /* \"#utility.yul\":18402:18440   */\n      tag_358\n        /* \"#utility.yul\":18434:18438   */\n      dup3\n        /* \"#utility.yul\":18428:18439   */\n      sload\n        /* \"#utility.yul\":18402:18440   */\n      tag_64\n      jump\t// in\n    tag_358:\n        /* \"#utility.yul\":18487:18554   */\n      tag_359\n        /* \"#utility.yul\":18547:18553   */\n      dup3\n        /* \"#utility.yul\":18539:18545   */\n      dup3\n        /* \"#utility.yul\":18533:18537   */\n      dup6\n        /* \"#utility.yul\":18487:18554   */\n      tag_156\n      jump\t// in\n    tag_359:\n        /* \"#utility.yul\":18581:18582   */\n      0x00\n        /* \"#utility.yul\":18605:18609   */\n      0x20\n        /* \"#utility.yul\":18592:18609   */\n      swap1\n      pop\n        /* \"#utility.yul\":18637:18639   */\n      0x1f\n        /* \"#utility.yul\":18629:18635   */\n      dup4\n        /* \"#utility.yul\":18626:18640   */\n      gt\n        /* \"#utility.yul\":18654:18655   */\n      0x01\n        /* \"#utility.yul\":18649:19267   */\n      dup2\n      eq\n      tag_361\n      jumpi\n        /* \"#utility.yul\":19311:19312   */\n      0x00\n        /* \"#utility.yul\":19328:19334   */\n      dup5\n        /* \"#utility.yul\":19325:19402   */\n      iszero\n      tag_362\n      jumpi\n        /* \"#utility.yul\":19377:19386   */\n      dup3\n        /* \"#utility.yul\":19372:19375   */\n      dup8\n        /* \"#utility.yul\":19368:19387   */\n      add\n        /* \"#utility.yul\":19362:19388   */\n      mload\n        /* \"#utility.yul\":19353:19388   */\n      swap1\n      pop\n        /* \"#utility.yul\":19325:19402   */\n    tag_362:\n        /* \"#utility.yul\":19428:19495   */\n      tag_363\n        /* \"#utility.yul\":19488:19494   */\n      dup6\n        /* \"#utility.yul\":19481:19486   */\n      dup3\n        /* \"#utility.yul\":19428:19495   */\n      tag_159\n      jump\t// in\n    tag_363:\n        /* \"#utility.yul\":19422:19426   */\n      dup7\n        /* \"#utility.yul\":19415:19496   */\n      sstore\n        /* \"#utility.yul\":19284:19506   */\n      pop\n        /* \"#utility.yul\":18619:19506   */\n      jump(tag_360)\n        /* \"#utility.yul\":18649:19267   */\n    tag_361:\n        /* \"#utility.yul\":18701:18705   */\n      0x1f\n        /* \"#utility.yul\":18697:18706   */\n      not\n        /* \"#utility.yul\":18689:18695   */\n      dup5\n        /* \"#utility.yul\":18685:18707   */\n      and\n        /* \"#utility.yul\":18735:18772   */\n      tag_364\n        /* \"#utility.yul\":18767:18771   */\n      dup7\n        /* \"#utility.yul\":18735:18772   */\n      tag_146\n      jump\t// in\n    tag_364:\n        /* \"#utility.yul\":18794:18795   */\n      0x00\n        /* \"#utility.yul\":18808:19016   */\n    tag_365:\n        /* \"#utility.yul\":18822:18829   */\n      dup3\n        /* \"#utility.yul\":18819:18820   */\n      dup2\n        /* \"#utility.yul\":18816:18830   */\n      lt\n        /* \"#utility.yul\":18808:19016   */\n      iszero\n      tag_367\n      jumpi\n        /* \"#utility.yul\":18901:18910   */\n      dup5\n        /* \"#utility.yul\":18896:18899   */\n      dup10\n        /* \"#utility.yul\":18892:18911   */\n      add\n        /* \"#utility.yul\":18886:18912   */\n      mload\n        /* \"#utility.yul\":18878:18884   */\n      dup3\n        /* \"#utility.yul\":18871:18913   */\n      sstore\n        /* \"#utility.yul\":18952:18953   */\n      0x01\n        /* \"#utility.yul\":18944:18950   */\n      dup3\n        /* \"#utility.yul\":18940:18954   */\n      add\n        /* \"#utility.yul\":18930:18954   */\n      swap2\n      pop\n        /* \"#utility.yul\":18999:19001   */\n      0x20\n        /* \"#utility.yul\":18988:18997   */\n      dup6\n        /* \"#utility.yul\":18984:19002   */\n      add\n        /* \"#utility.yul\":18971:19002   */\n      swap5\n      pop\n        /* \"#utility.yul\":18845:18849   */\n      0x20\n        /* \"#utility.yul\":18842:18843   */\n      dup2\n        /* \"#utility.yul\":18838:18850   */\n      add\n        /* \"#utility.yul\":18833:18850   */\n      swap1\n      pop\n        /* \"#utility.yul\":18808:19016   */\n      jump(tag_365)\n    tag_367:\n        /* \"#utility.yul\":19044:19050   */\n      dup7\n        /* \"#utility.yul\":19035:19042   */\n      dup4\n        /* \"#utility.yul\":19032:19051   */\n      lt\n        /* \"#utility.yul\":19029:19208   */\n      iszero\n      tag_368\n      jumpi\n        /* \"#utility.yul\":19102:19111   */\n      dup5\n        /* \"#utility.yul\":19097:19100   */\n      dup10\n        /* \"#utility.yul\":19093:19112   */\n      add\n        /* \"#utility.yul\":19087:19113   */\n      mload\n        /* \"#utility.yul\":19145:19193   */\n      tag_369\n        /* \"#utility.yul\":19187:19191   */\n      0x1f\n        /* \"#utility.yul\":19179:19185   */\n      dup10\n        /* \"#utility.yul\":19175:19192   */\n      and\n        /* \"#utility.yul\":19164:19173   */\n      dup3\n        /* \"#utility.yul\":19145:19193   */\n      tag_158\n      jump\t// in\n    tag_369:\n        /* \"#utility.yul\":19137:19143   */\n      dup4\n        /* \"#utility.yul\":19130:19194   */\n      sstore\n        /* \"#utility.yul\":19052:19208   */\n      pop\n        /* \"#utility.yul\":19029:19208   */\n    tag_368:\n        /* \"#utility.yul\":19254:19255   */\n      0x01\n        /* \"#utility.yul\":19250:19251   */\n      0x02\n        /* \"#utility.yul\":19242:19248   */\n      dup9\n        /* \"#utility.yul\":19238:19252   */\n      mul\n        /* \"#utility.yul\":19234:19256   */\n      add\n        /* \"#utility.yul\":19228:19232   */\n      dup9\n        /* \"#utility.yul\":19221:19257   */\n      sstore\n        /* \"#utility.yul\":18656:19267   */\n      pop\n      pop\n      pop\n        /* \"#utility.yul\":18619:19506   */\n    tag_360:\n      pop\n        /* \"#utility.yul\":18209:19512   */\n      pop\n      pop\n      pop\n        /* \"#utility.yul\":18117:19512   */\n      pop\n      pop\n      jump\t// out\n        /* \"#utility.yul\":19518:20162   */\n    tag_82:\n        /* \"#utility.yul\":19715:19719   */\n      0x00\n        /* \"#utility.yul\":19753:19756   */\n      0x80\n        /* \"#utility.yul\":19742:19751   */\n      dup3\n        /* \"#utility.yul\":19738:19757   */\n      add\n        /* \"#utility.yul\":19730:19757   */\n      swap1\n      pop\n        /* \"#utility.yul\":19767:19838   */\n      tag_371\n        /* \"#utility.yul\":19835:19836   */\n      0x00\n        /* \"#utility.yul\":19824:19833   */\n      dup4\n        /* \"#utility.yul\":19820:19837   */\n      add\n        /* \"#utility.yul\":19811:19817   */\n      dup8\n        /* \"#utility.yul\":19767:19838   */\n      tag_114\n      jump\t// in\n    tag_371:\n        /* \"#utility.yul\":19885:19894   */\n      dup2\n        /* \"#utility.yul\":19879:19883   */\n      dup2\n        /* \"#utility.yul\":19875:19895   */\n      sub\n        /* \"#utility.yul\":19870:19872   */\n      0x20\n        /* \"#utility.yul\":19859:19868   */\n      dup4\n        /* \"#utility.yul\":19855:19873   */\n      add\n        /* \"#utility.yul\":19848:19896   */\n      mstore\n        /* \"#utility.yul\":19913:19991   */\n      tag_372\n        /* \"#utility.yul\":19986:19990   */\n      dup2\n        /* \"#utility.yul\":19977:19983   */\n      dup7\n        /* \"#utility.yul\":19913:19991   */\n      tag_113\n      jump\t// in\n    tag_372:\n        /* \"#utility.yul\":19905:19991   */\n      swap1\n      pop\n        /* \"#utility.yul\":20001:20073   */\n      tag_373\n        /* \"#utility.yul\":20069:20071   */\n      0x40\n        /* \"#utility.yul\":20058:20067   */\n      dup4\n        /* \"#utility.yul\":20054:20072   */\n      add\n        /* \"#utility.yul\":20045:20051   */\n      dup6\n        /* \"#utility.yul\":20001:20073   */\n      tag_114\n      jump\t// in\n    tag_373:\n        /* \"#utility.yul\":20083:20155   */\n      tag_374\n        /* \"#utility.yul\":20151:20153   */\n      0x60\n        /* \"#utility.yul\":20140:20149   */\n      dup4\n        /* \"#utility.yul\":20136:20154   */\n      add\n        /* \"#utility.yul\":20127:20133   */\n      dup5\n        /* \"#utility.yul\":20083:20155   */\n      tag_114\n      jump\t// in\n    tag_374:\n        /* \"#utility.yul\":19518:20162   */\n      swap6\n      swap5\n      pop\n      pop\n      pop\n      pop\n      pop\n      jump\t// out\n        /* \"#utility.yul\":20168:20334   */\n    tag_160:\n        /* \"#utility.yul\":20308:20326   */\n      0x43616d706169676e206973206f76657200000000000000000000000000000000\n        /* \"#utility.yul\":20304:20305   */\n      0x00\n        /* \"#utility.yul\":20296:20302   */\n      dup3\n        /* \"#utility.yul\":20292:20306   */\n      add\n        /* \"#utility.yul\":20285:20327   */\n      mstore\n        /* \"#utility.yul\":20168:20334   */\n      pop\n      jump\t// out\n        /* \"#utility.yul\":20340:20706   */\n    tag_161:\n        /* \"#utility.yul\":20482:20485   */\n      0x00\n        /* \"#utility.yul\":20503:20570   */\n      tag_377\n        /* \"#utility.yul\":20567:20569   */\n      0x10\n        /* \"#utility.yul\":20562:20565   */\n      dup4\n        /* \"#utility.yul\":20503:20570   */\n      tag_110\n      jump\t// in\n    tag_377:\n        /* \"#utility.yul\":20496:20570   */\n      swap2\n      pop\n        /* \"#utility.yul\":20579:20672   */\n      tag_378\n        /* \"#utility.yul\":20668:20671   */\n      dup3\n        /* \"#utility.yul\":20579:20672   */\n      tag_160\n      jump\t// in\n    tag_378:\n        /* \"#utility.yul\":20697:20699   */\n      0x20\n        /* \"#utility.yul\":20692:20695   */\n      dup3\n        /* \"#utility.yul\":20688:20700   */\n      add\n        /* \"#utility.yul\":20681:20700   */\n      swap1\n      pop\n        /* \"#utility.yul\":20340:20706   */\n      swap2\n      swap1\n      pop\n      jump\t// out\n        /* \"#utility.yul\":20712:21131   */\n    tag_86:\n        /* \"#utility.yul\":20878:20882   */\n      0x00\n        /* \"#utility.yul\":20916:20918   */\n      0x20\n        /* \"#utility.yul\":20905:20914   */\n      dup3\n        /* \"#utility.yul\":20901:20919   */\n      add\n        /* \"#utility.yul\":20893:20919   */\n      swap1\n      pop\n        /* \"#utility.yul\":20965:20974   */\n      dup2\n        /* \"#utility.yul\":20959:20963   */\n      dup2\n        /* \"#utility.yul\":20955:20975   */\n      sub\n        /* \"#utility.yul\":20951:20952   */\n      0x00\n        /* \"#utility.yul\":20940:20949   */\n      dup4\n        /* \"#utility.yul\":20936:20953   */\n      add\n        /* \"#utility.yul\":20929:20976   */\n      mstore\n        /* \"#utility.yul\":20993:21124   */\n      tag_380\n        /* \"#utility.yul\":21119:21123   */\n      dup2\n        /* \"#utility.yul\":20993:21124   */\n      tag_161\n      jump\t// in\n    tag_380:\n        /* \"#utility.yul\":20985:21124   */\n      swap1\n      pop\n        /* \"#utility.yul\":20712:21131   */\n      swap2\n      swap1\n      pop\n      jump\t// out\n        /* \"#utility.yul\":21137:21300   */\n    tag_162:\n        /* \"#utility.yul\":21277:21292   */\n      0x53656e6420736f6d652045544800000000000000000000000000000000000000\n        /* \"#utility.yul\":21273:21274   */\n      0x00\n        /* \"#utility.yul\":21265:21271   */\n      dup3\n        /* \"#utility.yul\":21261:21275   */\n      add\n        /* \"#utility.yul\":21254:21293   */\n      mstore\n        /* \"#utility.yul\":21137:21300   */\n      pop\n      jump\t// out\n        /* \"#utility.yul\":21306:21672   */\n    tag_163:\n        /* \"#utility.yul\":21448:21451   */\n      0x00\n        /* \"#utility.yul\":21469:21536   */\n      tag_383\n        /* \"#utility.yul\":21533:21535   */\n      0x0d\n        /* \"#utility.yul\":21528:21531   */\n      dup4\n        /* \"#utility.yul\":21469:21536   */\n      tag_110\n      jump\t// in\n    tag_383:\n        /* \"#utility.yul\":21462:21536   */\n      swap2\n      pop\n        /* \"#utility.yul\":21545:21638   */\n      tag_384\n        /* \"#utility.yul\":21634:21637   */\n      dup3\n        /* \"#utility.yul\":21545:21638   */\n      tag_162\n      jump\t// in\n    tag_384:\n        /* \"#utility.yul\":21663:21665   */\n      0x20\n        /* \"#utility.yul\":21658:21661   */\n      dup3\n        /* \"#utility.yul\":21654:21666   */\n      add\n        /* \"#utility.yul\":21647:21666   */\n      swap1\n      pop\n        /* \"#utility.yul\":21306:21672   */\n      swap2\n      swap1\n      pop\n      jump\t// out\n        /* \"#utility.yul\":21678:22097   */\n    tag_89:\n        /* \"#utility.yul\":21844:21848   */\n      0x00\n        /* \"#utility.yul\":21882:21884   */\n      0x20\n        /* \"#utility.yul\":21871:21880   */\n      dup3\n        /* \"#utility.yul\":21867:21885   */\n      add\n        /* \"#utility.yul\":21859:21885   */\n      swap1\n      pop\n        /* \"#utility.yul\":21931:21940   */\n      dup2\n        /* \"#utility.yul\":21925:21929   */\n      dup2\n        /* \"#utility.yul\":21921:21941   */\n      sub\n        /* \"#utility.yul\":21917:21918   */\n      0x00\n        /* \"#utility.yul\":21906:21915   */\n      dup4\n        /* \"#utility.yul\":21902:21919   */\n      add\n        /* \"#utility.yul\":21895:21942   */\n      mstore\n        /* \"#utility.yul\":21959:22090   */\n      tag_386\n        /* \"#utility.yul\":22085:22089   */\n      dup2\n        /* \"#utility.yul\":21959:22090   */\n      tag_163\n      jump\t// in\n    tag_386:\n        /* \"#utility.yul\":21951:22090   */\n      swap1\n      pop\n        /* \"#utility.yul\":21678:22097   */\n      swap2\n      swap1\n      pop\n      jump\t// out\n        /* \"#utility.yul\":22103:22435   */\n    tag_94:\n        /* \"#utility.yul\":22224:22228   */\n      0x00\n        /* \"#utility.yul\":22262:22264   */\n      0x40\n        /* \"#utility.yul\":22251:22260   */\n      dup3\n        /* \"#utility.yul\":22247:22265   */\n      add\n        /* \"#utility.yul\":22239:22265   */\n      swap1\n      pop\n        /* \"#utility.yul\":22275:22346   */\n      tag_388\n        /* \"#utility.yul\":22343:22344   */\n      0x00\n        /* \"#utility.yul\":22332:22341   */\n      dup4\n        /* \"#utility.yul\":22328:22345   */\n      add\n        /* \"#utility.yul\":22319:22325   */\n      dup6\n        /* \"#utility.yul\":22275:22346   */\n      tag_108\n      jump\t// in\n    tag_388:\n        /* \"#utility.yul\":22356:22428   */\n      tag_389\n        /* \"#utility.yul\":22424:22426   */\n      0x20\n        /* \"#utility.yul\":22413:22422   */\n      dup4\n        /* \"#utility.yul\":22409:22427   */\n      add\n        /* \"#utility.yul\":22400:22406   */\n      dup5\n        /* \"#utility.yul\":22356:22428   */\n      tag_114\n      jump\t// in\n    tag_389:\n        /* \"#utility.yul\":22103:22435   */\n      swap4\n      swap3\n      pop\n      pop\n      pop\n      jump\t// out\n        /* \"#utility.yul\":22441:22883   */\n    tag_99:\n        /* \"#utility.yul\":22590:22594   */\n      0x00\n        /* \"#utility.yul\":22628:22630   */\n      0x60\n        /* \"#utility.yul\":22617:22626   */\n      dup3\n        /* \"#utility.yul\":22613:22631   */\n      add\n        /* \"#utility.yul\":22605:22631   */\n      swap1\n      pop\n        /* \"#utility.yul\":22641:22712   */\n      tag_391\n        /* \"#utility.yul\":22709:22710   */\n      0x00\n        /* \"#utility.yul\":22698:22707   */\n      dup4\n        /* \"#utility.yul\":22694:22711   */\n      add\n        /* \"#utility.yul\":22685:22691   */\n      dup7\n        /* \"#utility.yul\":22641:22712   */\n      tag_114\n      jump\t// in\n    tag_391:\n        /* \"#utility.yul\":22722:22794   */\n      tag_392\n        /* \"#utility.yul\":22790:22792   */\n      0x20\n        /* \"#utility.yul\":22779:22788   */\n      dup4\n        /* \"#utility.yul\":22775:22793   */\n      add\n        /* \"#utility.yul\":22766:22772   */\n      dup6\n        /* \"#utility.yul\":22722:22794   */\n      tag_108\n      jump\t// in\n    tag_392:\n        /* \"#utility.yul\":22804:22876   */\n      tag_393\n        /* \"#utility.yul\":22872:22874   */\n      0x40\n        /* \"#utility.yul\":22861:22870   */\n      dup4\n        /* \"#utility.yul\":22857:22875   */\n      add\n        /* \"#utility.yul\":22848:22854   */\n      dup5\n        /* \"#utility.yul\":22804:22876   */\n      tag_114\n      jump\t// in\n    tag_393:\n        /* \"#utility.yul\":22441:22883   */\n      swap5\n      swap4\n      pop\n      pop\n      pop\n      pop\n      jump\t// out\n\n    auxdata: 0xa2646970667358221220c2ad918168990b95f242e480ec4f1020026a880c1650a3703b72fad1ed6bb55964736f6c634300081f0033\n}\n",
				"bytecode": {
					"linkReferences": {},
					"object": "608060405234801561000f575f5ffd5b5060405161157c38038061157c833981810160405281019061003191906100d4565b805f5f6101000a81548173ffffffffffffffffffffffffffffffffffffffff021916908373ffffffffffffffffffffffffffffffffffffffff160217905550506100ff565b5f5ffd5b5f73ffffffffffffffffffffffffffffffffffffffff82169050919050565b5f6100a38261007a565b9050919050565b6100b381610099565b81146100bd575f5ffd5b50565b5f815190506100ce816100aa565b92915050565b5f602082840312156100e9576100e8610076565b5b5f6100f6848285016100c0565b91505092915050565b6114708061010c5f395ff3fe60806040526004361061006f575f3560e01c80633d891f591161004d5780633d891f59146101055780637274e30d14610141578063c1cbbca71461016b578063f7c618c1146101875761006f565b806305261aea14610073578063141961bc1461009b5780633020580b146100dd575b5f5ffd5b34801561007e575f5ffd5b506100996004803603810190610094919061090d565b6101b1565b005b3480156100a6575f5ffd5b506100c160048036038101906100bc919061090d565b6103c3565b6040516100d49796959493929190610a10565b60405180910390f35b3480156100e8575f5ffd5b5061010360048036038101906100fe9190610bb0565b6104bf565b005b348015610110575f5ffd5b5061012b60048036038101906101269190610c46565b610694565b6040516101389190610c84565b60405180910390f35b34801561014c575f5ffd5b506101556106b4565b6040516101629190610c84565b60405180910390f35b6101856004803603810190610180919061090d565b6106ba565b005b348015610192575f5ffd5b5061019b6108a5565b6040516101a89190610cf8565b60405180910390f35b5f60025f8381526020019081526020015f209050806003015442101561020c576040517f08c379a000000000000000000000000000000000000000000000000000000000815260040161020390610d5b565b60405180910390fd5b806005015f9054906101000a900460ff161561025d576040517f08c379a000000000000000000000000000000000000000000000000000000000815260040161025490610dc3565b60405180910390fd5b6001816005015f6101000a81548160ff02191690831515021790555080600201548160040154106103755760018160050160016101000a81548160ff0219169083151502179055505f815f015f9054906101000a900473ffffffffffffffffffffffffffffffffffffffff1673ffffffffffffffffffffffffffffffffffffffff1682600401546040516102f090610e0e565b5f6040518083038185875af1925050503d805f811461032a576040519150601f19603f3d011682016040523d82523d5f602084013e61032f565b606091505b5050905080610373576040517f08c379a000000000000000000000000000000000000000000000000000000000815260040161036a90610e6c565b60405180910390fd5b505b7f153ed4c9c4475018e4899faf78c3171cc7869a9c53a2d247de2ff74377eba788828260050160019054906101000a900460ff166040516103b7929190610e8a565b60405180910390a15050565b6002602052805f5260405f205f91509050805f015f9054906101000a900473ffffffffffffffffffffffffffffffffffffffff169080600101805461040790610ede565b80601f016020809104026020016040519081016040528092919081815260200182805461043390610ede565b801561047e5780601f106104555761010080835404028352916020019161047e565b820191905f5260205f20905b81548152906001019060200180831161046157829003601f168201915b505050505090806002015490806003015490806004015490806005015f9054906101000a900460ff16908060050160019054906101000a900460ff16905087565b5f8211610501576040517f08c379a00000000000000000000000000000000000000000000000000000000081526004016104f890610f58565b60405180910390fd5b60015f81548092919061051390610fa3565b91905055505f62015180826105289190610fea565b42610533919061102b565b90506040518060e001604052803373ffffffffffffffffffffffffffffffffffffffff1681526020018581526020018481526020018281526020015f81526020015f151581526020015f151581525060025f60015481526020019081526020015f205f820151815f015f6101000a81548173ffffffffffffffffffffffffffffffffffffffff021916908373ffffffffffffffffffffffffffffffffffffffff16021790555060208201518160010190816105ee91906111f5565b5060408201518160020155606082015181600301556080820151816004015560a0820151816005015f6101000a81548160ff02191690831515021790555060c08201518160050160016101000a81548160ff0219169083151502179055509050507f02fe3fddd43aad14ae5c30d5d694f19ecb065dfde85bb591b91e8af1448724d260015485858460405161068694939291906112c4565b60405180910390a150505050565b6003602052815f5260405f20602052805f5260405f205f91509150505481565b60015481565b5f60025f8381526020019081526020015f20905080600301544210610714576040517f08c379a000000000000000000000000000000000000000000000000000000000815260040161070b90611358565b60405180910390fd5b5f3411610756576040517f08c379a000000000000000000000000000000000000000000000000000000000815260040161074d906113c0565b60405180910390fd5b34816004015f828254610769919061102b565b925050819055503460035f8481526020019081526020015f205f3373ffffffffffffffffffffffffffffffffffffffff1673ffffffffffffffffffffffffffffffffffffffff1681526020019081526020015f205f8282546107cb919061102b565b925050819055505f5f9054906101000a900473ffffffffffffffffffffffffffffffffffffffff1673ffffffffffffffffffffffffffffffffffffffff166340c10f193360643461081c9190610fea565b6040518363ffffffff1660e01b81526004016108399291906113de565b5f604051808303815f87803b158015610850575f5ffd5b505af1158015610862573d5f5f3e3d5ffd5b505050507f0a4a91237423e0a1766a761c7cb029311d8b95d6b1b81db1b949a70c98b4e08e82333460405161089993929190611405565b60405180910390a15050565b5f5f9054906101000a900473ffffffffffffffffffffffffffffffffffffffff1681565b5f604051905090565b5f5ffd5b5f5ffd5b5f819050919050565b6108ec816108da565b81146108f6575f5ffd5b50565b5f81359050610907816108e3565b92915050565b5f60208284031215610922576109216108d2565b5b5f61092f848285016108f9565b91505092915050565b5f73ffffffffffffffffffffffffffffffffffffffff82169050919050565b5f61096182610938565b9050919050565b61097181610957565b82525050565b5f81519050919050565b5f82825260208201905092915050565b8281835e5f83830152505050565b5f601f19601f8301169050919050565b5f6109b982610977565b6109c38185610981565b93506109d3818560208601610991565b6109dc8161099f565b840191505092915050565b6109f0816108da565b82525050565b5f8115159050919050565b610a0a816109f6565b82525050565b5f60e082019050610a235f83018a610968565b8181036020830152610a3581896109af565b9050610a4460408301886109e7565b610a5160608301876109e7565b610a5e60808301866109e7565b610a6b60a0830185610a01565b610a7860c0830184610a01565b98975050505050505050565b5f5ffd5b5f5ffd5b7f4e487b71000000000000000000000000000000000000000000000000000000005f52604160045260245ffd5b610ac28261099f565b810181811067ffffffffffffffff82111715610ae157610ae0610a8c565b5b80604052505050565b5f610af36108c9565b9050610aff8282610ab9565b919050565b5f67ffffffffffffffff821115610b1e57610b1d610a8c565b5b610b278261099f565b9050602081019050919050565b828183375f83830152505050565b5f610b54610b4f84610b04565b610aea565b905082815260208101848484011115610b7057610b6f610a88565b5b610b7b848285610b34565b509392505050565b5f82601f830112610b9757610b96610a84565b5b8135610ba7848260208601610b42565b91505092915050565b5f5f5f60608486031215610bc757610bc66108d2565b5b5f84013567ffffffffffffffff811115610be457610be36108d6565b5b610bf086828701610b83565b9350506020610c01868287016108f9565b9250506040610c12868287016108f9565b9150509250925092565b610c2581610957565b8114610c2f575f5ffd5b50565b5f81359050610c4081610c1c565b92915050565b5f5f60408385031215610c5c57610c5b6108d2565b5b5f610c69858286016108f9565b9250506020610c7a85828601610c32565b9150509250929050565b5f602082019050610c975f8301846109e7565b92915050565b5f819050919050565b5f610cc0610cbb610cb684610938565b610c9d565b610938565b9050919050565b5f610cd182610ca6565b9050919050565b5f610ce282610cc7565b9050919050565b610cf281610cd8565b82525050565b5f602082019050610d0b5f830184610ce9565b92915050565b7f4e6f74207265616368656420646561646c696e650000000000000000000000005f82015250565b5f610d45601483610981565b9150610d5082610d11565b602082019050919050565b5f6020820190508181035f830152610d7281610d39565b9050919050565b7f416c72656164792066696e616c697a65640000000000000000000000000000005f82015250565b5f610dad601183610981565b9150610db882610d79565b602082019050919050565b5f6020820190508181035f830152610dda81610da1565b9050919050565b5f81905092915050565b50565b5f610df95f83610de1565b9150610e0482610deb565b5f82019050919050565b5f610e1882610dee565b9150819050919050565b7f5472616e73666572206661696c656400000000000000000000000000000000005f82015250565b5f610e56600f83610981565b9150610e6182610e22565b602082019050919050565b5f6020820190508181035f830152610e8381610e4a565b9050919050565b5f604082019050610e9d5f8301856109e7565b610eaa6020830184610a01565b9392505050565b7f4e487b71000000000000000000000000000000000000000000000000000000005f52602260045260245ffd5b5f6002820490506001821680610ef557607f821691505b602082108103610f0857610f07610eb1565b5b50919050565b7f476f616c206d757374206265203e2030000000000000000000000000000000005f82015250565b5f610f42601083610981565b9150610f4d82610f0e565b602082019050919050565b5f6020820190508181035f830152610f6f81610f36565b9050919050565b7f4e487b71000000000000000000000000000000000000000000000000000000005f52601160045260245ffd5b5f610fad826108da565b91507fffffffffffffffffffffffffffffffffffffffffffffffffffffffffffffffff8203610fdf57610fde610f76565b5b600182019050919050565b5f610ff4826108da565b9150610fff836108da565b925082820261100d816108da565b9150828204841483151761102457611023610f76565b5b5092915050565b5f611035826108da565b9150611040836108da565b925082820190508082111561105857611057610f76565b5b92915050565b5f819050815f5260205f209050919050565b5f6020601f8301049050919050565b5f82821b905092915050565b5f600883026110ba7fffffffffffffffffffffffffffffffffffffffffffffffffffffffffffffffff8261107f565b6110c4868361107f565b95508019841693508086168417925050509392505050565b5f6110f66110f16110ec846108da565b610c9d565b6108da565b9050919050565b5f819050919050565b61110f836110dc565b61112361111b826110fd565b84845461108b565b825550505050565b5f5f905090565b61113a61112b565b611145818484611106565b505050565b5b818110156111685761115d5f82611132565b60018101905061114b565b5050565b601f8211156111ad5761117e8161105e565b61118784611070565b81016020851015611196578190505b6111aa6111a285611070565b83018261114a565b50505b505050565b5f82821c905092915050565b5f6111cd5f19846008026111b2565b1980831691505092915050565b5f6111e583836111be565b9150826002028217905092915050565b6111fe82610977565b67ffffffffffffffff81111561121757611216610a8c565b5b6112218254610ede565b61122c82828561116c565b5f60209050601f83116001811461125d575f841561124b578287015190505b61125585826111da565b8655506112bc565b601f19841661126b8661105e565b5f5b828110156112925784890151825560018201915060208501945060208101905061126d565b868310156112af57848901516112ab601f8916826111be565b8355505b6001600288020188555050505b505050505050565b5f6080820190506112d75f8301876109e7565b81810360208301526112e981866109af565b90506112f860408301856109e7565b61130560608301846109e7565b95945050505050565b7f43616d706169676e206973206f766572000000000000000000000000000000005f82015250565b5f611342601083610981565b915061134d8261130e565b602082019050919050565b5f6020820190508181035f83015261136f81611336565b9050919050565b7f53656e6420736f6d6520455448000000000000000000000000000000000000005f82015250565b5f6113aa600d83610981565b91506113b582611376565b602082019050919050565b5f6020820190508181035f8301526113d78161139e565b9050919050565b5f6040820190506113f15f830185610968565b6113fe60208301846109e7565b9392505050565b5f6060820190506114185f8301866109e7565b6114256020830185610968565b61143260408301846109e7565b94935050505056fea2646970667358221220c2ad918168990b95f242e480ec4f1020026a880c1650a3703b72fad1ed6bb55964736f6c634300081f0033",
					"opcodes": "PUSH1 0x80 PUSH1 0x40 MSTORE CALLVALUE DUP1 ISZERO PUSH2 0xF JUMPI PUSH0 PUSH0 REVERT JUMPDEST POP PUSH1 0x40 MLOAD PUSH2 0x157C CODESIZE SUB DUP1 PUSH2 0x157C DUP4 CODECOPY DUP2 DUP2 ADD PUSH1 0x40 MSTORE DUP2 ADD SWAP1 PUSH2 0x31 SWAP2 SWAP1 PUSH2 0xD4 JUMP JUMPDEST DUP1 PUSH0 PUSH0 PUSH2 0x100 EXP DUP2 SLOAD DUP2 PUSH20 0xFFFFFFFFFFFFFFFFFFFFFFFFFFFFFFFFFFFFFFFF MUL NOT AND SWAP1 DUP4 PUSH20 0xFFFFFFFFFFFFFFFFFFFFFFFFFFFFFFFFFFFFFFFF AND MUL OR SWAP1 SSTORE POP POP PUSH2 0xFF JUMP JUMPDEST PUSH0 PUSH0 REVERT JUMPDEST PUSH0 PUSH20 0xFFFFFFFFFFFFFFFFFFFFFFFFFFFFFFFFFFFFFFFF DUP3 AND SWAP1 POP SWAP2 SWAP1 POP JUMP JUMPDEST PUSH0 PUSH2 0xA3 DUP3 PUSH2 0x7A JUMP JUMPDEST SWAP1 POP SWAP2 SWAP1 POP JUMP JUMPDEST PUSH2 0xB3 DUP2 PUSH2 0x99 JUMP JUMPDEST DUP2 EQ PUSH2 0xBD JUMPI PUSH0 PUSH0 REVERT JUMPDEST POP JUMP JUMPDEST PUSH0 DUP2 MLOAD SWAP1 POP PUSH2 0xCE DUP2 PUSH2 0xAA JUMP JUMPDEST SWAP3 SWAP2 POP POP JUMP JUMPDEST PUSH0 PUSH1 0x20 DUP3 DUP5 SUB SLT ISZERO PUSH2 0xE9 JUMPI PUSH2 0xE8 PUSH2 0x76 JUMP JUMPDEST JUMPDEST PUSH0 PUSH2 0xF6 DUP5 DUP3 DUP6 ADD PUSH2 0xC0 JUMP JUMPDEST SWAP2 POP POP SWAP3 SWAP2 POP POP JUMP JUMPDEST PUSH2 0x1470 DUP1 PUSH2 0x10C PUSH0 CODECOPY PUSH0 RETURN INVALID PUSH1 0x80 PUSH1 0x40 MSTORE PUSH1 0x4 CALLDATASIZE LT PUSH2 0x6F JUMPI PUSH0 CALLDATALOAD PUSH1 0xE0 SHR DUP1 PUSH4 0x3D891F59 GT PUSH2 0x4D JUMPI DUP1 PUSH4 0x3D891F59 EQ PUSH2 0x105 JUMPI DUP1 PUSH4 0x7274E30D EQ PUSH2 0x141 JUMPI DUP1 PUSH4 0xC1CBBCA7 EQ PUSH2 0x16B JUMPI DUP1 PUSH4 0xF7C618C1 EQ PUSH2 0x187 JUMPI PUSH2 0x6F JUMP JUMPDEST DUP1 PUSH4 0x5261AEA EQ PUSH2 0x73 JUMPI DUP1 PUSH4 0x141961BC EQ PUSH2 0x9B JUMPI DUP1 PUSH4 0x3020580B EQ PUSH2 0xDD JUMPI JUMPDEST PUSH0 PUSH0 REVERT JUMPDEST CALLVALUE DUP1 ISZERO PUSH2 0x7E JUMPI PUSH0 PUSH0 REVERT JUMPDEST POP PUSH2 0x99 PUSH1 0x4 DUP1 CALLDATASIZE SUB DUP2 ADD SWAP1 PUSH2 0x94 SWAP2 SWAP1 PUSH2 0x90D JUMP JUMPDEST PUSH2 0x1B1 JUMP JUMPDEST STOP JUMPDEST CALLVALUE DUP1 ISZERO PUSH2 0xA6 JUMPI PUSH0 PUSH0 REVERT JUMPDEST POP PUSH2 0xC1 PUSH1 0x4 DUP1 CALLDATASIZE SUB DUP2 ADD SWAP1 PUSH2 0xBC SWAP2 SWAP1 PUSH2 0x90D JUMP JUMPDEST PUSH2 0x3C3 JUMP JUMPDEST PUSH1 0x40 MLOAD PUSH2 0xD4 SWAP8 SWAP7 SWAP6 SWAP5 SWAP4 SWAP3 SWAP2 SWAP1 PUSH2 0xA10 JUMP JUMPDEST PUSH1 0x40 MLOAD DUP1 SWAP2 SUB SWAP1 RETURN JUMPDEST CALLVALUE DUP1 ISZERO PUSH2 0xE8 JUMPI PUSH0 PUSH0 REVERT JUMPDEST POP PUSH2 0x103 PUSH1 0x4 DUP1 CALLDATASIZE SUB DUP2 ADD SWAP1 PUSH2 0xFE SWAP2 SWAP1 PUSH2 0xBB0 JUMP JUMPDEST PUSH2 0x4BF JUMP JUMPDEST STOP JUMPDEST CALLVALUE DUP1 ISZERO PUSH2 0x110 JUMPI PUSH0 PUSH0 REVERT JUMPDEST POP PUSH2 0x12B PUSH1 0x4 DUP1 CALLDATASIZE SUB DUP2 ADD SWAP1 PUSH2 0x126 SWAP2 SWAP1 PUSH2 0xC46 JUMP JUMPDEST PUSH2 0x694 JUMP JUMPDEST PUSH1 0x40 MLOAD PUSH2 0x138 SWAP2 SWAP1 PUSH2 0xC84 JUMP JUMPDEST PUSH1 0x40 MLOAD DUP1 SWAP2 SUB SWAP1 RETURN JUMPDEST CALLVALUE DUP1 ISZERO PUSH2 0x14C JUMPI PUSH0 PUSH0 REVERT JUMPDEST POP PUSH2 0x155 PUSH2 0x6B4 JUMP JUMPDEST PUSH1 0x40 MLOAD PUSH2 0x162 SWAP2 SWAP1 PUSH2 0xC84 JUMP JUMPDEST PUSH1 0x40 MLOAD DUP1 SWAP2 SUB SWAP1 RETURN JUMPDEST PUSH2 0x185 PUSH1 0x4 DUP1 CALLDATASIZE SUB DUP2 ADD SWAP1 PUSH2 0x180 SWAP2 SWAP1 PUSH2 0x90D JUMP JUMPDEST PUSH2 0x6BA JUMP JUMPDEST STOP JUMPDEST CALLVALUE DUP1 ISZERO PUSH2 0x192 JUMPI PUSH0 PUSH0 REVERT JUMPDEST POP PUSH2 0x19B PUSH2 0x8A5 JUMP JUMPDEST PUSH1 0x40 MLOAD PUSH2 0x1A8 SWAP2 SWAP1 PUSH2 0xCF8 JUMP JUMPDEST PUSH1 0x40 MLOAD DUP1 SWAP2 SUB SWAP1 RETURN JUMPDEST PUSH0 PUSH1 0x2 PUSH0 DUP4 DUP2 MSTORE PUSH1 0x20 ADD SWAP1 DUP2 MSTORE PUSH1 0x20 ADD PUSH0 KECCAK256 SWAP1 POP DUP1 PUSH1 0x3 ADD SLOAD TIMESTAMP LT ISZERO PUSH2 0x20C JUMPI PUSH1 0x40 MLOAD PUSH32 0x8C379A000000000000000000000000000000000000000000000000000000000 DUP2 MSTORE PUSH1 0x4 ADD PUSH2 0x203 SWAP1 PUSH2 0xD5B JUMP JUMPDEST PUSH1 0x40 MLOAD DUP1 SWAP2 SUB SWAP1 REVERT JUMPDEST DUP1 PUSH1 0x5 ADD PUSH0 SWAP1 SLOAD SWAP1 PUSH2 0x100 EXP SWAP1 DIV PUSH1 0xFF AND ISZERO PUSH2 0x25D JUMPI PUSH1 0x40 MLOAD PUSH32 0x8C379A000000000000000000000000000000000000000000000000000000000 DUP2 MSTORE PUSH1 0x4 ADD PUSH2 0x254 SWAP1 PUSH2 0xDC3 JUMP JUMPDEST PUSH1 0x40 MLOAD DUP1 SWAP2 SUB SWAP1 REVERT JUMPDEST PUSH1 0x1 DUP2 PUSH1 0x5 ADD PUSH0 PUSH2 0x100 EXP DUP2 SLOAD DUP2 PUSH1 0xFF MUL NOT AND SWAP1 DUP4 ISZERO ISZERO MUL OR SWAP1 SSTORE POP DUP1 PUSH1 0x2 ADD SLOAD DUP2 PUSH1 0x4 ADD SLOAD LT PUSH2 0x375 JUMPI PUSH1 0x1 DUP2 PUSH1 0x5 ADD PUSH1 0x1 PUSH2 0x100 EXP DUP2 SLOAD DUP2 PUSH1 0xFF MUL NOT AND SWAP1 DUP4 ISZERO ISZERO MUL OR SWAP1 SSTORE POP PUSH0 DUP2 PUSH0 ADD PUSH0 SWAP1 SLOAD SWAP1 PUSH2 0x100 EXP SWAP1 DIV PUSH20 0xFFFFFFFFFFFFFFFFFFFFFFFFFFFFFFFFFFFFFFFF AND PUSH20 0xFFFFFFFFFFFFFFFFFFFFFFFFFFFFFFFFFFFFFFFF AND DUP3 PUSH1 0x4 ADD SLOAD PUSH1 0x40 MLOAD PUSH2 0x2F0 SWAP1 PUSH2 0xE0E JUMP JUMPDEST PUSH0 PUSH1 0x40 MLOAD DUP1 DUP4 SUB DUP2 DUP6 DUP8 GAS CALL SWAP3 POP POP POP RETURNDATASIZE DUP1 PUSH0 DUP2 EQ PUSH2 0x32A JUMPI PUSH1 0x40 MLOAD SWAP2 POP PUSH1 0x1F NOT PUSH1 0x3F RETURNDATASIZE ADD AND DUP3 ADD PUSH1 0x40 MSTORE RETURNDATASIZE DUP3 MSTORE RETURNDATASIZE PUSH0 PUSH1 0x20 DUP5 ADD RETURNDATACOPY PUSH2 0x32F JUMP JUMPDEST PUSH1 0x60 SWAP2 POP JUMPDEST POP POP SWAP1 POP DUP1 PUSH2 0x373 JUMPI PUSH1 0x40 MLOAD PUSH32 0x8C379A000000000000000000000000000000000000000000000000000000000 DUP2 MSTORE PUSH1 0x4 ADD PUSH2 0x36A SWAP1 PUSH2 0xE6C JUMP JUMPDEST PUSH1 0x40 MLOAD DUP1 SWAP2 SUB SWAP1 REVERT JUMPDEST POP JUMPDEST PUSH32 0x153ED4C9C4475018E4899FAF78C3171CC7869A9C53A2D247DE2FF74377EBA788 DUP3 DUP3 PUSH1 0x5 ADD PUSH1 0x1 SWAP1 SLOAD SWAP1 PUSH2 0x100 EXP SWAP1 DIV PUSH1 0xFF AND PUSH1 0x40 MLOAD PUSH2 0x3B7 SWAP3 SWAP2 SWAP1 PUSH2 0xE8A JUMP JUMPDEST PUSH1 0x40 MLOAD DUP1 SWAP2 SUB SWAP1 LOG1 POP POP JUMP JUMPDEST PUSH1 0x2 PUSH1 0x20 MSTORE DUP1 PUSH0 MSTORE PUSH1 0x40 PUSH0 KECCAK256 PUSH0 SWAP2 POP SWAP1 POP DUP1 PUSH0 ADD PUSH0 SWAP1 SLOAD SWAP1 PUSH2 0x100 EXP SWAP1 DIV PUSH20 0xFFFFFFFFFFFFFFFFFFFFFFFFFFFFFFFFFFFFFFFF AND SWAP1 DUP1 PUSH1 0x1 ADD DUP1 SLOAD PUSH2 0x407 SWAP1 PUSH2 0xEDE JUMP JUMPDEST DUP1 PUSH1 0x1F ADD PUSH1 0x20 DUP1 SWAP2 DIV MUL PUSH1 0x20 ADD PUSH1 0x40 MLOAD SWAP1 DUP2 ADD PUSH1 0x40 MSTORE DUP1 SWAP3 SWAP2 SWAP1 DUP2 DUP2 MSTORE PUSH1 0x20 ADD DUP3 DUP1 SLOAD PUSH2 0x433 SWAP1 PUSH2 0xEDE JUMP JUMPDEST DUP1 ISZERO PUSH2 0x47E JUMPI DUP1 PUSH1 0x1F LT PUSH2 0x455 JUMPI PUSH2 0x100 DUP1 DUP4 SLOAD DIV MUL DUP4 MSTORE SWAP2 PUSH1 0x20 ADD SWAP2 PUSH2 0x47E JUMP JUMPDEST DUP3 ADD SWAP2 SWAP1 PUSH0 MSTORE PUSH1 0x20 PUSH0 KECCAK256 SWAP1 JUMPDEST DUP2 SLOAD DUP2 MSTORE SWAP1 PUSH1 0x1 ADD SWAP1 PUSH1 0x20 ADD DUP1 DUP4 GT PUSH2 0x461 JUMPI DUP3 SWAP1 SUB PUSH1 0x1F AND DUP3 ADD SWAP2 JUMPDEST POP POP POP POP POP SWAP1 DUP1 PUSH1 0x2 ADD SLOAD SWAP1 DUP1 PUSH1 0x3 ADD SLOAD SWAP1 DUP1 PUSH1 0x4 ADD SLOAD SWAP1 DUP1 PUSH1 0x5 ADD PUSH0 SWAP1 SLOAD SWAP1 PUSH2 0x100 EXP SWAP1 DIV PUSH1 0xFF AND SWAP1 DUP1 PUSH1 0x5 ADD PUSH1 0x1 SWAP1 SLOAD SWAP1 PUSH2 0x100 EXP SWAP1 DIV PUSH1 0xFF AND SWAP1 POP DUP8 JUMP JUMPDEST PUSH0 DUP3 GT PUSH2 0x501 JUMPI PUSH1 0x40 MLOAD PUSH32 0x8C379A000000000000000000000000000000000000000000000000000000000 DUP2 MSTORE PUSH1 0x4 ADD PUSH2 0x4F8 SWAP1 PUSH2 0xF58 JUMP JUMPDEST PUSH1 0x40 MLOAD DUP1 SWAP2 SUB SWAP1 REVERT JUMPDEST PUSH1 0x1 PUSH0 DUP2 SLOAD DUP1 SWAP3 SWAP2 SWAP1 PUSH2 0x513 SWAP1 PUSH2 0xFA3 JUMP JUMPDEST SWAP2 SWAP1 POP SSTORE POP PUSH0 PUSH3 0x15180 DUP3 PUSH2 0x528 SWAP2 SWAP1 PUSH2 0xFEA JUMP JUMPDEST TIMESTAMP PUSH2 0x533 SWAP2 SWAP1 PUSH2 0x102B JUMP JUMPDEST SWAP1 POP PUSH1 0x40 MLOAD DUP1 PUSH1 0xE0 ADD PUSH1 0x40 MSTORE DUP1 CALLER PUSH20 0xFFFFFFFFFFFFFFFFFFFFFFFFFFFFFFFFFFFFFFFF AND DUP2 MSTORE PUSH1 0x20 ADD DUP6 DUP2 MSTORE PUSH1 0x20 ADD DUP5 DUP2 MSTORE PUSH1 0x20 ADD DUP3 DUP2 MSTORE PUSH1 0x20 ADD PUSH0 DUP2 MSTORE PUSH1 0x20 ADD PUSH0 ISZERO ISZERO DUP2 MSTORE PUSH1 0x20 ADD PUSH0 ISZERO ISZERO DUP2 MSTORE POP PUSH1 0x2 PUSH0 PUSH1 0x1 SLOAD DUP2 MSTORE PUSH1 0x20 ADD SWAP1 DUP2 MSTORE PUSH1 0x20 ADD PUSH0 KECCAK256 PUSH0 DUP3 ADD MLOAD DUP2 PUSH0 ADD PUSH0 PUSH2 0x100 EXP DUP2 SLOAD DUP2 PUSH20 0xFFFFFFFFFFFFFFFFFFFFFFFFFFFFFFFFFFFFFFFF MUL NOT AND SWAP1 DUP4 PUSH20 0xFFFFFFFFFFFFFFFFFFFFFFFFFFFFFFFFFFFFFFFF AND MUL OR SWAP1 SSTORE POP PUSH1 0x20 DUP3 ADD MLOAD DUP2 PUSH1 0x1 ADD SWAP1 DUP2 PUSH2 0x5EE SWAP2 SWAP1 PUSH2 0x11F5 JUMP JUMPDEST POP PUSH1 0x40 DUP3 ADD MLOAD DUP2 PUSH1 0x2 ADD SSTORE PUSH1 0x60 DUP3 ADD MLOAD DUP2 PUSH1 0x3 ADD SSTORE PUSH1 0x80 DUP3 ADD MLOAD DUP2 PUSH1 0x4 ADD SSTORE PUSH1 0xA0 DUP3 ADD MLOAD DUP2 PUSH1 0x5 ADD PUSH0 PUSH2 0x100 EXP DUP2 SLOAD DUP2 PUSH1 0xFF MUL NOT AND SWAP1 DUP4 ISZERO ISZERO MUL OR SWAP1 SSTORE POP PUSH1 0xC0 DUP3 ADD MLOAD DUP2 PUSH1 0x5 ADD PUSH1 0x1 PUSH2 0x100 EXP DUP2 SLOAD DUP2 PUSH1 0xFF MUL NOT AND SWAP1 DUP4 ISZERO ISZERO MUL OR SWAP1 SSTORE POP SWAP1 POP POP PUSH32 0x2FE3FDDD43AAD14AE5C30D5D694F19ECB065DFDE85BB591B91E8AF1448724D2 PUSH1 0x1 SLOAD DUP6 DUP6 DUP5 PUSH1 0x40 MLOAD PUSH2 0x686 SWAP5 SWAP4 SWAP3 SWAP2 SWAP1 PUSH2 0x12C4 JUMP JUMPDEST PUSH1 0x40 MLOAD DUP1 SWAP2 SUB SWAP1 LOG1 POP POP POP POP JUMP JUMPDEST PUSH1 0x3 PUSH1 0x20 MSTORE DUP2 PUSH0 MSTORE PUSH1 0x40 PUSH0 KECCAK256 PUSH1 0x20 MSTORE DUP1 PUSH0 MSTORE PUSH1 0x40 PUSH0 KECCAK256 PUSH0 SWAP2 POP SWAP2 POP POP SLOAD DUP2 JUMP JUMPDEST PUSH1 0x1 SLOAD DUP2 JUMP JUMPDEST PUSH0 PUSH1 0x2 PUSH0 DUP4 DUP2 MSTORE PUSH1 0x20 ADD SWAP1 DUP2 MSTORE PUSH1 0x20 ADD PUSH0 KECCAK256 SWAP1 POP DUP1 PUSH1 0x3 ADD SLOAD TIMESTAMP LT PUSH2 0x714 JUMPI PUSH1 0x40 MLOAD PUSH32 0x8C379A000000000000000000000000000000000000000000000000000000000 DUP2 MSTORE PUSH1 0x4 ADD PUSH2 0x70B SWAP1 PUSH2 0x1358 JUMP JUMPDEST PUSH1 0x40 MLOAD DUP1 SWAP2 SUB SWAP1 REVERT JUMPDEST PUSH0 CALLVALUE GT PUSH2 0x756 JUMPI PUSH1 0x40 MLOAD PUSH32 0x8C379A000000000000000000000000000000000000000000000000000000000 DUP2 MSTORE PUSH1 0x4 ADD PUSH2 0x74D SWAP1 PUSH2 0x13C0 JUMP JUMPDEST PUSH1 0x40 MLOAD DUP1 SWAP2 SUB SWAP1 REVERT JUMPDEST CALLVALUE DUP2 PUSH1 0x4 ADD PUSH0 DUP3 DUP3 SLOAD PUSH2 0x769 SWAP2 SWAP1 PUSH2 0x102B JUMP JUMPDEST SWAP3 POP POP DUP2 SWAP1 SSTORE POP CALLVALUE PUSH1 0x3 PUSH0 DUP5 DUP2 MSTORE PUSH1 0x20 ADD SWAP1 DUP2 MSTORE PUSH1 0x20 ADD PUSH0 KECCAK256 PUSH0 CALLER PUSH20 0xFFFFFFFFFFFFFFFFFFFFFFFFFFFFFFFFFFFFFFFF AND PUSH20 0xFFFFFFFFFFFFFFFFFFFFFFFFFFFFFFFFFFFFFFFF AND DUP2 MSTORE PUSH1 0x20 ADD SWAP1 DUP2 MSTORE PUSH1 0x20 ADD PUSH0 KECCAK256 PUSH0 DUP3 DUP3 SLOAD PUSH2 0x7CB SWAP2 SWAP1 PUSH2 0x102B JUMP JUMPDEST SWAP3 POP POP DUP2 SWAP1 SSTORE POP PUSH0 PUSH0 SWAP1 SLOAD SWAP1 PUSH2 0x100 EXP SWAP1 DIV PUSH20 0xFFFFFFFFFFFFFFFFFFFFFFFFFFFFFFFFFFFFFFFF AND PUSH20 0xFFFFFFFFFFFFFFFFFFFFFFFFFFFFFFFFFFFFFFFF AND PUSH4 0x40C10F19 CALLER PUSH1 0x64 CALLVALUE PUSH2 0x81C SWAP2 SWAP1 PUSH2 0xFEA JUMP JUMPDEST PUSH1 0x40 MLOAD DUP4 PUSH4 0xFFFFFFFF AND PUSH1 0xE0 SHL DUP2 MSTORE PUSH1 0x4 ADD PUSH2 0x839 SWAP3 SWAP2 SWAP1 PUSH2 0x13DE JUMP JUMPDEST PUSH0 PUSH1 0x40 MLOAD DUP1 DUP4 SUB DUP2 PUSH0 DUP8 DUP1 EXTCODESIZE ISZERO DUP1 ISZERO PUSH2 0x850 JUMPI PUSH0 PUSH0 REVERT JUMPDEST POP GAS CALL ISZERO DUP1 ISZERO PUSH2 0x862 JUMPI RETURNDATASIZE PUSH0 PUSH0 RETURNDATACOPY RETURNDATASIZE PUSH0 REVERT JUMPDEST POP POP POP POP PUSH32 0xA4A91237423E0A1766A761C7CB029311D8B95D6B1B81DB1B949A70C98B4E08E DUP3 CALLER CALLVALUE PUSH1 0x40 MLOAD PUSH2 0x899 SWAP4 SWAP3 SWAP2 SWAP1 PUSH2 0x1405 JUMP JUMPDEST PUSH1 0x40 MLOAD DUP1 SWAP2 SUB SWAP1 LOG1 POP POP JUMP JUMPDEST PUSH0 PUSH0 SWAP1 SLOAD SWAP1 PUSH2 0x100 EXP SWAP1 DIV PUSH20 0xFFFFFFFFFFFFFFFFFFFFFFFFFFFFFFFFFFFFFFFF AND DUP2 JUMP JUMPDEST PUSH0 PUSH1 0x40 MLOAD SWAP1 POP SWAP1 JUMP JUMPDEST PUSH0 PUSH0 REVERT JUMPDEST PUSH0 PUSH0 REVERT JUMPDEST PUSH0 DUP2 SWAP1 POP SWAP2 SWAP1 POP JUMP JUMPDEST PUSH2 0x8EC DUP2 PUSH2 0x8DA JUMP JUMPDEST DUP2 EQ PUSH2 0x8F6 JUMPI PUSH0 PUSH0 REVERT JUMPDEST POP JUMP JUMPDEST PUSH0 DUP2 CALLDATALOAD SWAP1 POP PUSH2 0x907 DUP2 PUSH2 0x8E3 JUMP JUMPDEST SWAP3 SWAP2 POP POP JUMP JUMPDEST PUSH0 PUSH1 0x20 DUP3 DUP5 SUB SLT ISZERO PUSH2 0x922 JUMPI PUSH2 0x921 PUSH2 0x8D2 JUMP JUMPDEST JUMPDEST PUSH0 PUSH2 0x92F DUP5 DUP3 DUP6 ADD PUSH2 0x8F9 JUMP JUMPDEST SWAP2 POP POP SWAP3 SWAP2 POP POP JUMP JUMPDEST PUSH0 PUSH20 0xFFFFFFFFFFFFFFFFFFFFFFFFFFFFFFFFFFFFFFFF DUP3 AND SWAP1 POP SWAP2 SWAP1 POP JUMP JUMPDEST PUSH0 PUSH2 0x961 DUP3 PUSH2 0x938 JUMP JUMPDEST SWAP1 POP SWAP2 SWAP1 POP JUMP JUMPDEST PUSH2 0x971 DUP2 PUSH2 0x957 JUMP JUMPDEST DUP3 MSTORE POP POP JUMP JUMPDEST PUSH0 DUP2 MLOAD SWAP1 POP SWAP2 SWAP1 POP JUMP JUMPDEST PUSH0 DUP3 DUP3 MSTORE PUSH1 0x20 DUP3 ADD SWAP1 POP SWAP3 SWAP2 POP POP JUMP JUMPDEST DUP3 DUP2 DUP4 MCOPY PUSH0 DUP4 DUP4 ADD MSTORE POP POP POP JUMP JUMPDEST PUSH0 PUSH1 0x1F NOT PUSH1 0x1F DUP4 ADD AND SWAP1 POP SWAP2 SWAP1 POP JUMP JUMPDEST PUSH0 PUSH2 0x9B9 DUP3 PUSH2 0x977 JUMP JUMPDEST PUSH2 0x9C3 DUP2 DUP6 PUSH2 0x981 JUMP JUMPDEST SWAP4 POP PUSH2 0x9D3 DUP2 DUP6 PUSH1 0x20 DUP7 ADD PUSH2 0x991 JUMP JUMPDEST PUSH2 0x9DC DUP2 PUSH2 0x99F JUMP JUMPDEST DUP5 ADD SWAP2 POP POP SWAP3 SWAP2 POP POP JUMP JUMPDEST PUSH2 0x9F0 DUP2 PUSH2 0x8DA JUMP JUMPDEST DUP3 MSTORE POP POP JUMP JUMPDEST PUSH0 DUP2 ISZERO ISZERO SWAP1 POP SWAP2 SWAP1 POP JUMP JUMPDEST PUSH2 0xA0A DUP2 PUSH2 0x9F6 JUMP JUMPDEST DUP3 MSTORE POP POP JUMP JUMPDEST PUSH0 PUSH1 0xE0 DUP3 ADD SWAP1 POP PUSH2 0xA23 PUSH0 DUP4 ADD DUP11 PUSH2 0x968 JUMP JUMPDEST DUP2 DUP2 SUB PUSH1 0x20 DUP4 ADD MSTORE PUSH2 0xA35 DUP2 DUP10 PUSH2 0x9AF JUMP JUMPDEST SWAP1 POP PUSH2 0xA44 PUSH1 0x40 DUP4 ADD DUP9 PUSH2 0x9E7 JUMP JUMPDEST PUSH2 0xA51 PUSH1 0x60 DUP4 ADD DUP8 PUSH2 0x9E7 JUMP JUMPDEST PUSH2 0xA5E PUSH1 0x80 DUP4 ADD DUP7 PUSH2 0x9E7 JUMP JUMPDEST PUSH2 0xA6B PUSH1 0xA0 DUP4 ADD DUP6 PUSH2 0xA01 JUMP JUMPDEST PUSH2 0xA78 PUSH1 0xC0 DUP4 ADD DUP5 PUSH2 0xA01 JUMP JUMPDEST SWAP9 SWAP8 POP POP POP POP POP POP POP POP JUMP JUMPDEST PUSH0 PUSH0 REVERT JUMPDEST PUSH0 PUSH0 REVERT JUMPDEST PUSH32 0x4E487B7100000000000000000000000000000000000000000000000000000000 PUSH0 MSTORE PUSH1 0x41 PUSH1 0x4 MSTORE PUSH1 0x24 PUSH0 REVERT JUMPDEST PUSH2 0xAC2 DUP3 PUSH2 0x99F JUMP JUMPDEST DUP2 ADD DUP2 DUP2 LT PUSH8 0xFFFFFFFFFFFFFFFF DUP3 GT OR ISZERO PUSH2 0xAE1 JUMPI PUSH2 0xAE0 PUSH2 0xA8C JUMP JUMPDEST JUMPDEST DUP1 PUSH1 0x40 MSTORE POP POP POP JUMP JUMPDEST PUSH0 PUSH2 0xAF3 PUSH2 0x8C9 JUMP JUMPDEST SWAP1 POP PUSH2 0xAFF DUP3 DUP3 PUSH2 0xAB9 JUMP JUMPDEST SWAP2 SWAP1 POP JUMP JUMPDEST PUSH0 PUSH8 0xFFFFFFFFFFFFFFFF DUP3 GT ISZERO PUSH2 0xB1E JUMPI PUSH2 0xB1D PUSH2 0xA8C JUMP JUMPDEST JUMPDEST PUSH2 0xB27 DUP3 PUSH2 0x99F JUMP JUMPDEST SWAP1 POP PUSH1 0x20 DUP2 ADD SWAP1 POP SWAP2 SWAP1 POP JUMP JUMPDEST DUP3 DUP2 DUP4 CALLDATACOPY PUSH0 DUP4 DUP4 ADD MSTORE POP POP POP JUMP JUMPDEST PUSH0 PUSH2 0xB54 PUSH2 0xB4F DUP5 PUSH2 0xB04 JUMP JUMPDEST PUSH2 0xAEA JUMP JUMPDEST SWAP1 POP DUP3 DUP2 MSTORE PUSH1 0x20 DUP2 ADD DUP5 DUP5 DUP5 ADD GT ISZERO PUSH2 0xB70 JUMPI PUSH2 0xB6F PUSH2 0xA88 JUMP JUMPDEST JUMPDEST PUSH2 0xB7B DUP5 DUP3 DUP6 PUSH2 0xB34 JUMP JUMPDEST POP SWAP4 SWAP3 POP POP POP JUMP JUMPDEST PUSH0 DUP3 PUSH1 0x1F DUP4 ADD SLT PUSH2 0xB97 JUMPI PUSH2 0xB96 PUSH2 0xA84 JUMP JUMPDEST JUMPDEST DUP2 CALLDATALOAD PUSH2 0xBA7 DUP5 DUP3 PUSH1 0x20 DUP7 ADD PUSH2 0xB42 JUMP JUMPDEST SWAP2 POP POP SWAP3 SWAP2 POP POP JUMP JUMPDEST PUSH0 PUSH0 PUSH0 PUSH1 0x60 DUP5 DUP7 SUB SLT ISZERO PUSH2 0xBC7 JUMPI PUSH2 0xBC6 PUSH2 0x8D2 JUMP JUMPDEST JUMPDEST PUSH0 DUP5 ADD CALLDATALOAD PUSH8 0xFFFFFFFFFFFFFFFF DUP2 GT ISZERO PUSH2 0xBE4 JUMPI PUSH2 0xBE3 PUSH2 0x8D6 JUMP JUMPDEST JUMPDEST PUSH2 0xBF0 DUP7 DUP3 DUP8 ADD PUSH2 0xB83 JUMP JUMPDEST SWAP4 POP POP PUSH1 0x20 PUSH2 0xC01 DUP7 DUP3 DUP8 ADD PUSH2 0x8F9 JUMP JUMPDEST SWAP3 POP POP PUSH1 0x40 PUSH2 0xC12 DUP7 DUP3 DUP8 ADD PUSH2 0x8F9 JUMP JUMPDEST SWAP2 POP POP SWAP3 POP SWAP3 POP SWAP3 JUMP JUMPDEST PUSH2 0xC25 DUP2 PUSH2 0x957 JUMP JUMPDEST DUP2 EQ PUSH2 0xC2F JUMPI PUSH0 PUSH0 REVERT JUMPDEST POP JUMP JUMPDEST PUSH0 DUP2 CALLDATALOAD SWAP1 POP PUSH2 0xC40 DUP2 PUSH2 0xC1C JUMP JUMPDEST SWAP3 SWAP2 POP POP JUMP JUMPDEST PUSH0 PUSH0 PUSH1 0x40 DUP4 DUP6 SUB SLT ISZERO PUSH2 0xC5C JUMPI PUSH2 0xC5B PUSH2 0x8D2 JUMP JUMPDEST JUMPDEST PUSH0 PUSH2 0xC69 DUP6 DUP3 DUP7 ADD PUSH2 0x8F9 JUMP JUMPDEST SWAP3 POP POP PUSH1 0x20 PUSH2 0xC7A DUP6 DUP3 DUP7 ADD PUSH2 0xC32 JUMP JUMPDEST SWAP2 POP POP SWAP3 POP SWAP3 SWAP1 POP JUMP JUMPDEST PUSH0 PUSH1 0x20 DUP3 ADD SWAP1 POP PUSH2 0xC97 PUSH0 DUP4 ADD DUP5 PUSH2 0x9E7 JUMP JUMPDEST SWAP3 SWAP2 POP POP JUMP JUMPDEST PUSH0 DUP2 SWAP1 POP SWAP2 SWAP1 POP JUMP JUMPDEST PUSH0 PUSH2 0xCC0 PUSH2 0xCBB PUSH2 0xCB6 DUP5 PUSH2 0x938 JUMP JUMPDEST PUSH2 0xC9D JUMP JUMPDEST PUSH2 0x938 JUMP JUMPDEST SWAP1 POP SWAP2 SWAP1 POP JUMP JUMPDEST PUSH0 PUSH2 0xCD1 DUP3 PUSH2 0xCA6 JUMP JUMPDEST SWAP1 POP SWAP2 SWAP1 POP JUMP JUMPDEST PUSH0 PUSH2 0xCE2 DUP3 PUSH2 0xCC7 JUMP JUMPDEST SWAP1 POP SWAP2 SWAP1 POP JUMP JUMPDEST PUSH2 0xCF2 DUP2 PUSH2 0xCD8 JUMP JUMPDEST DUP3 MSTORE POP POP JUMP JUMPDEST PUSH0 PUSH1 0x20 DUP3 ADD SWAP1 POP PUSH2 0xD0B PUSH0 DUP4 ADD DUP5 PUSH2 0xCE9 JUMP JUMPDEST SWAP3 SWAP2 POP POP JUMP JUMPDEST PUSH32 0x4E6F74207265616368656420646561646C696E65000000000000000000000000 PUSH0 DUP3 ADD MSTORE POP JUMP JUMPDEST PUSH0 PUSH2 0xD45 PUSH1 0x14 DUP4 PUSH2 0x981 JUMP JUMPDEST SWAP2 POP PUSH2 0xD50 DUP3 PUSH2 0xD11 JUMP JUMPDEST PUSH1 0x20 DUP3 ADD SWAP1 POP SWAP2 SWAP1 POP JUMP JUMPDEST PUSH0 PUSH1 0x20 DUP3 ADD SWAP1 POP DUP2 DUP2 SUB PUSH0 DUP4 ADD MSTORE PUSH2 0xD72 DUP2 PUSH2 0xD39 JUMP JUMPDEST SWAP1 POP SWAP2 SWAP1 POP JUMP JUMPDEST PUSH32 0x416C72656164792066696E616C697A6564000000000000000000000000000000 PUSH0 DUP3 ADD MSTORE POP JUMP JUMPDEST PUSH0 PUSH2 0xDAD PUSH1 0x11 DUP4 PUSH2 0x981 JUMP JUMPDEST SWAP2 POP PUSH2 0xDB8 DUP3 PUSH2 0xD79 JUMP JUMPDEST PUSH1 0x20 DUP3 ADD SWAP1 POP SWAP2 SWAP1 POP JUMP JUMPDEST PUSH0 PUSH1 0x20 DUP3 ADD SWAP1 POP DUP2 DUP2 SUB PUSH0 DUP4 ADD MSTORE PUSH2 0xDDA DUP2 PUSH2 0xDA1 JUMP JUMPDEST SWAP1 POP SWAP2 SWAP1 POP JUMP JUMPDEST PUSH0 DUP2 SWAP1 POP SWAP3 SWAP2 POP POP JUMP JUMPDEST POP JUMP JUMPDEST PUSH0 PUSH2 0xDF9 PUSH0 DUP4 PUSH2 0xDE1 JUMP JUMPDEST SWAP2 POP PUSH2 0xE04 DUP3 PUSH2 0xDEB JUMP JUMPDEST PUSH0 DUP3 ADD SWAP1 POP SWAP2 SWAP1 POP JUMP JUMPDEST PUSH0 PUSH2 0xE18 DUP3 PUSH2 0xDEE JUMP JUMPDEST SWAP2 POP DUP2 SWAP1 POP SWAP2 SWAP1 POP JUMP JUMPDEST PUSH32 0x5472616E73666572206661696C65640000000000000000000000000000000000 PUSH0 DUP3 ADD MSTORE POP JUMP JUMPDEST PUSH0 PUSH2 0xE56 PUSH1 0xF DUP4 PUSH2 0x981 JUMP JUMPDEST SWAP2 POP PUSH2 0xE61 DUP3 PUSH2 0xE22 JUMP JUMPDEST PUSH1 0x20 DUP3 ADD SWAP1 POP SWAP2 SWAP1 POP JUMP JUMPDEST PUSH0 PUSH1 0x20 DUP3 ADD SWAP1 POP DUP2 DUP2 SUB PUSH0 DUP4 ADD MSTORE PUSH2 0xE83 DUP2 PUSH2 0xE4A JUMP JUMPDEST SWAP1 POP SWAP2 SWAP1 POP JUMP JUMPDEST PUSH0 PUSH1 0x40 DUP3 ADD SWAP1 POP PUSH2 0xE9D PUSH0 DUP4 ADD DUP6 PUSH2 0x9E7 JUMP JUMPDEST PUSH2 0xEAA PUSH1 0x20 DUP4 ADD DUP5 PUSH2 0xA01 JUMP JUMPDEST SWAP4 SWAP3 POP POP POP JUMP JUMPDEST PUSH32 0x4E487B7100000000000000000000000000000000000000000000000000000000 PUSH0 MSTORE PUSH1 0x22 PUSH1 0x4 MSTORE PUSH1 0x24 PUSH0 REVERT JUMPDEST PUSH0 PUSH1 0x2 DUP3 DIV SWAP1 POP PUSH1 0x1 DUP3 AND DUP1 PUSH2 0xEF5 JUMPI PUSH1 0x7F DUP3 AND SWAP2 POP JUMPDEST PUSH1 0x20 DUP3 LT DUP2 SUB PUSH2 0xF08 JUMPI PUSH2 0xF07 PUSH2 0xEB1 JUMP JUMPDEST JUMPDEST POP SWAP2 SWAP1 POP JUMP JUMPDEST PUSH32 0x476F616C206D757374206265203E203000000000000000000000000000000000 PUSH0 DUP3 ADD MSTORE POP JUMP JUMPDEST PUSH0 PUSH2 0xF42 PUSH1 0x10 DUP4 PUSH2 0x981 JUMP JUMPDEST SWAP2 POP PUSH2 0xF4D DUP3 PUSH2 0xF0E JUMP JUMPDEST PUSH1 0x20 DUP3 ADD SWAP1 POP SWAP2 SWAP1 POP JUMP JUMPDEST PUSH0 PUSH1 0x20 DUP3 ADD SWAP1 POP DUP2 DUP2 SUB PUSH0 DUP4 ADD MSTORE PUSH2 0xF6F DUP2 PUSH2 0xF36 JUMP JUMPDEST SWAP1 POP SWAP2 SWAP1 POP JUMP JUMPDEST PUSH32 0x4E487B7100000000000000000000000000000000000000000000000000000000 PUSH0 MSTORE PUSH1 0x11 PUSH1 0x4 MSTORE PUSH1 0x24 PUSH0 REVERT JUMPDEST PUSH0 PUSH2 0xFAD DUP3 PUSH2 0x8DA JUMP JUMPDEST SWAP2 POP PUSH32 0xFFFFFFFFFFFFFFFFFFFFFFFFFFFFFFFFFFFFFFFFFFFFFFFFFFFFFFFFFFFFFFFF DUP3 SUB PUSH2 0xFDF JUMPI PUSH2 0xFDE PUSH2 0xF76 JUMP JUMPDEST JUMPDEST PUSH1 0x1 DUP3 ADD SWAP1 POP SWAP2 SWAP1 POP JUMP JUMPDEST PUSH0 PUSH2 0xFF4 DUP3 PUSH2 0x8DA JUMP JUMPDEST SWAP2 POP PUSH2 0xFFF DUP4 PUSH2 0x8DA JUMP JUMPDEST SWAP3 POP DUP3 DUP3 MUL PUSH2 0x100D DUP2 PUSH2 0x8DA JUMP JUMPDEST SWAP2 POP DUP3 DUP3 DIV DUP5 EQ DUP4 ISZERO OR PUSH2 0x1024 JUMPI PUSH2 0x1023 PUSH2 0xF76 JUMP JUMPDEST JUMPDEST POP SWAP3 SWAP2 POP POP JUMP JUMPDEST PUSH0 PUSH2 0x1035 DUP3 PUSH2 0x8DA JUMP JUMPDEST SWAP2 POP PUSH2 0x1040 DUP4 PUSH2 0x8DA JUMP JUMPDEST SWAP3 POP DUP3 DUP3 ADD SWAP1 POP DUP1 DUP3 GT ISZERO PUSH2 0x1058 JUMPI PUSH2 0x1057 PUSH2 0xF76 JUMP JUMPDEST JUMPDEST SWAP3 SWAP2 POP POP JUMP JUMPDEST PUSH0 DUP2 SWAP1 POP DUP2 PUSH0 MSTORE PUSH1 0x20 PUSH0 KECCAK256 SWAP1 POP SWAP2 SWAP1 POP JUMP JUMPDEST PUSH0 PUSH1 0x20 PUSH1 0x1F DUP4 ADD DIV SWAP1 POP SWAP2 SWAP1 POP JUMP JUMPDEST PUSH0 DUP3 DUP3 SHL SWAP1 POP SWAP3 SWAP2 POP POP JUMP JUMPDEST PUSH0 PUSH1 0x8 DUP4 MUL PUSH2 0x10BA PUSH32 0xFFFFFFFFFFFFFFFFFFFFFFFFFFFFFFFFFFFFFFFFFFFFFFFFFFFFFFFFFFFFFFFF DUP3 PUSH2 0x107F JUMP JUMPDEST PUSH2 0x10C4 DUP7 DUP4 PUSH2 0x107F JUMP JUMPDEST SWAP6 POP DUP1 NOT DUP5 AND SWAP4 POP DUP1 DUP7 AND DUP5 OR SWAP3 POP POP POP SWAP4 SWAP3 POP POP POP JUMP JUMPDEST PUSH0 PUSH2 0x10F6 PUSH2 0x10F1 PUSH2 0x10EC DUP5 PUSH2 0x8DA JUMP JUMPDEST PUSH2 0xC9D JUMP JUMPDEST PUSH2 0x8DA JUMP JUMPDEST SWAP1 POP SWAP2 SWAP1 POP JUMP JUMPDEST PUSH0 DUP2 SWAP1 POP SWAP2 SWAP1 POP JUMP JUMPDEST PUSH2 0x110F DUP4 PUSH2 0x10DC JUMP JUMPDEST PUSH2 0x1123 PUSH2 0x111B DUP3 PUSH2 0x10FD JUMP JUMPDEST DUP5 DUP5 SLOAD PUSH2 0x108B JUMP JUMPDEST DUP3 SSTORE POP POP POP POP JUMP JUMPDEST PUSH0 PUSH0 SWAP1 POP SWAP1 JUMP JUMPDEST PUSH2 0x113A PUSH2 0x112B JUMP JUMPDEST PUSH2 0x1145 DUP2 DUP5 DUP5 PUSH2 0x1106 JUMP JUMPDEST POP POP POP JUMP JUMPDEST JUMPDEST DUP2 DUP2 LT ISZERO PUSH2 0x1168 JUMPI PUSH2 0x115D PUSH0 DUP3 PUSH2 0x1132 JUMP JUMPDEST PUSH1 0x1 DUP2 ADD SWAP1 POP PUSH2 0x114B JUMP JUMPDEST POP POP JUMP JUMPDEST PUSH1 0x1F DUP3 GT ISZERO PUSH2 0x11AD JUMPI PUSH2 0x117E DUP2 PUSH2 0x105E JUMP JUMPDEST PUSH2 0x1187 DUP5 PUSH2 0x1070 JUMP JUMPDEST DUP2 ADD PUSH1 0x20 DUP6 LT ISZERO PUSH2 0x1196 JUMPI DUP2 SWAP1 POP JUMPDEST PUSH2 0x11AA PUSH2 0x11A2 DUP6 PUSH2 0x1070 JUMP JUMPDEST DUP4 ADD DUP3 PUSH2 0x114A JUMP JUMPDEST POP POP JUMPDEST POP POP POP JUMP JUMPDEST PUSH0 DUP3 DUP3 SHR SWAP1 POP SWAP3 SWAP2 POP POP JUMP JUMPDEST PUSH0 PUSH2 0x11CD PUSH0 NOT DUP5 PUSH1 0x8 MUL PUSH2 0x11B2 JUMP JUMPDEST NOT DUP1 DUP4 AND SWAP2 POP POP SWAP3 SWAP2 POP POP JUMP JUMPDEST PUSH0 PUSH2 0x11E5 DUP4 DUP4 PUSH2 0x11BE JUMP JUMPDEST SWAP2 POP DUP3 PUSH1 0x2 MUL DUP3 OR SWAP1 POP SWAP3 SWAP2 POP POP JUMP JUMPDEST PUSH2 0x11FE DUP3 PUSH2 0x977 JUMP JUMPDEST PUSH8 0xFFFFFFFFFFFFFFFF DUP2 GT ISZERO PUSH2 0x1217 JUMPI PUSH2 0x1216 PUSH2 0xA8C JUMP JUMPDEST JUMPDEST PUSH2 0x1221 DUP3 SLOAD PUSH2 0xEDE JUMP JUMPDEST PUSH2 0x122C DUP3 DUP3 DUP6 PUSH2 0x116C JUMP JUMPDEST PUSH0 PUSH1 0x20 SWAP1 POP PUSH1 0x1F DUP4 GT PUSH1 0x1 DUP2 EQ PUSH2 0x125D JUMPI PUSH0 DUP5 ISZERO PUSH2 0x124B JUMPI DUP3 DUP8 ADD MLOAD SWAP1 POP JUMPDEST PUSH2 0x1255 DUP6 DUP3 PUSH2 0x11DA JUMP JUMPDEST DUP7 SSTORE POP PUSH2 0x12BC JUMP JUMPDEST PUSH1 0x1F NOT DUP5 AND PUSH2 0x126B DUP7 PUSH2 0x105E JUMP JUMPDEST PUSH0 JUMPDEST DUP3 DUP2 LT ISZERO PUSH2 0x1292 JUMPI DUP5 DUP10 ADD MLOAD DUP3 SSTORE PUSH1 0x1 DUP3 ADD SWAP2 POP PUSH1 0x20 DUP6 ADD SWAP5 POP PUSH1 0x20 DUP2 ADD SWAP1 POP PUSH2 0x126D JUMP JUMPDEST DUP7 DUP4 LT ISZERO PUSH2 0x12AF JUMPI DUP5 DUP10 ADD MLOAD PUSH2 0x12AB PUSH1 0x1F DUP10 AND DUP3 PUSH2 0x11BE JUMP JUMPDEST DUP4 SSTORE POP JUMPDEST PUSH1 0x1 PUSH1 0x2 DUP9 MUL ADD DUP9 SSTORE POP POP POP JUMPDEST POP POP POP POP POP POP JUMP JUMPDEST PUSH0 PUSH1 0x80 DUP3 ADD SWAP1 POP PUSH2 0x12D7 PUSH0 DUP4 ADD DUP8 PUSH2 0x9E7 JUMP JUMPDEST DUP2 DUP2 SUB PUSH1 0x20 DUP4 ADD MSTORE PUSH2 0x12E9 DUP2 DUP7 PUSH2 0x9AF JUMP JUMPDEST SWAP1 POP PUSH2 0x12F8 PUSH1 0x40 DUP4 ADD DUP6 PUSH2 0x9E7 JUMP JUMPDEST PUSH2 0x1305 PUSH1 0x60 DUP4 ADD DUP5 PUSH2 0x9E7 JUMP JUMPDEST SWAP6 SWAP5 POP POP POP POP POP JUMP JUMPDEST PUSH32 0x43616D706169676E206973206F76657200000000000000000000000000000000 PUSH0 DUP3 ADD MSTORE POP JUMP JUMPDEST PUSH0 PUSH2 0x1342 PUSH1 0x10 DUP4 PUSH2 0x981 JUMP JUMPDEST SWAP2 POP PUSH2 0x134D DUP3 PUSH2 0x130E JUMP JUMPDEST PUSH1 0x20 DUP3 ADD SWAP1 POP SWAP2 SWAP1 POP JUMP JUMPDEST PUSH0 PUSH1 0x20 DUP3 ADD SWAP1 POP DUP2 DUP2 SUB PUSH0 DUP4 ADD MSTORE PUSH2 0x136F DUP2 PUSH2 0x1336 JUMP JUMPDEST SWAP1 POP SWAP2 SWAP1 POP JUMP JUMPDEST PUSH32 0x53656E6420736F6D652045544800000000000000000000000000000000000000 PUSH0 DUP3 ADD MSTORE POP JUMP JUMPDEST PUSH0 PUSH2 0x13AA PUSH1 0xD DUP4 PUSH2 0x981 JUMP JUMPDEST SWAP2 POP PUSH2 0x13B5 DUP3 PUSH2 0x1376 JUMP JUMPDEST PUSH1 0x20 DUP3 ADD SWAP1 POP SWAP2 SWAP1 POP JUMP JUMPDEST PUSH0 PUSH1 0x20 DUP3 ADD SWAP1 POP DUP2 DUP2 SUB PUSH0 DUP4 ADD MSTORE PUSH2 0x13D7 DUP2 PUSH2 0x139E JUMP JUMPDEST SWAP1 POP SWAP2 SWAP1 POP JUMP JUMPDEST PUSH0 PUSH1 0x40 DUP3 ADD SWAP1 POP PUSH2 0x13F1 PUSH0 DUP4 ADD DUP6 PUSH2 0x968 JUMP JUMPDEST PUSH2 0x13FE PUSH1 0x20 DUP4 ADD DUP5 PUSH2 0x9E7 JUMP JUMPDEST SWAP4 SWAP3 POP POP POP JUMP JUMPDEST PUSH0 PUSH1 0x60 DUP3 ADD SWAP1 POP PUSH2 0x1418 PUSH0 DUP4 ADD DUP7 PUSH2 0x9E7 JUMP JUMPDEST PUSH2 0x1425 PUSH1 0x20 DUP4 ADD DUP6 PUSH2 0x968 JUMP JUMPDEST PUSH2 0x1432 PUSH1 0x40 DUP4 ADD DUP5 PUSH2 0x9E7 JUMP JUMPDEST SWAP5 SWAP4 POP POP POP POP JUMP INVALID LOG2 PUSH5 0x6970667358 0x22 SLT KECCAK256 0xC2 0xAD SWAP2 DUP2 PUSH9 0x990B95F242E480EC4F LT KECCAK256 MUL PUSH11 0x880C1650A3703B72FAD1ED PUSH12 0xB55964736F6C634300081F00 CALLER "
				},
				"gasEstimates": {
					"creation": {
						"codeDepositCost": "1046400",
						"executionCost": "infinite",
						"totalCost": "infinite"
					},
					"external": {
						"campaignCount()": "2447",
						"campaigns(uint256)": "infinite",
						"contribute(uint256)": "infinite",
						"contributions(uint256,address)": "infinite",
						"createCampaign(string,uint256,uint256)": "infinite",
						"finalize(uint256)": "infinite",
						"rewardToken()": "infinite"
					}
				},
				"methodIdentifiers": {
					"campaignCount()": "7274e30d",
					"campaigns(uint256)": "141961bc",
					"contribute(uint256)": "c1cbbca7",
					"contributions(uint256,address)": "3d891f59",
					"createCampaign(string,uint256,uint256)": "3020580b",
					"finalize(uint256)": "05261aea",
					"rewardToken()": "f7c618c1"
				}
			},
			"storageLayout": {
				"storage": [
					{
						"astId": 27,
						"contract": "contracts/CourseFund.sol:CourseFund",
						"label": "rewardToken",
						"offset": 0,
						"slot": "0",
						"type": "t_contract(ICourseToken)9"
					},
					{
						"astId": 29,
						"contract": "contracts/CourseFund.sol:CourseFund",
						"label": "campaignCount",
						"offset": 0,
						"slot": "1",
						"type": "t_uint256"
					},
					{
						"astId": 34,
						"contract": "contracts/CourseFund.sol:CourseFund",
						"label": "campaigns",
						"offset": 0,
						"slot": "2",
						"type": "t_mapping(t_uint256,t_struct(Campaign)24_storage)"
					},
					{
						"astId": 40,
						"contract": "contracts/CourseFund.sol:CourseFund",
						"label": "contributions",
						"offset": 0,
						"slot": "3",
						"type": "t_mapping(t_uint256,t_mapping(t_address,t_uint256))"
					}
				],
				"types": {
					"t_address": {
						"encoding": "inplace",
						"label": "address",
						"numberOfBytes": "20"
					},
					"t_bool": {
						"encoding": "inplace",
						"label": "bool",
						"numberOfBytes": "1"
					},
					"t_contract(ICourseToken)9": {
						"encoding": "inplace",
						"label": "contract ICourseToken",
						"numberOfBytes": "20"
					},
					"t_mapping(t_address,t_uint256)": {
						"encoding": "mapping",
						"key": "t_address",
						"label": "mapping(address => uint256)",
						"numberOfBytes": "32",
						"value": "t_uint256"
					},
					"t_mapping(t_uint256,t_mapping(t_address,t_uint256))": {
						"encoding": "mapping",
						"key": "t_uint256",
						"label": "mapping(uint256 => mapping(address => uint256))",
						"numberOfBytes": "32",
						"value": "t_mapping(t_address,t_uint256)"
					},
					"t_mapping(t_uint256,t_struct(Campaign)24_storage)": {
						"encoding": "mapping",
						"key": "t_uint256",
						"label": "mapping(uint256 => struct CourseFund.Campaign)",
						"numberOfBytes": "32",
						"value": "t_struct(Campaign)24_storage"
					},
					"t_string_storage": {
						"encoding": "bytes",
						"label": "string",
						"numberOfBytes": "32"
					},
					"t_struct(Campaign)24_storage": {
						"encoding": "inplace",
						"label": "struct CourseFund.Campaign",
						"members": [
							{
								"astId": 11,
								"contract": "contracts/CourseFund.sol:CourseFund",
								"label": "creator",
								"offset": 0,
								"slot": "0",
								"type": "t_address"
							},
							{
								"astId": 13,
								"contract": "contracts/CourseFund.sol:CourseFund",
								"label": "title",
								"offset": 0,
								"slot": "1",
								"type": "t_string_storage"
							},
							{
								"astId": 15,
								"contract": "contracts/CourseFund.sol:CourseFund",
								"label": "goal",
								"offset": 0,
								"slot": "2",
								"type": "t_uint256"
							},
							{
								"astId": 17,
								"contract": "contracts/CourseFund.sol:CourseFund",
								"label": "deadline",
								"offset": 0,
								"slot": "3",
								"type": "t_uint256"
							},
							{
								"astId": 19,
								"contract": "contracts/CourseFund.sol:CourseFund",
								"label": "totalFunded",
								"offset": 0,
								"slot": "4",
								"type": "t_uint256"
							},
							{
								"astId": 21,
								"contract": "contracts/CourseFund.sol:CourseFund",
								"label": "finalized",
								"offset": 0,
								"slot": "5",
								"type": "t_bool"
							},
							{
								"astId": 23,
								"contract": "contracts/CourseFund.sol:CourseFund",
								"label": "success",
								"offset": 1,
								"slot": "5",
								"type": "t_bool"
							}
						],
						"numberOfBytes": "192"
					},
					"t_uint256": {
						"encoding": "inplace",
						"label": "uint256",
						"numberOfBytes": "32"
					}
				}
			},
			"userdoc": {
				"kind": "user",
				"methods": {},
				"version": 1
			}
		}
	}
}